:020000040800F2
:10000000F86800208D6B00083D6A00083F6A000810
:10001000416A0008436A0008456A000800000000C1
:100020000000000000000000000000008D690008D2
:10003000476A00080000000035690008C968000828
:10004000B76B0008BB6B0008BF6B0008C36B0008F0
:10005000C76B0008CB6B0008CF6B0008D36B0008A0
:10006000D76B0008DB6B0008DF6B0008E36B000850
:10007000E76B0008EB6B0008EF6B0008F36B000800
:10008000F76B0008FB6B0008FF6B0008036C0008AF
:10009000076C00080B6C00080F6C0008136C00085C
:1000A000176C0008496A00081B6C00081F6C0008E8
:1000B000236C0008276C00082B6C00082F6C0008CC
:1000C000336C0008376C00083B6C00083F6C00087C
:1000D000436C00084F6A0008556A00085B6A000814
:1000E000476C00084B6C00084F6C0008536C00080C
:1000F000576C00085B6C00085F6C0008636C0008BC
:10010000676C00086B6C00086F6C0008736C00086B
:10011000616A0008776C0008676A00087B6C000859
:100120007F6C0008836C0008876C00088B6C0008EB
:100130008F6C0008936C0008976C00089B6C00089B
:100140009F6C0008A36C0008A76C0008AB6C00084B
:10015000AF6C0008B36C0008B76C0008BB6C0008FB
:10016000BF6C0008C36C0008C76C0008CB6C0008AB
:10017000CF6C0008D36C00080000000000000000F5
:10018000D76C0008DB6C00086D6A0008DF6C0008A3
:10019000E36C0008E76C000800000000EB6C00084E
:1001A000EF6C0008F36C0008000000000000000085
:1001B000F76C00080000000000000000FB6C000865
:1001C000FF6C0008036D0008076D00080B6D000848
:1001D0000F6D0008136D000830B40021DFF8A82C63
:1001E00048F205030C020820650024044CBF83EA92
:1001F00005042C46401EF7D1491CB1F5807F22F83A
:10020000024BEFD330BC7047F8B5FFF7E5FF4FF076
:10021000FF34DFF8785CDFF8786C06E0304601F0F8
:1002200083F90446304601F010F9304601F0A4F895
:100230002946304601F022F90028F3D1002CEDD4F4
:10024000304601F071F927460446BC42EAD1A4F6D3
:100250007560632804D2DFF83C0C012101703BE09B
:10026000A4F6E542632A38BF022032D3A4F6553201
:10027000812A38BF03202CD3A4F61522772A38BF51
:10028000042026D3A4F69902632A38BF052020D380
:10029000A4F20972632A38BF06201AD3A4F2795255
:1002A000812A38BF072014D3A4F23942772A38BFF5
:1002B00008200ED3A4F2BD22632A38BF092008D338
:1002C000A4F22D12772A38BF0A2002D30A2C03D2B7
:1002D0000B20DFF8C01B087005A001F053FABDE841
:1002E000F440DFF8B00B017807A001F04BBA000032
:1002F0005B426F61726420496E666F726D617469F2
:100300006F6E5D0D0A00000020536C6F74204E75F7
:100310006D626572203A20253032640D0A0A0000B1
:1003200070B5DFF8700BDFF8704B0178DFF86C0BFD
:1003300004F1D005012229706A7005220168C943C1
:1003400001F00F0185F8021004F1D30046A101F07D
:100350002DFAA87801281FD101212872297368730A
:1003600028743E2100206982A88240F20116EE81A5
:100370003146012001F0A4FC0221A97501204FF4AF
:10038000827129836872E875A8763E21A9830020CE
:10039000E8834FF482711DE0022832D101202872D7
:1003A0002873687328743E2100206982A88240F275
:1003B0000116EE813146012001F082FC0221A9756F
:1003C00001206872E875A8760021E9833E202E831B
:1003D000A8833146022001F073FC0120A87203219A
:1003E00004F1F000012201704270002101810271CC
:1003F00031463E224680C2800320BDE8704001F0B5
:100400005FBC03282FD101202872287368732874D9
:1004100040F2011100203E22A882E9816A82012077
:1004200001F04EFC0221A97501204FF4827168721F
:10043000E8752983A8763E210020A983E8834FF43C
:100440008271022001F03CFC0020A872032104F11B
:10045000F000FE2201704FF6FE63002142704380DF
:100460000171C180018170BD463030303100000023
:1004700070B5DFF8244ACF21204601F051FC232239
:1004800004F1D000227062700125427BC389E270C2
:1004900023712323027C6271A57004F1450213705D
:1004A00053700226C37D058BD3709670157123257A
:1004B000837E537104F18A0204F1F20115705570C4
:1004C00003260D88897894F8F13015715171967072
:1004D000D3700021DFF84C5C00220023002685E861
:1004E0004E0001782B714D226A703031297006223E
:1004F000EA705421A97009226A7105224178A97114
:1005000004F1D3018078E871DFF8240C01F04EF992
:100510006E73AE7370BD2DE9F843DFF8C04D04F182
:10052000DE054FF0000804F1D8092E4600F1180747
:10053000F87989F80000397806F8021C787806F80E
:10054000010C7978B87840EA012030803E20F978B3
:10055000B170B0800021F18099F8000028B1318895
:1005600008F10100C0B201F0ABFB08F101080A3745
:100570000A36B8F1030F09F10109D9DBCF21204672
:1005800001F0CEFB232020706070012294F8DD0082
:100590002988E07021712321A8786071A27004F18C
:1005A0004500017041700223697A6A89C1708370C5
:1005B00002712322297B417104F18A00E97C0270D7
:1005C0004270C1700323AA8AA97D837002714171B0
:1005D000BDE8F18338B5DFF8F04C2021204601F06A
:1005E0009FFBDFF8F85C05F1D0004D2201786270C6
:1005F0003031217002225421A170E2700021A180CB
:100600004178A1718278E271C178217202796272B7
:100610004179A17229468279E2720622C07920735B
:1006200004F10D0001F0C2F8062205F1450104F1C4
:10063000130001F0BBF8062205F18A0104F119004C
:1006400001F0B4F81F20208400211920607121716D
:1006500031BD2DE9F041DFF8744CDFF83C88DB2137
:10066000204601F05DFB08F1D0064D213078617025
:100670003030207003215420A070E1700020A08051
:100680007078A071B178E171F0782072317961727F
:100690007079A072B179E1720021F07920736173F1
:1006A0004146778ABA1D04F10E0001F07FF8143735
:1006B000B58B38B2AA1D08F14501204401F076F847
:1006C000AD1DEF19F68C38B2B21D08F18A01204435
:1006D00001F06CF8B61DDFF8341CF7190F8039B241
:1006E000891F0912B81F21716071BDE8F081C52210
:1006F000027001234370C3704FF0000C0B0080F8B0
:1007000002C008BF522116E12DE9F0410024150076
:1007100009D00D4615F8016BA419521EFAD1E4B2A6
:10072000002C40F0FA804524DFF86C2714FB00F41D
:1007300022441D00A2F13F0440F099800022227063
:100740006270A270E27064258E7A4A7ACF7A06EBE4
:1007500086035B0015FB0232D319DFF8742BD31824
:100760001A041216227163714A798B79CF7912FBC0
:1007700005F203EB830602EB4602D21941F2D043A5
:10078000D21A12B21612A671E2714FF47A768F7CE9
:1007900091F813C091F8158017FB06F71CFB057C38
:1007A0000F7D07EB87070CEB470C42F6B0730CEBA1
:1007B0000807DF193FB24FEA272C84F808C0677298
:1007C00091F817C091F818E01CFB06F61EFB0565B2
:1007D0004E7E06EB860605EB46058E7E35445D199A
:1007E0008B7D2DB22D2B04BF6D422DB2DFF8E43A84
:1007F0002E1218442673657310F8010C10B1EF190E
:1008000097FBF0F210040016A072E2720020A073B1
:10081000E07301F122000178CA0744BF0121E173AE
:100820000278110703D5E27B42F00402E2730178FB
:10083000CA0603D5E17B41F00201E17301784A0663
:1008400003D5E17B41F00801E173C1780A0603D5C5
:10085000E17B41F08001E17300212174C27802F054
:100860007F0262748178A1744078E07453E0012BB8
:1008700011D1531F00201870487E08B9012006E0EE
:10088000012808BF032002D0022801D1042058709B
:100890000321D01E3DE0022B3DD100232375A3751B
:1008A0000025DFF8303A65751844E57500F8015CFD
:1008B0000023491D0D78523D032D09D2E57D012607
:1008C0009E403543E57510F8015C6D1C00F8015C35
:1008D0000D7A523D032D09D2A57D01269E40354358
:1008E000A57510F8015C6D1C00F8015C012B09DC9A
:1008F000657D01269E403543657510F8015C6D1CD1
:1009000000F8015C5B1C491C072BD3DD2221A2F1FE
:10091000270001F025FA00F00DBC00F00EBCC52246
:10092000027001234370C3704FF0000C0B0080F87D
:1009300002C008BF522102D0012902D14921017110
:1009400001E04D220271CA21417180F806C0C52222
:100950008271C6218171C7228271C523017980F815
:1009600007C0A1F16F025242CA21827143738173A1
:10097000072070472DE9F8430024150084B009D002
:100980000D4615F8016BA419521EFAD1E4B2002CE1
:1009900040F02C814524DFF8002514FB00F41444BA
:1009A0001E00A4F13F0540F0D08000222A706A703A
:1009B000AA70EA7064268F7A4A7A07EB87035B0095
:1009C000CF7A16FB0232D319DFF80429D3181A04A0
:1009D00012162A716B714A798B7912FB06F203EBBE
:1009E0008307CB7902EB47021A4441F2D043D21A73
:1009F00012B21712AF71EA714FF47A7791F812C000
:100A000091F813E091F815901CFB07FC1EFB06CE35
:100A100091F814C00CEB8C080EEB480E42F6B07344
:100A20000EEB090C9C440FFA8CFC4FEA2C2E85F837
:100A300008E085F809C091F817E091F818801EFBCE
:100A400007F718FB06764F7E07EB870706EB47068E
:100A50008F7E3E449E198B7D36B22D2B04BF76428D
:100A600036B2DFF87038371218442F736E7310F8EF
:100A7000010C10B1B4449CFBF0F210040016A872F3
:100A8000EA720020A873002201F12206EA7330788E
:100A9000C10744BF0120E8733178480703D5E97BDB
:100AA00041F02001E9733078010703D5E87B40F07D
:100AB0000400E8733078C10603D5E87B40F00200FB
:100AC000E8733078410603D5E87B40F00800E8730E
:100AD0003079810603D5287C40F0010028742A74FF
:100AE000F17801F03F016974B078A8747178E97405
:100AF000307B0FF61C050390F17A0291B07A0190D9
:100B0000717A0091B079F279337A42EA002229466B
:100B1000A4F1250001F036F9F07C0390B17C02913C
:100B2000707C0190317C0091707BB27BF37B42EA58
:100B300000222946A4F1170001F024F9A4F10900CC
:100B400000210170327D42704EE0012B16D1002051
:100B500028768A7F6A76A4F109029070CB7F1071A3
:100B6000D370487E08B9012006E0012808BF0320A1
:100B700002D0022838D10420507135E0022B33D145
:100B800000222A75AA750023DFF848276B751044E8
:100B9000EB7500F8013C0022491D0E7801239340BB
:100BA000523E032E07D2EE7D1E43EE7510F8017CF7
:100BB0007F1C00F8017CAE7D1E43AE7510F8016C01
:100BC000761C012A00F8016C05DC6F7D3B436B75D8
:100BD000761C00F8016C521C491C072ADDDDA4F1CB
:100BE000090000218171C171012000E0002005B0E1
:100BF000BDE8F083C522027005235FEA010C18BF2F
:100C0000012943700BD1722282705423C3700029D2
:100C10000EBF0371522202715821417111E0022965
:100C200018BF03290DD169224F2302298270C37096
:100C300003D155210171532202E0432101714D225C
:100C400042712F218171CA22C2718378C1780279E1
:100C5000CB184179D318CB182F33C522CA21037280
:100C600042738173092070472DE9F84305460C460D
:100C70000021901E022806DDA61C101F16F8017B1D
:100C8000C919401EFAD1601EC9B2825C914240F07F
:100C9000F780180063D14520DFF84016DFF83036C2
:100CA00010FB05F54819A0F13F0100220A704A70B7
:100CB0008A70CA706422667D257DA77D06EB86005A
:100CC000400012FB0505E819181805042D160D71D2
:100CD000487104F129056F782E7807EB87004000F2
:100CE00012FB0606A87806449B191E0436168E7160
:100CF000CB714FF47A732F79EE78DFF8DC0512FBB5
:100D000007F713FB06766F7907EB870706EB4706B5
:100D1000AF79F619861937043F164E720F726F7A43
:100D20002E7A12FB07F213FB0622AB7AEF7A03EB63
:100D3000830602EB4602D2198218E8792D2808BFF3
:100D400052421004001608734A7300208873C87357
:100D5000E079002800F091800122CA738DE0012B18
:100D600051D16079A27900EB800102EB4102A2F53A
:100D70000473DFF860051BB2002647190022002B20
:100D800007F8012C914626DDDFF844C54FF0640ECC
:100D90004FF001082046C9EBC90101444C7B2406F1
:100DA00015D417F8014C641C07F8014C4C7B640601
:100DB00044BF08FA09F422438C7A1EFB0466CC7AFD
:100DC000097B04EB840406EB44067618664409F1BB
:100DD00001099945DFDB17F8011CDFF800354520D4
:100DE000B6B210FB05F596FBF1F158193F380C042B
:100DF00024168472C17214040021240E01744174FB
:100E00008474C27439E0022B24D1DFF8C8242A4448
:100E1000002102F8011C0022012008E0631D9E5CF5
:100E20004F2E04BF00FA02F31943521C12B263782A
:100E30001B1F9A42F2DB4520DFF8A02410FB05F5CA
:100E400050193F380B0E03750A0C0B0A4275837557
:100E5000C17512E04522DFF8840412FB05F5054454
:100E60002221A5F1270000F07BFF681F00210170FF
:100E700062798170521C4270C1700120BDE8F2831A
:100E80000020BDE8F2830000985D002040420F0082
:100E9000EC620020F0640020985F002010080240FF
:100EA000C522027001234FF0000C437080F802C08D
:100EB000C370002907BF4F2101715222027142E520
:100EC0002DE9F0410C46002115002DED088B09D0CD
:100ED000254615F8016B521E3144FAD1C9B20029DA
:100EE00040F01D8105464521DFF8F00311FB05F1B7
:100EF00000EB01081A00A8F13F073AD1002038752D
:100F0000B8750021DFF8CC0379752844F97500F82D
:100F1000011C621D13784F2B05D1FB7D01248C40F1
:100F20002343FB7504E010F8013C5B1C00F8013C16
:100F3000137A4F2B05D1BB7D01248C402343BB7515
:100F400004E010F8013C5B1C00F8013C137C4F2BC3
:100F500005D17B7D01248C4023437B7504E010F890
:100F6000013C5B1C00F8013C491C521C0829D1DBE8
:100F7000D2E0012B40F0D080002038707870B8703B
:100F8000F870387100267E719FED679B94F806C05B
:100F900000EE10CAB8EE400A10EE100A00F012FF80
:100FA0000022CF4B00F032FFCE4ACF4B00F0F0FFD3
:100FB0000022CE4B01F0BEF801F0E0F900EE100A7D
:100FC000DFEDCB0AB4EE600AF1EE10FA48BF9FEDF8
:100FD000C90A10EE100A00F0F5FE0022C64B00F020
:100FE000D7FF01F0FFF901040916F871B9719FEDFF
:100FF000C38BE07902EE100AB8EE422A12EE100A14
:1010000000F0E0FE53EC192B00F0C2FF53EC182B5C
:1010100000F0BEFF01F0B2F90BEE100A00F0D2FEB4
:101020009FEDB8AB53EC1A2B00F0B2FF01F0DAF9E8
:101030000104091678723972207A00EE100AB8EEAF
:10104000400A10EE100A00F0BDFE53EC192B00F020
:101050009FFF53EC182B00F09BFF01F08FF908EE77
:10106000100A00F0AFFE53EC1A2B00F091FF01F0D4
:10107000B9F90104091639737873BE72FE72954886
:10108000284410F8015CD5B13BEE080A10EE100AB6
:1010900000F098FE53EC1A2B00F07AFF01F0A2F951
:1010A00000B290FBF5F000EE100AB8EEC00ABDEEFB
:1010B000C00A10EE100A01040916B972F872BE7364
:1010C000FE736079412804BF0121F9730020217B60
:1010D000C2B2413291420DD0401CC3B2102BF6DB9C
:1010E0002621A8F1270000F03BFE6079422806D1B6
:1010F00002200FE0F97B41EA4001F973F0E7432851
:1011000008BF012006D0442808BF042002D045288B
:1011100002D1032008F8050CBDEC088B0AE0BDECF9
:10112000088B0AE0BC64002008AC1C5A647B244095
:101130009C6000200120BDE8F0810020BDE8F08126
:10114000F0B503460024901E022806DB4D1CD01E7D
:1011500015F8016BA419401EFAD18818E4B210F8F2
:10116000010C844240F0AE80487852286FD145206F
:101170005A4A574E10FB03F31344A3F13F040025D2
:1011800001F1420225706570907EA070D57EE570F9
:10119000642591F803C08F7891F804E00CEB8C0083
:1011A000400015FB070707EB0E00301807043F1639
:1011B0002771607191F80CC0CF7A91F80DE00CEBBB
:1011C0008C00400015FB070707EB0E0030180604E3
:1011D0003616A671E0718E7BCF7B16FB05F607EB0A
:1011E000870706EB47060F7C39483E44861936B21E
:1011F0003712277266728F7C17FB05F5CF7C07EBE1
:10120000870705EB47050F7DED194519487C2DB281
:101210002D2804BF6D422DB2291221736573AE19BA
:10122000907DD57D00EB800105EB4105A5F50470AF
:1012300000B296FBF0F0E07206043616581FA67254
:10124000002101701278A2F12B03437038E04B2883
:1012500036D14520214A10FB03F3D0183F38002334
:101260008373C3738A7802F00102C2738B785B08C0
:1012700003F006031A43C273CA78920002F01C02FC
:1012800082730022027442740A7A02F003028274AA
:101290000B794A7903F00F0343EA02130022027527
:1012A0004275C3740A7AD243C2F381028275CA7945
:1012B0008979C943D24301F00F0141EA0211C17596
:1012C0000120F0BD0020F0BD986400209460002053
:1012D00030EBFFFFE4640020B02FFFFF985F002099
:1012E00000C06540D578E9263108F03F0000244071
:1012F00000008C4100000000000059400000000088
:101300000000E03F0000000000002440BA6400201C
:10131000253464253032642530326425303264252A
:10132000303264253032640070B5044600250CB9B3
:10133000012070BD04F13C06706820B9B5603070C2
:10134000204601F09CF87068C10610D4706820F443
:10135000885040F002007060204600F089F9B560C6
:10136000716821F0020141F00101716000E0012586
:1013700000203070284670BD38B40146002001F1CD
:101380003C0200901378012B08BF02205BD00120A3
:10139000107008688368DC0715D48368DFF8C853C9
:1013A00043F001038360DFF8C4030368A3FB055423
:1013B000E40C04EB4404009402E00098401E00900A
:1013C00000980028F9D10B689868C4073AD5556889
:1013D000DFF89C03054045F4807555605868440566
:1013E00005D5506820F4005040F48050506050689B
:1013F000C40446BF906820F00600002090600024DE
:1014000014706FF0220018600868DFF868130A682B
:1014100012F01F0F08D1816811F0405F12D181686E
:1014200041F0804181600DE0DFF84C13884202BF3B
:10143000DFF84803026812F0405F03D1016841F011
:1014400080410160002032BC704700F13C010A7805
:10145000012A01D10220704701220A7002689368B4
:101460005B085B00936000688268D00705D44A6817
:1014700022F4885242F001024A6052E070B50546FB
:101480000C46286881684A050CD58068C10509D5D5
:1014900005F13C000022416841F0200141600270EA
:1014A000012070BD01F022F80646286801688A070D
:1014B00012D414F1010FF8D024B101F017F8801BF9
:1014C0008442F2D205F13C000022416841F004015F
:1014D00041600270032070BD6FF01201016005F1E0
:1014E0003C01486840F4007048602A68906810F039
:1014F000405F04BFA869002811D1D06A10F4700FB2
:1015000002D0906842050AD4486820F48070486090
:101510004868C20403D4486840F0010048600020D5
:1015200070BD0020087070470068C06C704778B4C8
:1015300002460020009092F83C30012B08BF0220A8
:1015400000F09480012082F83C0007240B681068AA
:101550000A2B12D30A3BC56803EB43039C4025EAE0
:101560000404C460C3680D688C68A5F10A0606EB24
:101570004606B4402343C3600FE0056903EB430311
:1015800004FA03F325EA0303036103690D688C6819
:1015900005EB4505AC40234303611F244B68072B33
:1015A00011D25B1E456B03EB83039C4025EA0404C8
:1015B0004463436B4D680C886E1E06EB8606B44090
:1015C0002343436325E00D2B11D2DB1F056B03EB97
:1015D00083039C4025EA04040463036B4D680C8874
:1015E000EE1F06EB8606B4402343036311E00D3B78
:1015F000C56A03EB83039C4025EA0404C462C36A02
:101600004D680C88A5F10D0606EB8606B440234311
:10161000C362594B984225D10868122804D1554815
:10162000036843F4800303600868122818BF112878
:1016300018D15048036843F4000303600868122877
:1016400010D14A49484C0868A0FB0443DB0C03EB6B
:1016500083056D00009502E00098401E0090009800
:101660000028F9D1002182F83C10002072BC70479C
:10167000404A116821F440311160136841680B43FE
:1016800013600268536823F48073536051680369E0
:1016900041EA03215160516821F040715160536863
:1016A00081680B435360936823F4006393609368ED
:1016B000C1680B4393603249836A8B4210D09368B0
:1016C00023F0706393609368816A0B43936093681F
:1016D00023F0405393609368C16A0B43936007E023
:1016E000916821F070619160916821F040519160A2
:1016F000916821F0020191609168836941EA430198
:101700009160016A002951680CD041F40061516078
:10171000516821F4604151605168436A5B1E41EA9F
:10172000433101E021F400615160D16A21F470017C
:10173000D162D16AC3695B1E41EA0351D1629168EB
:1017400021F4007191609168036B41EA432191603B
:10175000916821F4806191609168406941EA80213B
:10176000916070470000000006BD37861800002019
:10177000FEF9FFFF04230140002001400820014042
:101780000100000F0EB4C0B5024603A8002101906D
:10179000009101AB0121044878440C3000F0ACFE0C
:1017A00006BC5DF810FB00BFC353000062B38B079B
:1017B00008D0521E11F8013B00F8013B00F02480D4
:1017C0008B07F6D1830740F0208000BF103A07D383
:1017D00030B4B1E83810103AA0E83810F9D230BC73
:1017E000530724BFB1E80810A0E8081044BF51F81F
:1017F000043B40F8043BD20724BF31F8022B20F809
:10180000022B44BF0B7803707047121F17D35B0085
:1018100009D151F8043B20F8023B1B0C121F20F8A1
:10182000023BF6D20BE051F8043B00F8013B1B0AE7
:1018300020F8023B1B0C121F00F8013BF3D238BF0B
:10184000121D521E24BF11F8013B00F8013BF8D8CD
:101850007047F0B40246106895681318506803EB9F
:101860005004C0071DD54D441BE013F8017B05F85B
:10187000017B491EF9D1A0B1B60813F8011B06F08F
:101880000306032E08BF13F8016B01EB0621494242
:10189000801C294405D011F8016B05F8016B401E2E
:1018A000F9D1A3420ED013F8016B16F0030104BF67
:1018B00013F8011BC91C30090F28DAD113F8010BEA
:1018C0000F30D6E7F0BC02F10C00704780B5DFF8AE
:1018D000B413DFF8B4230861CA600020486188614E
:1018E000C8610C22486288620A6201F10C0001F0B2
:1018F000C1FD00B117E001BD80B5DFF88803DFF856
:101900008C13C1644FF4E132026500210C22416561
:101910008165C1650266416681664C3001F0AAFDB1
:1019200000B100E001BDBDE8014002F0BBB980B5E7
:10193000DFF85C03DFF85C1301604FF4E132002351
:101940000C2142608360C360036141618361C361B4
:1019500001F090FD00B1E6E701BD80B5DFF8381376
:10196000DFF8382348600A6000208860C86008619A
:101970000C228861C8614A61084601F07BFD00B114
:10198000D1E701BD80B5DFF81813DFF818234860F0
:101990000A6000208860C86008610C228861C86104
:1019A0004A61084601F066FD00B1BCE701BD38B5EB
:1019B00086B069460022002300241CC10CC10068C7
:1019C000DFF8C452A8423AD1DFF8DC02DFF8DC428B
:1019D0000592016941F400210161016901F40021CE
:1019E0000591059905920221036843F00103036004
:1019F0000322006800F00100059005980091019114
:101A0000039201210291204608210491694602F0C7
:101A10004BF94FF48052009202210191012202926F
:101A2000032103910B2204926946204602F03CF9FF
:101A300000220821342002F028FA3420CDE0934916
:101A400088422AD198480592016941F0804101619C
:101A5000016901F080410591059905924FF401411A
:101A6000036843F0010303600222006800F00100F4
:101A7000059005988D480091019201210291032261
:101A8000082104910392694602F00EF90022052113
:101A9000522002F0FAF952209FE07E4988422AD172
:101AA00081480592416941F010014161416901F0AD
:101AB00010010591059905924FF4C061036843F048
:101AC000010303600222006800F001000590059800
:101AD000764800910192012102910322072104918D
:101AE0000392694602F0E0F800220A21252002F064
:101AF000CCF9252071E06949884229D16A480592CC
:101B0000016941F400310161016901F4003105917D
:101B1000059905920C21036843F00103036002223A
:101B2000006800F00100059005986048009101925E
:101B3000012102910322072104910392694602F0D8
:101B4000B3F800220621262002F09FF9262044E067
:101B50005449884243D154480592016941F4802197
:101B60000161016901F480210591059905920368DD
:101B700043F004030360016801F004010591059935
:101B800005922021036843F00203036002220068EB
:101B900000F002000590059845480091019201214E
:101BA00002910322072104910392694602F07CF816
:101BB00002210191012202924FF4806003210090E2
:101BC00003910722049269463A4802F06DF8002218
:101BD0000721272002F059F9272002F07FF907B0EA
:101BE00030BD38B504462D4A206890420DD1254DB0
:101BF000297805F18C0002F095F901222946264842
:101C000001F01CFD2C4900200880226825488242F2
:101C10000DD11C4DA97805F5096002F083F9012268
:101C2000A91C1F4801F00AFD2349002048802068B4
:101C3000154988420FD1134D297941F29400284467
:101C400002F070F90122291D05F10C0001F0F6FCEB
:101C500019490020888020680C49884210D1094C1D
:101C6000217A41F69800204402F05CF9012204F147
:101C7000080104F14C0001F0E1FC1049002008804B
:101C800031BD0000FC3C0020004C004000780040CA
:101C900034630020001001407463002000440040C1
:101CA000B463002000480040303802400000024089
:101CB00000080240000402407C640020846400208C
:101CC00040F20113C91A02290FD9C91E10D0491EAA
:101CD000022910D97C3908D0491E06290ED982392B
:101CE00003D040F20D43C91A0AD14FF4165207E04F
:101CF0004FF4164204E04FF4966201E04FF4614263
:101D0000012804BF1046FFF728BE022804BF104672
:101D1000FFF738BE032804BF1046FFF7D7BD704752
:101D2000002202F02DB930B4002513E050F8042B46
:101D3000D30744BFA9F101039A18091F042942F8E7
:101D4000045BFAD213468C0744BF15809B1CC9075D
:101D500048BF1D7050F8041B0029E7D130BC704704
:101D6000002202F027B9B1F5807F02D34FF0FF3097
:101D700070470170012070470078401E8041C043C9
:101D8000C00F70470CB430B583B00A4606A9029163
:101D9000044600250194009502AB01A90848784447
:101DA0001E3000F0A9FB019A157000284EBF0446B2
:101DB0000198041B204603B030BC5DF80CFB00BF4B
:101DC000C7010000C0F3C75181B1FF2906D0C1107F
:101DD000400721F0E04101F16051704741020CBF22
:101DE00040F4E0016FF000410020704700F0004136
:101DF00000020AD0B0FA80FC00FA0CF001F1605148
:101E0000A1EB0C5101EBD0214005704770B44FF0AD
:101E1000004591EA030F42F105816B40841A71EB92
:101E2000030604D26E40001BB141121973414FF4F6
:101E3000001C1CEB410F34BF7CEB430683E00C0D10
:101E4000A4EB1356362E00F37C80012E45EAC32303
:101E500041DC43EA525312BFD20292025B082405CE
:101E600045EAC12141EA5051D2EBC020994125D425
:101E700007D1B0FA80F610FA06F162D000202036C1
:101E800008E0B1FA81F6B140C6F1200220FA02F270
:101E90001143B0404FEAF474B4EB465434F00106F9
:101EA0004FEA74040AD8D6F50016760D04F0004403
:101EB000F04061FA06F25040F1404840C00A40EA62
:101EC000415021F0004128BF5FEA500550F1000069
:101ED00044EBD12135E0DB0A45EAC121C90AB6F15C
:101EE00020050EDD42EA0242120CC5F1200603FA7B
:101EF00006F6EB4042EA06056D42984161F10001A9
:101F00000DE062FA06F5F240554063FA06FC82EAFB
:101F10000C02F3405A406D42904161EB030111F411
:101F2000801F05D1641E620502D06D004041494109
:101F300021F48011430875F1004350F1000041EB9A
:101F4000045170BC70471CEB410F15D223F00043C5
:101F500052EA43060BD04FEA4C0CBCEB410F04D8BD
:101F60000C0D661E342EB7DDEBE7801A994150EA5E
:101F7000410608BF0021E4E708BF1CEB430F28BF60
:101F80006FF00001DDE70268531C036011707047B9
:101F9000B0B581EA030C0CF0004C40F2FF7515EA75
:101FA00011541DBF15EA1357AC42AF4239E0E41992
:101FB00023EA455343F48013C90241F0004141EA4A
:101FC000505EC7021100A7FB020200284FF000007C
:101FD000EEFB01204FF00001E3FB072118BF42F0A8
:101FE0000102401800214941E3FB0E01A4F5806481
:101FF0000F0302D252004041494154F101046CDD0B
:10200000470872F1004250F1000051EB0451A1F574
:1020100080115CBF41EA0C01B0BD4CEA05510020C3
:10202000B0BD05EA1357AC4214BFAF4241E050EADD
:10203000410E1CBF52EA430E02E061460020B0BDD3
:1020400024423C441BD15FEA070EF6D0090302BFCD
:1020500001460020AEF1140EB1FA81F7AEEB070491
:1020600001FA07FE0C37C7F1200100FA07F7C84054
:102070004EEA000E23EA455343F48013A2E733F0FF
:102080000043B3FA83F704BFB2FA82FE77440B3FF2
:10209000E41BB7F1200E2FBF02FA0EF3BB40C7F1CD
:1020A000200E22FA0EFE38BF43EA0E03BA40641C2B
:1020B00082E750EA410E14BF52EA430E6FF000016E
:1020C0004FF4001717EB430F8ABF194617EB410F68
:1020D000B5E74CEA05510020B0BDD4F10104B4F1DC
:1020E00020070FDAC4F12007520828BF42F001028E
:1020F00010FA07F501FA07F7E1BF2A43E040384339
:10210000E1400FE0352C98DCC7F1200452EA400290
:1021100020FA07F218BF42F0010231FA07F0A1409D
:102120000A43002172F1004250F1000051EB0C0112
:10213000B0BD0000F0B540F2FF7581EA030C0CF071
:10214000004C15EA11541DBF15EA1357AC42AF42BB
:10215000E5E0BC41C1F31301C3F31303801A9941B5
:1021600043F4801304D2641E400049418018594151
:10217000C90241EA5051B1FBF3F603FB1611A2FB71
:102180000675D7EBC020A94102D2761E80185941AE
:10219000C90241EA5051B1FBF3FE03FB1E11A2FB41
:1021A0000E75D7EBC020A94103D2AEF1010E801805
:1021B0005941890241EA9051760546EA8E2EB1FBDB
:1021C000F3F603FB1611A2FB0675D7EB8020A9419D
:1021D00002D2761E80185941C90241EA50514EEA96
:1021E000060EB1FBF3F603FB1611A2FB0675D7EB47
:1021F000C020A94102D2761E80185941C90241EA85
:102200005051B1FBF3F703FB1711A2FB0735D3EBDA
:10221000C020A94167F100070CBF004247F0010749
:1022200066F3D5274FEA1E31B80814F5806412DD35
:10223000BD0775F1004250EB0E5051EB045111F502
:10224000801F5CBF41EA0C01F0BD4CF07F6141F0A2
:10225000E0410020F0BDBD076D0840EA0E5041F49A
:102260008011D4F10104B4F120060ADAC4F1200689
:102270000200E04001FA06F3E1401843B240154382
:102280000EE0342C13DCC6F1200445EA40056D084D
:1022900020FA06F2154321FA06F0A1400D43002171
:1022A00075F1004250F1000051EB0C01F0BD00202F
:1022B0005FEA0C01F0BDCFB992185B41B3FA83F726
:1022C00004BFB2FA82F6BF190B3FB7F120062FBF49
:1022D00002FA06F3BB40C7F1200622FA06F638BF21
:1022E0003343BA401CB1E419641E33E77F4231F036
:1022F0000041B1FA81F404BFB0FA80F6A4190B3C96
:10230000B4F120062FBF00FA06F1A140C4F1200667
:1023100020FA06F638BF3143A0403C1B1AE7AC4216
:102320001ABF05EA1357AF4212E050EA41061CBF3C
:1023300052EA4306BFE750EA4107304661461CBFF8
:1023400041EA0551F0BD52EA430C08BFC143F0BD5C
:1023500000204FF4001616EB410F98BF16EB430F09
:1023600008BF16EB410F24BFC14305E016EB430F36
:102370000CBF61464CEA0551F0BD000001F000427F
:102380008B1AA3F16051B1F5801F0ADBB1F17F6FA9
:102390001FD242EAC102C10071F1004142EB50700C
:1023A00070470B15C3F10903212B10D2890241EAB2
:1023B000905180020128494141F0004121FA03F087
:1023C000C3F12003994071F1004150417047100062
:1023D00070476FF0000013EB103F5CBF000E42EA45
:1023E000C0507047C1F30A5340F2FE329B1A14DD0D
:1023F000D3F120034FEAE17208DDC90241EA5051EE
:1024000041F00040D84080185040704703F2E1305E
:1024100010B1D24382F000407047002070470000A6
:1024200038B584B06846002100220023002480E8EB
:102430001E004FF48030284C284D6060A16021615F
:10244000A1612162E162E160216325602448A0620C
:102450000120E06160612046FEF766FF08B101F0EF
:1024600021FC002001210090019102906946204644
:10247000FFF75DF808B101F015FC05B030BD38B5C7
:1024800086B001A90022002300241CC10CC10068F1
:10249000124DA8421DD113480092416941F4807148
:1024A0004161416901F4807100910099009201211C
:1024B000036843F0010303600322006800F0010099
:1024C00000900098084801910292039401A901F03C
:1024D000EBFB07B030BD0000EC62002000200140A3
:1024E0000100000F303802400000024001484068FF
:1024F000704700BF0C0000202DE9F04F0FF2A41C24
:10250000A1B0DCE90089CDE900892A9DDFF8109CA3
:10251000049100248DF843500D944FF0FF3882460B
:1025200016461F460FE0B3462C461BF8011B0498C5
:10253000D0470028049000F0A2800D98401C641E33
:102540000D90F2D176193078252808D1002100228B
:102550000791089209910A920B910C920DE06A463C
:102560004146304601F0FAFD050001D10D98A1E089
:10257000D9D50125E6E741F0010116F8010F202821
:10258000F9D023280CD02B2804D02D2805D03028B2
:1025900009D076E041F00201EFE741F00401ECE7F9
:1025A00041F00801E9E741F01001E6E70F9209E088
:1025B0000F98484505DA00EB800402EB4402303AFC
:1025C0000F92761C3278A2F130000A28F0D33078CE
:1025D0002E2818BFCDF8388022D116F8010F2A28EE
:1025E00007D138683860761C50F8042B38600E929A
:1025F00016E02D280CBF761C002000220E920AE067
:1026000040B90E9A4A4505DA02EB820403EB440313
:10261000303B0E93761C3378A3F130020A2AEFD3B5
:10262000ADF8401021A0317801F0A2FD08B116F8F4
:10263000010B8DF842009DF84200682804D13078E3
:1026400068280AD1622105E06C2804BF30786C2824
:1026500003D171218DF84210761C12A806903A46DB
:1026600016F8013B02A9504600F064F838B912AAE6
:1026700002A9504600F0CAF900287FF564AF404631
:1026800018E02A2892D13A683A6052F8040B3A606E
:1026900000280F9003D540420F9041F00401761CB2
:1026A00095E700000000000000000000686A6C74FC
:1026B0007A4C000021B0BDE8F08F622820D0682855
:1026C00011D06A2803D06C2827D0712825D108683A
:1026D000C01D20F007000860D0E900230830086022
:1026E000194610467047002A0A680A60106803D02D
:1026F000121D0A6000B217E0121D0A6080B217E0D6
:10270000002A0A680A60106803D0121D0A6040B2ED
:102710000AE0121D0A60C0B20AE0002A0A680A60D4
:10272000106803D0121D0A60C1177047121D0A609D
:10273000002170477CB50D4611461C462E69B4F148
:10274000250200F051811C3A00F08680121F022AF7
:1027500040F282800E3A00F00B81521F5AD0093AA3
:102760007AD0921E16D0521E35D0521E022A73D92C
:10277000121F30D0521F00F09A80521E4AD0521EB3
:1027800000F0E480D21E00F00181921E42D0D21EE1
:1027900040D02FE195F83A406C2C09D06869421C72
:1027A0006A610A680A6052F8043B0A6033542BE1FC
:1027B0000A680A6052F8043B0A6000930022019202
:1027C0004FF0FF332B636A46294600F09AF9002840
:1027D00040F11A8105E195F83A000122FFF76DFFFB
:1027E000C5E900010023994204DA6869411C696166
:1027F0002D220DE0288F810704D56869411C69618D
:102800002B2205E0C00722D56869411C696120229E
:1028100032541CE095F83A000022FFF74EFFC5E95C
:10282000000195F83800010711D5D5E900230020F3
:10283000834208BF82420AD044F02000782806D1A3
:10284000686930213154401C421C6A61345421466D
:1028500068693044E86087E00868C01D20F0070020
:102860000860D0E9002308300860C5E90023D5E9F5
:102870000001C80F04D06869411C69612D220DE078
:10288000288F810704D56869411C69612B2205E006
:10289000C00704D56869411C696120223254686907
:1028A0003044E8602146284600F03AFAACE005F1F1
:1028B0003A02507820B14FF0FF340FF6343074E014
:1028C0001078622808D0682824D06A2812D06C2892
:1028D0002ED071280ED02BE00A680A6052F8040B43
:1028E0000A6020B94FF0FF340FF61C305DE0E96A52
:1028F000017089E00A680A6052F8040B0A6020B986
:102900004FF0FF340FF600304FE0EA6AD317C0E90A
:10291000002379E00A680A6052F8040B0A6020B9C3
:102920004FF0FF340FF6E0203FE0E96A01806BE0F2
:102930000A680A6052F8040B0A6020B94FF0FF34AD
:102940000FF6C42031E0E96A01605DE00A680A60C0
:1029500052F8040B0A60002120F0000221F0FF333E
:10296000C5E90023EE607821284600F02DF94BE000
:102970006C2285F83A200B680B6053F8042B0B602F
:1029800052BB4FF0FF340FF6B4200EE095F83A201A
:102990006C2AF0D00868086050F8044B0860EC60BE
:1029A0003CB94FF0FF340FF6782001F0EDFB201A10
:1029B00076BD2E6B002E04D5204601F005FC0446A2
:1029C00008E032460021204601F01AFC002814BF1E
:1029D000041B3446AC6117E0294600F092F8002849
:1029E00012D54FF0FF3076BD6869411C6961252220
:1029F000325409E06969481C68612522725421003B
:102A000002D0431C6B613454002076BD2DE9F041A7
:102A10000E4605469046726B7069316AB46A121AA6
:102A2000B069521A716A121AF069521A121A96F89B
:102A30003800141B41070DD4002C0BDD2746B0686D
:102A40002021A8470028B06057D0F06A401C7F1EA4
:102A5000F062F4D1736942463146284600F0B0FC7A
:102A600000284AD1376A002F0ADDB0683021A84714
:102A70000028B06041D0F06A401C7F1EF062F4D1A3
:102A8000B369F2683146284600F09AFCA8BB776A21
:102A9000002F09DDB0683021A847B06068B3F06A44
:102AA000401C7F1EF062F5D1F068B169F3694218ED
:102AB0003146284600F084FCF8B9B76A002F09DDDA
:102AC000B0683021A847B060B8B1F06A401C7F1EE2
:102AD000F062F5D196F8380041070BD5002C09DDDE
:102AE000B0682021A847B06038B1F06A401C641E6D
:102AF000F062F5D10020BDE8F0814FF0FF30BDE875
:102B0000F0812DE9F8470D46A3B02F6B002F064644
:102B1000904648BF6FF000470FF63C1401F09CFB55
:102B2000D4E90023696B4018CDE90123812828BF2F
:102B30004FF0FF3042D20024002F33DDD8F80010D0
:102B400001AA684601F00CFB8146B9F1000F38D4A8
:102B5000D8F8000010B9B9F1010932D44F4521DB92
:102B60006869484481280AD30021696303AA294679
:102B70003046FFF74BFF040014D40020686103AB1C
:102B8000D5F814A04A46694603EB0A00FEF70EFE8C
:102B9000CA44C5F814A058F8040B002818BFA7EBC6
:102BA0000907C9D14CB903AA29463046FFF72EFFC1
:102BB000044614B9002068616863204624B0BDE86B
:102BC000F0874FF0FF34F8E72DE9FC4707468C46C5
:102BD0003E69BCF16F0F08BF082405D04CF02000FF
:102BE000782814BF0A2410243C25D7E90023BCF11F
:102BF000640F18BFBCF1690F9046994606D10021B9
:102C00008B4203DAD8F1000869EB49094FF0000A5A
:102C1000D14508BFD0451FD1386BE8B9082C4BD13E
:102C200097F83800010747D530203B2586F83B0050
:102C300042E000280ED597F8380000F01400102864
:102C400008D17B6B7969386A5B1A1B1A9A1A002AB9
:102C5000C8BF3A62BDE8F3878DF800C040464946D8
:102C60002246E31701F0FEFA3032D0B26D1E3A2848
:102C7000019504DB9DF80000A0F151018A187255FE
:102C8000404649462246E31701F0ECFA8946804661
:102C9000D14508BFD04503D0F86871198842DDD30B
:102CA000082C09D197F83800010705D5705D302848
:102CB00002D06D1E30207055C5F13C02BA61711909
:102CC000F960386B8242B4DA821A3A624FF6EF70DA
:102CD000398F01403987BDE8F3872DE9D043064697
:102CE0000F4614464FF00008DFF8389412E0E00772
:102CF00007D542464B4630463946FFF749F9064666
:102D00000F464046494642464B46FFF741F964109C
:102D100080468946002CEAD130463946BDE8D0834A
:102D20002DE9F34F054641F020048DB0D5E9008927
:102D3000612C02AE09D0286B002848BF062003D4BE
:102D400008BF672C01D101202863D5E90023580072
:102D50004015401C0ED119030CD00320A8619DF82A
:102D6000381061391A2902D20FF2F46111E00FF222
:102D7000F4610EE059004915491C0FD118030DD11B
:102D80000320A8619DF8381061391A2914D30FF275
:102D9000DC61E8680322FEF709FDD3E1194621F062
:102DA0000043B3F5801F10460DD20027BB4208BF79
:102DB000BA42019703D111E00FF2AC61E9E701AA31
:102DC00001F068FB0AE0DFF8607307EB1352DFF8ED
:102DD0005C3301921940DFF858331943C5E900010B
:102DE000612C0ED1E86830210170821CEA609DF8E8
:102DF000381061290CBF7821582141706869801C06
:102E00006861D5E900AB2BF0004300202AF00002F6
:102E1000834204BF8242002300F05B81612C40F0BA
:102E2000AA80286B002847BF21210091401C0090F8
:102E3000009F7F1C404649460022002301F062FBB0
:102E4000D94601998DF8082038BF89F00049091F3B
:102E5000002FD04601910DF1090040F34981B3499B
:102E6000DFF8D0B20C9106464046494600220023C6
:102E700001F060FB80F03B814800400D00F11C0236
:102E800011D0002A0FDD40F2FF70824205DB09F00D
:102E9000004040EA0B01002013E00C98014041EA99
:102EA000025140460DE029F00043002028F00002C6
:102EB000834208BF82420FBF40461C22404601F0B9
:102EC00051FB80468946FFF78DFAFF1F002F04460D
:102ED00009DD01F0E5FB02460B464046494601F09C
:102EE00099F880468946F01D072104E004F00F029E
:102EF00000F8012D2411002C01DD491EF6D5491ED4
:102F00005CBF002200F8012DF9D5ECE00020194645
:102F100002AA0A4400E05B1E12F80149491E8442DD
:102F2000F9D00F2804D10DF10900425C521C425423
:102F3000002904D50198001D02AE5B1C0190591EAA
:102F400012D49DF838007218A0F13A07147804F1F1
:102F500030085FFA88F43A2CA8BFB844491E02F83A
:102F60000189F3D58DF83800286B002840F1B08036
:102F7000591E2963ACE0404649460022002301F077
:102F8000C1FA019938BF89F0004947F2975041438F
:102F9000694A91FBF2F20192D2F1070204DD404648
:102FA0004946FFF79AFE0AE0524200206349FFF7C4
:102FB00094FE02460B4640464946FFF7BBF8804662
:102FC000662C286BDFF878B106BF019F0A37062709
:102FD0003F18142FC8BF142730208DF808008946E9
:102FE0000DF1090000E03046002F34DD0646404672
:102FF000494601F067FB01460A4606F10803042032
:103000000A26B2FBF6F606EB860EA2EB4E02303233
:1030100003F8012C0A22B6FBF2F202EB820EA6EBB9
:103020004E063036401E03F8026DE9D1083F002FEE
:1030300003F10806D7DD084601F058FB02460B46AF
:103040004046494600F0E6FF00225B46FEF7A0FF3F
:1030500080468946CBE70DF10901401A0DF10906BA
:1030600004E00199491E401E0191761C31783029F7
:10307000F7D0662C02D10199491C03E0652C0CBFE6
:10308000012100212B6BCB189842B8BF431E002BA7
:103090001ED4834204DAF05C3528A8BF392000DA58
:1030A00030201946721E02EB010800E05B1E18F882
:1030B0000199491E8145F9D0392802D1705C401C24
:1030C0007054002904D50198401C16465B1C0190E1
:1030D000019800B200901BB29DF838103246284685
:1030E00000F034F82EE0C61D002F3FF7BDAE30468D
:1030F0000DF10901401A009903468842C8BF0B46EA
:10310000002B0DF109063FF52FAF8342BFF6FEAE4F
:103110000DF10900C15C07297FF7F8AE0F20F6E634
:10312000CBCCCC0C0000244002FCFFFFFFFF0F8043
:103130000000E03F0000F07FA08601000000F03FAB
:1031400084D797410FB0BDE8F08F00002DE9F84714
:1031500083B006468A461746984601F003F8B8F150
:10316000000F406A356B90F8009002DC4FF00108C8
:10317000BFA74AF02000BDF93040662808BF641C94
:1031800015D0672840F0848014F1040FC0F28680C7
:10319000AC4280F2838096F83800641C010702D4A8
:1031A000A845B8BF454620B22D1A48BF00250FFAE2
:1031B00084FAF068B169BAF1000F25DC4A1C3023AB
:1031C0004354002D03DC96F83800010703D5F0685E
:1031D00000F80290521C15EB0A0FB8BF6C4220B2E7
:1031E000441941424445B8BFA046B26171620FFA2A
:1031F00088F5F561F068B3692A4639461844FEF748
:10320000D5FA641BB462C4E022B29045084417DAD0
:1032100042463946FEF7CAFAB0694044B061AAEBAB
:103220000801002D716203DC96F838100A0705D5F5
:10323000F16801F80090F069401CF061B562A8E007
:103240003946FEF7B3FAB069002D5044A8EB0408E4
:1032500003DC96F838100A0703D5F16801F80090EE
:10326000401CB0610FFA88F08542F368B069B8BFBE
:10327000A8460FFA88F207EB0A011844FEF796FAFF
:10328000B1690FFA88F00144B161281A706280E0D8
:10329000BAF1610F14D14FF0700A16E0A84504DAB4
:1032A00096F838100A0758BF45466D1E48BF0025DE
:1032B000BAF1670F14BF4FF0450A4FF0650A04E0FA
:1032C000BAF1410F08BF4FF0500AB169F368481CCA
:1032D000B061002D17F8012B5A5403DC96F8381012
:1032E0000A071BD5F168431CB36101F80090002D5B
:1032F00014DDA8F101080FFA88F039468542F76815
:10330000B8BFA8460FFA88F2F818FEF74FFAB0696E
:103310000FFA88F108446D1AB0617562F068B169FE
:103320000844002C80F800A003D42B224270811C9A
:1033300003E02D2141706442811C00206A460AE0AE
:1033400023460A2493FBF4F404EB8405A3EB450322
:1033500002F8013B401C24B2002CF1DC012806DC01
:103360004AF02002652A04BF302201F8012B48B937
:10337000302001F8010B07E0401E1DF8003030330B
:1033800001F8013B0028F7DCF268B0691044091A23
:10339000F16196F8380000F0140010280DD1726920
:1033A000B169706A8A18F1698218B06A8A1882183D
:1033B000706B8242BCBF821A326204B0BDE8F087F3
:1033C000F8B505460E4617461C46002074B117F89E
:1033D000011BB068A847B06030B1F06A401CF062D1
:1033E0000020641EF3D1F2BD4FF0FF30F2BD0000AB
:1033F0007072696E74665F733A20256E206469731B
:10340000616C6C6F776564007072696E74663A20E7
:1034100062616420256E20617267756D656E74004F
:103420007072696E74665F733A20626164202573FE
:1034300020617267756D656E740000007072696E50
:1034400074665F733A2062616420256C7320617238
:1034500067756D656E7400000000000000000000DC
:103460006E616E004E414E00696E6600494E460028
:103470003000000038B5040001D1012032BD04F154
:103480003805687820B9002129702046FEF78FFAA8
:10349000242068702068C16821F40051C160204672
:1034A00000F0FAF92068016921F490410161206877
:1034B000416921F02A01FFE741612068C16841F4B8
:1034C0000051C1600020686020216970A97032BD80
:1034D0002DE9F0470546DFF85C81286840450F4636
:1034E00092461C4605D101224FF40041524800F09B
:1034F000A7FC05F138067078202865D1002F18BF89
:10350000BAF1000F0BD12868404505D100224FF4D5
:103510000041494800F094FC0120BDE8F087307874
:1035200001285AD001213170002070602122727070
:10353000FEF7DCFFA5F824A08146A5F826A002E04E
:1035400017F8011B4160E88CA8B1E88C411EE984A2
:10355000A868B0F5805F43D1286801680A064FD497
:1035600014F1010FF8D0A4B1FEF7C0FFA0EB0900E1
:103570008442F1D20DE0286801684A064AD414F169
:10358000010FF8D02CB1FEF7B1FFA0EB0900844287
:10359000F1D22868C16821F4D071C16028684169FE
:1035A00049084900416120207070B07000203070DF
:1035B0002A68424505D100224FF400411E4800F020
:1035C0003FFC0320BDE8F0872868404505D1002274
:1035D0004FF40041184800F033FC0220BDE8F087AA
:1035E000286801680A06ABD414F1010FF8D0002C4A
:1035F000CFD0FEF77BFFA0EB09008442F0D2C8E7F2
:103600003988C1F3080141602869002814BF7F1C74
:10361000BF1C98E72021717000224045327004D110
:103620004FF40041044800F00BFC0020BDE8F08797
:1036300000000000007800400008024010B400F1D3
:1036400038039C78202C1BD109B1140000D118E05C
:103650001C78012C14D001241C7081628285C285E3
:103660000021596022229A70197001684A6942F05B
:1036700001024A610068C16841F49071C16003E0D1
:1036800005E010BC01207047002010BC704710BC42
:103690000220704738B5044625682968EA686B69D6
:1036A00011F00F0007D1880660D593065ED520463D
:1036B000BDE83240ACE0D80702D412F4907F55D078
:1036C000C80705D5D50503D5E06B40F00100E063E0
:1036D000480705D5DD0703D5E06B40F00200E06345
:1036E000880705D5DD0703D5E06B40F00400E063F3
:1036F000080705D5DB0703D5E06B40F00800E06361
:10370000E06B00286FD0880604D5910644BF2046A0
:1037100000F07EF820684069E16B0A0701D440069A
:103720001ED5204600F060F8206841694A0612D58F
:10373000416921F040014161606B60B10FF2C50148
:103740000165606B00F0E0FF00284CD0606B016DFC
:10375000BDE8344008472046BDE8324000F0E6BFEF
:10376000204600F0E3FF0020E06331BD08062AD5C3
:10377000130628D594F83900212834D1A068B0F573
:10378000805F206A0BD10188C1F30801696020695C
:103790000028206A0CBF811C411C216203E0411CEF
:1037A000216200786860E08C401EE08480B2D0B96D
:1037B0002068C16821F08001C1602068C16841F0C3
:1037C0004001C16031BD48060DD551060BD5E868F2
:1037D00020F04000E860202184F839102046BDE840
:1037E000324000F0A4BF31BD0168CA6822F4907273
:1037F000CA6001684A69520852004A61202180F873
:103800003A107047806B0021C185C18400F08EBFE3
:1038100080B590F83A1022293CD18168B1F5805FDB
:1038200012D101690368826A0029596805D1C1F380
:1038300008011180826A911C04E001F0FF011180EF
:10384000826A511C81620FE001690029816A04D1FA
:103850004A1C826203685A6805E04A1C8262036857
:103860005A6802F07F020A70C18D491EC18589B273
:1038700071B90168CA6822F49072CA6001684A6925
:10388000520852004A61202180F83A10FEF7A9F947
:10389000002002BD022002BD2DE9F0470446226847
:1038A0001169E06821F4405101431161D3688948EE
:1038B000A168034020690B4361690343E0690B433E
:1038C0000343D3605169A06921F440710143516100
:1038D0008148E169B1F5004F40F0998082421CBFF8
:1038E0007E48824249D100F0B3FF054600F0B0FFA8
:1038F000064600F0ADFF074600F0AAFFDFF8E0A1A2
:10390000804600F0A5FF64226168DFF8D4E1192346
:103910005F435E434900B7FBF1F7A7FB0AA9B6FB7B
:10392000F1F64FEA991702FB1766F60032365D434F
:10393000B5FBF1FCACFB0EE5DFF8A4C1A6FB0CC7A0
:10394000BE097600AD0906F4F87606EB051603FB12
:1039500008F74343B3FBF1F0B7FBF1F5604BA0FB75
:103960000331890902FB1152D20032325C4DA2FBB5
:103970000550800900F00700A5E000F061FF054652
:1039800000F05EFF064600F05BFF074600F058FFC0
:10399000DFF84CA1804600F053FF64226168DFF835
:1039A00040E119235F435E434900B7FBF1F7A7FBF2
:1039B0000AA9B6FBF1F64FEA991702FB1766F60063
:1039C00032365D43B5FBF1FCACFB0EE5DFF810C110
:1039D000A6FB0CC7BE097600AD0906F4F87606EB27
:1039E000051603FB08F74343B3FBF1F0B7FBF1F512
:1039F0003B4BA0FB0331890902FB1152D20032324A
:103A0000374DA2FB0550800900F007005BE08242C1
:103A10001CBF324882420ED100F01AFF054600F06A
:103A200017FF064600F014FF074600F011FF80461E
:103A300000F00EFF0DE000F003FF054600F000FF70
:103A4000064600F0FDFE074600F0FAFE804600F054
:103A5000F7FEDFF88CA06168DFF884E064221923A8
:103A60005F435E438900B7FBF1F7A7FB0AA9B6FBEA
:103A7000F1F64FEA991702FB176636015D433236BD
:103A8000B5FBF1FCACFB0EE5DFF854C0A6FB0CC7A0
:103A9000BE09AD0906F0F00606EB051603FB08F7B4
:103AA0004343B3FBF1F0B7FBF1F50D4BA0FB033142
:103AB000890902FB115212013232094DA2FB055055
:103AC000800900F00F00216886198E60BDE8F0873C
:103AD00000000000F369FFFF0010014000140140E6
:103AE0003E0AD7A301B5009963480A294FF6FF7330
:103AF00004D102225FA1FFF7EBFC03E0012269463B
:103B0000FFF7E6FC009802BD80B500F003FF00F06F
:103B100028F800F019FFFEF783FC00F069FF4FF46E
:103B20001650FDF7D3FEFDF7E7FEFDF700FF4FF45B
:103B30001650FDF712FF4FF41650FDF723FF00F06B
:103B40006DFF4E4800F0D5FF4D490A684CF6CC4059
:103B5000106000234B48036001F0A8F901F042FF18
:103B6000FEE7F0B593B006A83421FEF7D9F801AC12
:103B7000002500260027E0C460C4434800954FF4A8
:103B80008033016841F080510160006800F080508E
:103B9000009000983D480095026842F4404202605F
:103BA0000922006800F44040009006A8009906929F
:103BB000012102220B910C924FF4800104220D91FD
:103BC0000E926421022207930F9110921192129289
:103BD00001F032FF022102910F204FF48051019039
:103BE000049103950595032101A800F0A1FD13B0F0
:103BF000F0BD18B400682649884232D12148416896
:103C0000491CB1F57A7F03D18268521C0021826081
:103C1000416040F2F5120168491C9142016006D3EF
:103C2000174B1A684AF6AA2111600024046019484B
:103C300001884288491C0180521C81884280491CAD
:103C40008180154801884288491C0180521C818866
:103C50004280491C818011480188491C018011BCA7
:103C600070470F4A904202D111BC02F069B811BCF2
:103C7000704700000D0A000034630020306400200B
:103C8000CC640020D864002040380240007000401E
:103C900000000140746400207C64002084640020E3
:103CA00000100040704700002DE9F84F03460C4615
:103CB0004FF00008C146C24663486449644A012582
:103CC00005FA08FC25680CEA050EE64540F0AC80D4
:103CD0006568022D18BF122D12D14FEAD80503EBEB
:103CE00085050AF01C062F6A4FF00F0B0BFA06FB36
:103CF00027EA0B07D4F810B00BFA06F63E432E6203
:103D000003251E68277905FA09F5ED4307F0030737
:103D10002E4007FA09F73E431E606668012E18BF61
:103D2000022E03D0112E18BF122E10D19E68E76804
:103D30002E4007FA09F73E439E605E6826EA0C07AC
:103D40006668C6F3001606FA08F63E435E60DE6853
:103D50003540A66806FA09F63543DD606568EE0071
:103D600062D5002500954FEA980C166846F4804607
:103D700016600F26156805F480450095009D51F8E2
:103D80002C700AF00C05AE4027EA0606314FBB4204
:103D900008BF00271DD0304FBB4208BF012718D0F5
:103DA0002E4FBB4208BF022713D02D4FBB4208BF86
:103DB00003270ED02B4FBB4208BF042709D02A4F40
:103DC000BB4208BF052704D0284FBB420CBF0627C3
:103DD000072707FA05F5354341F82C506FEA0E0C1A
:103DE000056866680CEA0505F70348BF4EEA050555
:103DF0000560456866680CEA0505B70348BF4EEAEA
:103E000005054560856866680CEA0505F70248BF48
:103E10004EEA05058560C56866680CEA0505B602C8
:103E200048BF4EEA0505C56008F10108B8F10F0F5B
:103E30000AF1040A09F102097FF641AFBDE8F18FEA
:103E400002B9090481617047003C01400838014013
:103E500044380240000002400004024000080240D2
:103E6000000C024000100240001402400018024002
:103E70001F4B19684FF6FF020002114000F4E0608A
:103E800008431C4908431860704730B4184B1C683D
:103E9000C4F30223C3F10704052C28BF04241D1D0D
:103EA000072D34BF0023DB1E012505FA04F4641E30
:103EB0002140994005FA03F35B1E1A4011430901A2
:103EC000020007D50C4A00F00F00104400F8041C53
:103ED00030BC7047094B195430BC7047012200F0C8
:103EE0001F01074BFFE78A40400943F82020704735
:103EF0000CED00E00000FA0518ED00E000E400E041
:103F000000E100E000F50060002141800180704781
:103F100000F5006001884088814201D1012070478E
:103F20000020704770B400F5006253885C1CA51235
:103F300004EB5556F6121588A4EBC624AC4209D002
:103F4000C1545088401C811200EB5153DB12A0EB8E
:103F5000C320508070BC704700F500610A884B8810
:103F60009A4201D100207047805C521C931202EBF0
:103F7000535C4FEAEC2CA2EBCC220A807047000085
:103F800000B500BF130096469446103928BFA0E83C
:103F90000C50FAD85FEA417C28BF0CC048BF40F8FB
:103FA000042BC90728BF20F8022B48BF00F8012BBB
:103FB00000BD0000401810F0030308D0C91A1FD339
:103FC000DB0748BF00F8012D28BF20F8022D1300A1
:103FD00030B414461546103928BF20E93C00FAD801
:103FE000490728BF20E90C0048BF40F8042D89008C
:103FF00028BF20F8022D48BF00F8012D30BC7047C3
:10400000C91818BF00F8012DCB0728BF00F8012DF3
:104010007047000070B44FF0004591EA030F7DF542
:10402000FDAE6B40841A71EB030603D2001BB14155
:10403000121973414FF4001C1CEB410F34BF7CEB91
:10404000430442E00C0DA4EB1356352E4FDC45EA39
:10405000C323DB0A45EAC121C912B6F120050DDDF3
:1040600063FA05F6EB4086EA0305124218BF45F0F5
:104070000105C01851F100010CD213E062FA06F5F7
:10408000F2405540F3415A40B340F3405A40801843
:10409000594107D349085FEA30005FEA350528BF78
:1040A00045F0010501F58011420875F1004250F11B
:1040B000000041EB04514E0016F5001F70BC38BFE4
:1040C00070470020090D090570471CEB410F10D205
:1040D00052EA43060BD0BCEB410F05D80C0DAB43A5
:1040E000661E342EB6DD02E0AB438018594170BC29
:1040F000704770BC704700001B48704770B453682D
:10410000D418042B09DA41B1057804F8015B10F8E2
:10411000016B16B15B1C491EF3E7536070BC70471E
:1041200038B514461D4661B1FFF7E8FF61686A6B58
:10413000204690476FF00102811A02D0491E01D03B
:1041400001E003E005E00021616032BD6FF0010095
:1041500032BD4FF0FF3032BDDA6B1047024BDFE764
:10416000014BF9E701487047540000201C00002073
:104170000278C9B28A421AB11CBF10F8012FF9E7C0
:1041800018BF00207047000080B500B906A005499F
:104190000B681BB122220021984701E001F0D8FDF5
:1041A000222002BDEC640020636F6E73747261693B
:1041B0006E742068616E646C65723A20626164207E
:1041C0006D6573736167650000F10103810704D0B9
:1041D00010F8011B820781B1FAD10268A2F1013106
:1041E000914311F0803104BF50F8042FF6E709BA6B
:1041F000B1FA81F100EBD100401CC01A70470000F9
:10420000C9B2830706D0521E22D310F8013B99424F
:10421000F7D11FE0083A13D302F1040241EA012169
:1042200041EA014150F8043B121F21BF4B40A3F16A
:10423000013C2CEA030C1CF0803FF3D0C9B2001FF4
:10424000083210F8013B521E28BF91EA030FF8D83C
:1042500018BF0120401E704780B5FFF74DFF006C6E
:1042600002BD0000BBBBE1B1B2F5803F80F07E80B3
:10427000022A1ED98C46B1FBF2F102FB11C31B04CA
:1042800043EA1043B3FBF2FC02FB1C3380B240EA6A
:104290000343B3FBF2F002FB103240EA0C40002370
:1042A0007047022A05D98446B0FBF2F002FB10C227
:1042B00070474AB105D100F0010249085FEA3000B9
:1042C000704700220023704701F046BD0B0002003A
:1042D000002100207047904271EB030CF6D3B3F538
:1042E000803F2FD2F0B5B3FA83F7B1FA81F4A7F18A
:1042F0000F0E3D1B5340CEF1200602FA0EF2F341A1
:104300005340B5F10F0746D80F3C2C444140C4F14F
:104310002006A040F1414140B1FBF3F603FB16112A
:10432000A2FB0645001BA94102D2761E8018594106
:1043300080EA010221FA0EF362FA0EF200215A40DD
:104340003046F0BD30B4B1FBF3FC03FB1C11A2FB03
:104350000C45001BA94103D2ACF1010C8018594156
:1043600030BC02460B46604600217047B2F1807FA8
:1043700065D3F0B5B2FA82F7B1FA81F4C7F10F064E
:104380003D1B22FA06F307F1110EF24120355A4087
:10439000B5F10F07B8D94140C4F12006A040F14162
:1043A0004140B1FBF3FC03FB1C11A2FB0C45001BBD
:1043B000A94103D2BCF1010C801859410F2F12D32F
:1043C0000F3FC90341EA5041B1FBF3F603FB16115D
:1043D000A2FB0645D4EBC030A94102D2761E80185C
:1043E000594146EACC3C07B34140C7F12006B840EA
:1043F000F1414140B1FBF3F603FB1611A2FB064568
:10440000001BA94102D2761E8018594180EA0102A0
:1044100021FA0EF3C7F1200462FA0EF20CFA07F04B
:104420005A402CFA04F13043F0BD80EA010221FA2F
:104430000EF3002162FA0EF260465A40F0BD8C463F
:10444000B1FBF2F102FB11C31B0243EA1063B3FBA1
:10445000F2FC02FB1C331B024CEA002043EA10630F
:10446000B3FBF2FC02FB1C331B024CEA002043EAC4
:104470001063B3FBF2FC02FB1C331B024CEA00206E
:1044800043EA1063B3FBF2FC02FB1C324CEA00204F
:104490000023704710B5144600F002F8226010BDEA
:1044A000C1F30A5343B14A0012F5001F28D2A3F208
:1044B000FE32A1EB0251704750EA410C20D001F0CE
:1044C000004C31EA0C01B1FA81F204BFB0FA80F37A
:1044D000D2180B3AB2F120032CBF00FA03F191403D
:1044E00041EA0C013EBFC2F1200C20FA0CF3194343
:1044F0009040524240F2FD33D21A01EB0351704713
:10450000002270474FF4001C1CEB410F94BF1CEBC2
:10451000430F09E041EA030C50EA4C0C52EA0C0C40
:1045200003D2994208BF9042704714BF8B42824227
:10453000704700004FF4001C1CEB410F94BF1CEBB4
:10454000430F09E041EA030C50EA4C0C52EA0C0C10
:1045500003D28B4208BF8242704714BF99429042F7
:1045600070470000124254D440F2FF7C1CEA115301
:104570000FD0634531D09B1863453CBF01EB02511E
:10458000704701F0004141EA0C510020AFF3008078
:10459000704750EA410320D001F0004C91EA0C0131
:1045A0001CD0B1FA81F30B3B9A420DD9D21A994033
:1045B00051EA0C01C3F1200C20FA0CFC6144984034
:1045C000531C40F2FF7CD7E7914041EA0C01C2F155
:1045D000200C20FA0CF3194390407047B0FA80F396
:1045E0001533202BE0D3202AEED3203A203B9A42E9
:1045F00009D9D21A00FA03F141EA0C010020531C38
:1046000040F2FF7CB8E700FA02F141EA0C01002019
:104610007047524240F2FF7C1CEA11530DD06345B3
:10462000DBD0B2EB030C3CBFA1EB025170470CF1A5
:10463000010221EA035141F4801150EA410CCCD02F
:1046400001F0004C352A27DC30B481EA0C01B2F1CC
:10465000200309DAC2F12003044601FA03F5D04031
:104660002843D1409C400CE0C3F12002450020FAD1
:1046700003F418BF44F0010421FA03F091400C4305
:10468000002174F1004550F1000051EB0C0124426F
:1046900030BC7FF47BAF70476146002076E70000B6
:1046A000C11768B14840401AB0FA80F29040D21C5D
:1046B000C907C2F5846241EA025202EBD0214005EB
:1046C00070470000400D491840EA81200CD2490D86
:1046D000A1F58061491C40F0004005DBD1F11F01CC
:1046E00054BFC840C017704700207047014648B10A
:1046F000B0FA80F18840C91CC1F58461090501EB5D
:10470000D02140057047000090F83510022903D0F1
:104710008022426501207047052180F8351000682D
:1047200002685208520002600020704770477047CC
:104730002DE9F84304000F4600F07F80574E3068A3
:1047400000F00F00B84205D23770316801F00F0158
:10475000B94272D12068524D810712D5400703D566
:10476000A96841F4E051A9602078010703D5A86841
:1047700040F46040A860A968A06821F0F0010143FE
:10478000A9602178C8074DD56068012802D1296841
:104790008A0305E0022818BF032803D129688A018B
:1047A00003D44AE029688A0747D5A968890840EAFE
:1047B0008100A86041F28939FDF798FE8046A8681B
:1047C000616800F00C00B0EB810F2BD0FDF78EFE7E
:1047D000A0EB08004845F2D30320BDE8F28320781F
:1047E000410705D5AA68E06822F4E0520243AA60B6
:1047F0002178080706D5A968206921F4604141EABB
:10480000C001A96000F056F8AA682649264BC2F3F9
:104810000312895CC8401860002001F09FFA002054
:10482000BDE8F283306800F00F008742D7D23770BE
:10483000316801F00F01B942D1D00120BDE8F28307
:1048400019481A4A006813681949C3F3822206E01E
:104850001548164A006813681549C3F34232895C4B
:10486000C84070470F220260104A136803F0030328
:104870004360D2F800C00CF0F00CC0F808C0136818
:1048800003F4E053C3601268D20802F4E0520261FC
:104890000248026802F00F020A607047003C0240C2
:1048A000003802402C6A0008180000200838024036
:1048B000A86B000830B5144C606800F00C000428A8
:1048C00002D0082802D01DE0104830BD22682068C0
:1048D0000023410202F03F0204D525680B49C5F3CD
:1048E000881003E020680A49C0F38810A1FB00018A
:1048F000FFF7B8FC2168C1F30141491C4900B0FB36
:10490000F1F030BD024830BD0438024000127A0098
:104910000024F40080B50B48016841F40071016087
:10492000026842F480620260016841F480710160B3
:104930000320FFF79DFA002001F010FA01F04EFA73
:10494000002002BD003C024010B586B001A8002145
:10495000002200230EC006C000912348234C0168AA
:1049600041F004010160026802F00402009200229A
:1049700000990092036843F080030360016801F02E
:104980008001009100990092036843F001030360E5
:10499000016801F001010091009900924FF400417B
:1049A000036843F002030360006800F00200009017
:1049B0002046009BFFF744FA4FF400420192012188
:1049C000029100220392049201A92046FFF76CF99C
:1049D0000F200021019002910122039201A920469B
:1049E000FFF762F906B010BD3038024000080240FF
:1049F00080B50848084903224FF47A730160426089
:104A0000836001F00BFA18B1BDE80140FFF74AB925
:104A100001BD00BFCC64002000300040F8B586B076
:104A200002A8002100220023002480E81E0000BF0D
:104A300026A5234C2348D5E90067206064214FF464
:104A40007A70CDE90067E0606160A2602261626116
:104A5000204600F03FF808B1FFF724F94FF48050EA
:104A6000029002A9204600F0FEF808B1FFF71AF9FB
:104A70000021009101912046694601F0F1F908B149
:104A8000FFF710F907B0F0BD00680E49884200D06A
:104A9000704780B500220C480092016841F0010186
:104AA00001600921006800F00100009000981920C1
:104AB000FFF7EBF9BDE802401920FFF70FBA00003D
:104AC0003064002000000140443802400000000033
:104AD0000000000038B5040001D1012032BD04F10E
:104AE0003805687820B9002129702046FFF7CCFFEF
:104AF0000AE00068C16841F00101C160026842F04B
:104B0000010202600020704702206870211D2068A9
:104B100000F042F901206870002032BD10B5044653
:104B2000206801698A0716D5C1688A0713D56FF016
:104B30000201016101222276806910F0030F2046F4
:104B400002D001F0B3F904E001F0B1F9204601F020
:104B5000AFF900202076206801694A0716D5C168A0
:104B60004A0713D56FF004010161022222768069A1
:104B700010F4407F204602D001F098F904E001F0E3
:104B800096F9204601F094F900202076206801690A
:104B90000A0716D5C1680A0713D56FF0080101612D
:104BA00004222276C06910F0030F204602D001F0E3
:104BB0007DF904E001F07BF9204601F079F900204D
:104BC000207620680169CA0616D5C168CA0613D5C1
:104BD0006FF01001016108222276C06910F4407F55
:104BE000204602D001F062F904E001F060F92046AD
:104BF00001F05EF90020207620680169CA0708D517
:104C0000C168CA0705D56FF0010101612046FEF7B2
:104C1000F0FF206801690A0608D5C1680A0605D5B3
:104C20006FF080010161204601F043F920680169BD
:104C30004A0608D5C1684A0605D56FF040010161F2
:104C4000204601F037F9206801698A060AD5C16853
:104C50008A0607D56FF0200101612046BDE81040AB
:104C600001F029B910BD70B5054605F1380420786A
:104C7000012801D1022070BD012020700222627043
:104C8000DFF8AC012A689368034093600A68002A41
:104C90005FD0102A64D0202A69D0302A6ED0402AF2
:104CA0004BD0502A31D0602A3BD0702A0BD0B2F5BD
:104CB000805F03D0B2F5005F16D066E02868816897
:104CC000C908C90060E0C8684A682B6889689E689E
:104CD00026F47F4631430A4342EA00229A6028685C
:104CE000816841F077014FE0C8684A682B6889689D
:104CF0009E6826F47F4631430A4342EA00229A60C6
:104D00002868816841F480413EE0CA6849682868A3
:104D100000F0A6F82868816821F0700141F0570181
:104D200032E0CA684968286800F0ACF828688168F1
:104D300021F0700141F0670126E0CA6849682868DF
:104D400000F08EF82868816821F0700141F0470179
:104D50001AE02868816821F0700141F0070113E032
:104D60002868816821F0700141F017010CE0286883
:104D7000816821F0700141F0270105E02868816811
:104D800021F0700141F03701816001206070002145
:104D90002170002070BD000030B4264B046898429A
:104DA00018BFB0F1804F0BD0234A90421CBF234D57
:104DB000A84205D0224A90421CBF224DA84210D1E1
:104DC0004A6824F070041443984218BFB0F1804F31
:104DD0001BD0194A90421FBF184DA842184A904252
:104DE00013D0184DA8421CBF174A90420DD0174D42
:104DF000A8421CBF164A904207D0164DA8421FBFBA
:104E0000154A9042154DA84203D1CA6824F4407453
:104E10001443046098428C68C4620A68826219BFB5
:104E2000084B9842096901630122426130BC704716
:104E30008800FFFF0000014000040040000800401F
:104E4000000C0040000401400040014000440140CB
:104E50000048014000180040001C004000200040B5
:104E600010B4036A046A64086400046223F00A034D
:104E7000846924F0F00444EA021484611943016255
:104E800010BC7047036A23F0100303628369D0F8F3
:104E900020C023F4704343EA02332CF0A00C83615A
:104EA0004CEA011CC0F820C07047000078B585B0FE
:104EB0004FF4FA7001F000F8FBF7A6F9FBF730FAAF
:104EC000FBF7D6FA0FF6B82191E87C00684600217E
:104ED00080E87C0000F08BFDDFF83C1A086006B02B
:104EE00070BD2DE9F84DDFF8348AB3B04046FFF7C6
:104EF00009F8DFF82CAADFF82C1A01225046FEF739
:104F00009DFBDFF8240A0FF67021027830326846E4
:104F1000FCF738FF002600270024DFF810BA1AAD8E
:104F20001EE08BF803004FF47A730F225946504667
:104F3000FEF7CEFA10E001A8FBF7EDFA06208BF899
:104F400003004FF47A730F2259465046FEF7C0FA19
:104F5000DFF8DC19012008710027012000F064FD52
:104F60004046FEF7D5FF0028F7D14046FEF7F4FF94
:104F7000E8557F1C3EBB032FEFD10020E8700322D1
:104F800069461AA800F0ACFFB0B90126E5E79DF824
:104F90000700022806D0032826D00628CBD01628E2
:104FA000BFD0D9E7FBF716FBDFF88809DFF88819CF
:104FB00002884FF47A73BAE768788DF868000227A0
:104FC000A9786970C9E7062F05D8C6D128796C7908
:104FD00044EA0024C1E7A21D9742BED11AA901A844
:104FE000FCF7F4FB0026D2E7FBF733FBDFF84C09B4
:104FF000DFF84C1902884FF47A7398E72DE9F04FE7
:10500000D1B002A8002100220023002480E81E0065
:105010008DF8011002ADDFF82C09DFF81449FEF716
:1050200071FF0122DFF82019DFF82009FEF706FBE7
:1050300006AEDFF81C099DF80470C1899DF803A035
:105040009DF802B09DF801909DF8008040F2011299
:10505000891A0BD0491E39D0491E07D0491E46D0A7
:10506000491E022951D97E3956D014E009F10100B8
:1050700083B24AF6AB275F43790C01EB4101A0EB09
:1050800001095FFA89F102A8FBF731FB95F80DA041
:1050900095F80EB00746380006D064233A4602A9B8
:1050A000DFF8A808FEF714FA002323818DF80080AA
:1050B0008DF803A08DF802B08DF80190022098467B
:1050C00099469A4683468DF80470A2E009F10100E2
:1050D00081B24AF6AB224A43510C01EB4101A0EBED
:1050E00001095FFA89F102A8FBF719FCCEE709F183
:1050F0000102501002EB90718910A2EB81095FFA56
:1051000089F102A8FBF776FDC0E789F0010949465D
:1051100002A8FBF7C5FEB9E700274FF0020A4FF0DF
:10512000030BC1E7FEF718FF06F80A000AF10100B9
:105130001FFA80FABAF5967F64DAB9F1000F0AD146
:1051400006A8504410F8011C9DF80200814260D16D
:105150004FF001095DE0DFF8F807C18940F2011264
:10516000891A0BD0491E15D0491E07D0491E1DD0E3
:10517000491E022926D97E3930D03CE0002006F8AD
:105180000A005FFA8AF29DF8013006A90120FBF7B8
:10519000BBFA2EE0002006F80A005FFA8AF29DF8BA
:1051A000013006A90120FBF7E5FB22E0002006F80C
:1051B0000A005FFA8AF29DF8013006A90120FBF788
:1051C00053FD16E0002006F80A005FFA8AF29DF807
:1051D000013006A90120FBF773FE0AE0002006F863
:1051E0000A005FFA8AF29DF8013006A90120FBF758
:1051F000A7FF8DF800009DF80000012802D10021D2
:10520000217004E020780A28BCBF401C20704FF0B9
:10521000030B2089B0F5FA7F0EDBBBF1010F0BD039
:10522000BBF1020F04D120780A28BCBF401C2070BB
:1052300000204FF0010B208121780A290BD1DFF8E3
:105240001007DFF81077418AB81DFCF789FD0020B0
:105250000121B871F971012000F0E6FBBBF1010FEB
:105260003FF4E7AEBBF1020FD3D1DFF8D876384672
:10527000FEF74EFE0028CCD1B8F1000F38467FF47F
:1052800051AFFEF769FE8DF818009DF803109DF8E8
:1052900018008842BDD14FF00108C246B9E72DE998
:1052A000F84FD2B003A8002100220023002480E898
:1052B0001E008DF8011003ADDFF89C06DFF8704684
:1052C000FEF720FE0122DFF89416DFF89406FEF7C1
:1052D000B5F907AEDFF878069DF80470018B9DF8EC
:1052E00003A09DF802B09DF801909DF8008040F267
:1052F0000112891A0BD0491E3BD0491E07D0491E06
:1053000048D0491E022953D97E3958D014E009F1FA
:10531000010083B24AF6AB275F43790C01EB4101F0
:10532000A0EB01095FFA89F103A8FBF7E0F995F812
:105330000DA095F80EB00746380006D064233A4613
:1053400003A9DFF81C06FEF7C3F8002363818DF87C
:1053500000808DF803A08DF802B08DF801908DF8D3
:1053600004700220984699469A468346DFF8E8750D
:10537000A2E009F1010081B24AF6AB224A43510C86
:1053800001EB4101A0EB01095FFA89F103A8FBF7EA
:10539000C6FACCE709F10102501002EB90718910B6
:1053A000A2EB81095FFA89F103A8FBF723FCBEE7B2
:1053B00089F00109494603A8FBF772FDB7E700270A
:1053C0004FF0020A4FF0030BBFE7FEF7C5FD06F8EA
:1053D0000A000AF101001FFA80FABAF5967F64DA32
:1053E000B9F1000F0AD107A8504410F8011C9DF82C
:1053F0000200814260D14FF001095DE0DFF8500505
:10540000018B40F20112891A0BD0491E15D0491E9A
:1054100007D0491E1DD0491E022926D97E3930D019
:105420003CE0002006F80A005FFA8AF29DF801309D
:1054300007A90220FBF768F92EE0002006F80A0011
:105440005FFA8AF29DF8013007A90220FBF792FA71
:1054500022E0002006F80A005FFA8AF29DF8013087
:1054600007A90220FBF700FC16E0002006F80A005E
:105470005FFA8AF29DF8013007A90220FBF720FDB0
:105480000AE0002006F80A005FFA8AF29DF801306F
:1054900007A90220FBF754FE8DF800009DF80000DC
:1054A000012802D10021617004E060780A28BCBFA5
:1054B000401C60704FF0030B6089B0F5FA7F0EDB83
:1054C000BBF1010F0BD0BBF1020F04D160780A28A9
:1054D000BCBF401C607000204FF0010B6081607801
:1054E0000A280DD1DFF86814DFF87804898B029060
:1054F000FCF736FC029900200870012202984270E5
:10550000012000F091FABBF1010F3FF4E3AEBBF1D3
:10551000020FD1D13846FEF7FBFC0028CCD1B8F100
:10552000000F38467FF451AFFEF716FD8DF81C00D2
:105530009DF803109DF81C008842BDD14FF0010872
:10554000C246B9E72DE9F84FD2B003A800210022E6
:105550000023002480E81E008DF8011003ADDFF861
:105560000804DFF8CC43FEF7CDFC0122DFF8FC1382
:10557000DFF8FC03FEF762F807AEDFF8D4039DF80E
:105580000470418C9DF803A09DF802B09DF8019035
:105590009DF8008040F20112891A0BD0491E3AD0C2
:1055A000491E07D0491E47D0491E022952D97E39CB
:1055B00057D014E009F1010083B24AF6AB275F43EC
:1055C000790C01EB4101A0EB01095FFA89F103A815
:1055D000FBF78DF895F80DA095F80EB0074638004A
:1055E00006D064233A4603A9DFF88403FDF770FF71
:1055F0000023A3818DF800808DF803A08DF802B000
:105600008DF801908DF804700220984699469A46CC
:105610008346D54FA1E009F1010081B24AF6AB22E1
:105620004A43510C01EB4101A0EB01095FFA89F1FA
:1056300003A8FBF774F9CDE709F10102501002EB62
:1056400090718910A2EB81095FFA89F103A8FBF739
:10565000D1FABFE789F00109494603A8FBF720FC0E
:10566000B8E700274FF0020A4FF0030BC0E7FEF740
:1056700073FC06F80A000AF101001FFA80FABAF575
:10568000967F63DAB9F1000F0AD107A8504410F8E9
:10569000011C9DF8020081425FD14FF001095CE0DE
:1056A000AB48418C40F20112891A0BD0491E15D02B
:1056B000491E07D0491E1DD0491E022926D97E3910
:1056C00030D03CE0002006F80A005FFA8AF29DF82C
:1056D000013007A90320FBF717F82EE0002006F899
:1056E0000A005FFA8AF29DF8013007A90320FBF750
:1056F00041F922E0002006F80A005FFA8AF29DF8DC
:10570000013007A90320FBF7AFFA16E0002006F8E6
:105710000A005FFA8AF29DF8013007A90320FBF71F
:10572000CFFB0AE0002006F80A005FFA8AF29DF833
:10573000013007A90320FBF703FD8DF800009DF859
:105740000000012802D10021A17004E0A0780A28FD
:10575000BCBF401CA0704FF0030BA089B0F5FA7FCE
:105760000EDBBBF1010F0BD0BBF1020F04D1A0780F
:105770000A28BCBF401CA07000204FF0010BA08184
:10578000A0780A280BD172497A48C98C0290FCF79C
:10579000E7FA029900200870012202984270012065
:1057A00000F042F9BBF1010F3FF4E7AEBBF1020F8D
:1057B000D3D13846FEF7ACFB0028CED1B8F1000FAC
:1057C00038467FF454AFFEF7C7FB8DF81C009DF8F8
:1057D00003109DF81C008842BFD14FF00108C2465B
:1057E000BBE70000F8B500BF6AA292E8F80094B0E9
:1057F0000FA8002180E8F8004D4C00F0F8F800BF39
:1058000069A1E0610AA891E8EC0080E8EC000021C1
:1058100000F0EDF869A1206205A891E8EC0080E8AD
:10582000EC00002100F0E3F869A16062684691E8AD
:10583000EC0080E8EC00002100F0D9F8A062032120
:105840002046FCF76DFA42F21075208AA8420CDB64
:10585000206A00F0E4F8642000F02EFB00210AA882
:1058600000F0C5F8206200202082608AA8420CDB8C
:10587000606A00F0D4F8642000F01EFB002105A847
:1058800000F0B5F8606200206082A08AA8420CDBBC
:10589000A06A00F0C4F8642000F00EFB0021684606
:1058A00000F0A5F8A0620020A082208BA8420CDBAB
:1058B000E06900F0B4F8642000F0FEFA00210FA8BF
:1058C00000F095F8E06100202083207901281FD1A5
:1058D00000212171206A00F0A2F8606A00F09FF8B0
:1058E000A06A00F09CF8642000F0E6FA00210AA803
:1058F00000F07DF82062002105A800F078F86062D1
:105900000021684600F073F8A06200202061A082A8
:10591000012000F089F898E7E86400209455002001
:10592000483D0020043D0020F0640020BC640020BD
:105930006C640020B864002098640020BA640020E1
:1059400094600020883D0020FC3C0020746300200F
:1059500068600020985F00208C450020FE3C0020FD
:10596000B4630020E35F0020904D0020003D002044
:10597000083D0020286000204D25635400000000F1
:10598000906A0008E5570008FFFF000000000000D3
:10599000000100009C6A0008E34E000801000000BE
:1059A0000000000000020000A86A0008FD4F000887
:1059B000000000000000000000010000B46A0008C0
:1059C0009F520008000000000000000000010000DD
:1059D000C06A0008455500080000000000000000F3
:1059E0000001000080B500F0F9FB002002BD00B509
:1059F00083B00B46B0F908100022842918BFCA1CD6
:105A000002A90092019101680269406892B200F017
:105A10009BFA012814BF0020029803B000BD80B596
:105A200000F065FB002002BD80B500B9012000F048
:105A3000B4FB002002BD00002DE9FC410646DFF862
:105A4000F0523078C10740F1D480A86800F00C0013
:105A5000042807D0A86800F00C0008280DD1686859
:105A600041020AD52868810340F1C380706800288C
:105A700040F0BF800120BDE8F6817068B0F5803F3E
:105A800004D1286840F48030286011E0B0F5A02FE0
:105A9000286806D140F480202860296841F48031CC
:105AA00005E020F480302860296821F480212960F5
:105AB000706870B1FCF71AFD04462868810300F194
:105AC0009880FCF713FD001B6528F6D30320BDE882
:105AD000F681FCF70BFD04462868810340F18980BC
