:020000040800F2
:10000000F0660020115F0008C15D0008C35D0008B4
:10001000C55D0008C75D0008C95D0008000000005C
:10002000000000000000000000000000355C000837
:10003000CB5D000800000000DD5B00080D530008E8
:100040003B5F00083F5F0008435F0008475F000810
:100050004B5F00084F5F0008535F0008575F0008C0
:100060005B5F00085F5F0008635F0008675F000870
:100070006B5F00086F5F0008735F0008775F000820
:100080007B5F00087F5F0008835F0008875F0008D0
:100090008B5F00088F5F0008935F0008975F000880
:1000A0009B5F0008CD5D00089F5F0008A35F00080C
:1000B000A75F0008AB5F0008AF5F0008B35F0008F0
:1000C000B75F0008BB5F0008BF5F0008C35F0008A0
:1000D000C75F0008D35D0008D95D0008DF5D000838
:1000E000CB5F0008CF5F0008D35F0008D75F000830
:1000F000DB5F0008DF5F0008E35F0008E75F0008E0
:10010000EB5F0008EF5F0008F35F0008F75F00088F
:10011000E55D0008FB5F0008EB5D0008FF5F00087D
:1001200003600008076000080B6000080F6000080B
:1001300013600008176000081B6000081F600008BB
:1001400023600008276000082B6000082F6000086B
:1001500033600008376000083B6000083F6000081B
:1001600043600008476000084B6000084F600008CB
:100170005360000857600008000000000000000005
:100180005B6000085F600008F15D000863600008C4
:10019000676000086B600008000000006F600008E6
:1001A0007360000877600008000000000000000095
:1001B0007B60000800000000000000007F60000875
:1001C00083600008876000088B6000088F6000086B
:1001D00093600008976000082DE9F04F0FF2A41C0F
:1001E000A1B0DCE90089CDE900892A9DDFF8109CE7
:1001F000049100248DF843500D944FF0FF3882464F
:1002000016461F460FE0B3462C461BF8011B049808
:10021000D0470028049000F0A2800D98401C641E76
:100220000D90F2D176193078252808D100210022CE
:100230000791089209910A920B910C920DE06A467F
:100240004146304600F0F4FF050001D10D98A1E0D1
:10025000D9D50125E6E741F0010116F8010F202864
:10026000F9D023280CD02B2804D02D2805D03028F5
:1002700009D076E041F00201EFE741F00401ECE73C
:1002800041F00801E9E741F01001E6E70F9209E0CB
:100290000F98484505DA00EB800402EB4402303A3F
:1002A0000F92761C3278A2F130000A28F0D3307811
:1002B0002E2818BFCDF8388022D116F8010F2A2831
:1002C00007D138683860761C50F8042B38600E92DD
:1002D00016E02D280CBF761C002000220E920AE0AA
:1002E00040B90E9A4A4505DA02EB820403EB440357
:1002F000303B0E93761C3378A3F130020A2AEFD3F9
:10030000ADF8401021A0317800F09CFF08B116F83C
:10031000010B8DF842009DF84200682804D1307826
:1003200068280AD1622105E06C2804BF30786C2867
:1003300003D171218DF84210761C12A806903A461E
:1003400016F8013B02A9504600F064F838B912AA29
:1003500002A9504600F0CAF900287FF564AF404674
:1003600018E02A2892D13A683A6052F8040B3A60B1
:1003700000280F9003D540420F9041F00401761CF5
:1003800095E700000000000000000000686A6C743F
:100390007A4C000021B0BDE8F08F622820D0682898
:1003A00011D06A2803D06C2827D0712825D108687D
:1003B000C01D20F007000860D0E900230830086065
:1003C000194610467047002A0A680A60106803D070
:1003D000121D0A6000B217E0121D0A6080B217E019
:1003E000002A0A680A60106803D0121D0A6040B231
:1003F0000AE0121D0A60C0B20AE0002A0A680A6018
:10040000106803D0121D0A60C1177047121D0A60E0
:10041000002170477CB50D4611461C462E69B4F18B
:10042000250200F051811C3A00F08680121F022A3A
:1004300040F282800E3A00F00B81521F5AD0093AE6
:100440007AD0921E16D0521E35D0521E022A73D96F
:10045000121F30D0521F00F09A80521E4AD0521EF6
:1004600000F0E480D21E00F00181921E42D0D21E24
:1004700040D02FE195F83A406C2C09D06869421CB5
:100480006A610A680A6052F8043B0A6033542BE13F
:100490000A680A6052F8043B0A6000930022019245
:1004A0004FF0FF332B636A46294600F09AF9002883
:1004B00040F11A8105E195F83A000122FFF76DFF3E
:1004C000C5E900010023994204DA6869411C6961A9
:1004D0002D220DE0288F810704D56869411C6961D0
:1004E0002B2205E0C00722D56869411C69612022E2
:1004F00032541CE095F83A000022FFF74EFFC5E9A0
:10050000000195F83800010711D5D5E90023002036
:10051000834208BF82420AD044F02000782806D1E6
:10052000686930213154401C421C6A6134542146B0
:1005300068693044E86087E00868C01D20F0070063
:100540000860D0E9002308300860C5E90023D5E938
:100550000001C80F04D06869411C69612D220DE0BB
:10056000288F810704D56869411C69612B2205E049
:10057000C00704D56869411C69612022325468694A
:100580003044E8602146284600F03AFAACE005F134
:100590003A02507820B14FF0FF340FF6343074E057
:1005A0001078622808D0682824D06A2812D06C28D5
:1005B0002ED071280ED02BE00A680A6052F8040B86
:1005C0000A6020B94FF0FF340FF61C305DE0E96A95
:1005D000017089E00A680A6052F8040B0A6020B9C9
:1005E0004FF0FF340FF600304FE0EA6AD317C0E94E
:1005F000002379E00A680A6052F8040B0A6020B907
:100600004FF0FF340FF6E0203FE0E96A01806BE035
:100610000A680A6052F8040B0A6020B94FF0FF34F0
:100620000FF6C42031E0E96A01605DE00A680A6003
:1006300052F8040B0A60002120F0000221F0FF3381
:10064000C5E90023EE607821284600F02DF94BE043
:100650006C2285F83A200B680B6053F8042B0B6072
:1006600052BB4FF0FF340FF6B4200EE095F83A205D
:100670006C2AF0D00868086050F8044B0860EC6001
:100680003CB94FF0FF340FF6782000F003FE201A3B
:1006900076BD2E6B002E04D5204600F01BFE0446CE
:1006A00008E032460021204600F03EFE002814BF3C
:1006B000041B3446AC6117E0294600F092F800288C
:1006C00012D54FF0FF3076BD6869411C6961252263
:1006D000325409E06969481C68612522725421007E
:1006E00002D0431C6B613454002076BD2DE9F041EB
:1006F0000E4605469046726B7069316AB46A121AEA
:10070000B069521A716A121AF069521A121A96F8DE
:100710003800141B41070DD4002C0BDD2746B068B0
:100720002021A8470028B06057D0F06A401C7F1EE7
:10073000F062F4D1736942463146284600F0B0FCBD
:1007400000284AD1376A002F0ADDB0683021A84757
:100750000028B06041D0F06A401C7F1EF062F4D1E6
:10076000B369F2683146284600F09AFCA8BB776A64
:10077000002F09DDB0683021A847B06068B3F06A87
:10078000401C7F1EF062F5D1F068B169F369421830
:100790003146284600F084FCF8B9B76A002F09DD1D
:1007A000B0683021A847B060B8B1F06A401C7F1E25
:1007B000F062F5D196F8380041070BD5002C09DD21
:1007C000B0682021A847B06038B1F06A401C641EB0
:1007D000F062F5D10020BDE8F0814FF0FF30BDE8B8
:1007E000F0812DE9F8470D46A3B02F6B002F064688
:1007F000904648BF6FF000470FF63C1400F0C0FD74
:10080000D4E90023696B4018CDE90123812828BF72
:100810004FF0FF3042D20024002F33DDD8F8001013
:1008200001AA684600F006FD8146B9F1000F38D4F0
:10083000D8F8000010B9B9F1010932D44F4521DBD5
:100840006869484481280AD30021696303AA2946BC
:100850003046FFF74BFF040014D40020686103AB5F
:10086000D5F814A04A46694603EB0A0000F092FD51
:10087000CA44C5F814A058F8040B002818BFA7EB09
:100880000907C9D14CB903AA29463046FFF72EFF04
:10089000044614B9002068616863204624B0BDE8AE
:1008A000F0874FF0FF34F8E72DE9FC4707468C4608
:1008B0003E69BCF16F0F08BF082405D04CF0200042
:1008C000782814BF0A2410243C25D7E90023BCF162
:1008D000640F18BFBCF1690F9046994606D10021FC
:1008E0008B4203DAD8F1000869EB49094FF0000A9E
:1008F000D14508BFD0451FD1386BE8B9082C4BD182
:1009000097F83800010747D530203B2586F83B0093
:1009100042E000280ED597F8380000F014001028A7
:1009200008D17B6B7969386A5B1A1B1A9A1A002AFC
:10093000C8BF3A62BDE8F3878DF800C0404649461B
:100940002246E31700F07AFD3032D0B26D1E3A280D
:10095000019504DB9DF80000A0F151018A18725541
:10096000404649462246E31700F068FD8946804626
:10097000D14508BFD04503D0F86871198842DDD34E
:10098000082C09D197F83800010705D5705D30288B
:1009900002D06D1E30207055C5F13C02BA6171194C
:1009A000F960386B8242B4DA821A3A624FF6EF701D
:1009B000398F01403987BDE8F3872DE9D0430646DA
:1009C0000F4614464FF00008DFF8389412E0E007B5
:1009D00007D542464B463046394600F047FE0646AC
:1009E0000F464046494642464B4600F03FFE6410E3
:1009F00080468946002CEAD130463946BDE8D0838E
:100A00002DE9F34F054641F020048DB0D5E900896A
:100A1000612C02AE09D0286B002848BF062003D401
:100A200008BF672C01D101202863D5E900235800B5
:100A30004015401C0ED119030CD00320A8619DF86D
:100A4000381061391A2902D20FF2F46111E00FF265
:100A5000F4610EE059004915491C0FD118030DD15E
:100A60000320A8619DF8381061391A2914D30FF2B8
:100A7000DC61E868032200F08DFCD3E1194621F027
:100A80000043B3F5801F10460DD20027BB4208BFBC
:100A9000BA42019703D111E00FF2AC61E9E701AA74
:100AA00000F0B6FE0AE0DFF8607307EB1352DFF8E0
:100AB0005C3301921940DFF858331943C5E900014E
:100AC000612C0ED1E86830210170821CEA609DF82B
:100AD000381061290CBF7821582141706869801C49
:100AE0006861D5E900AB2BF0004300202AF000023A
:100AF000834204BF8242002300F05B81612C40F0FE
:100B0000AA80286B002847BF21210091401C00903B
:100B1000009F7F1C404649460022002300F0B0FEA3
:100B2000D94601998DF8082038BF89F00049091F7E
:100B3000002FD04601910DF1090040F34981B349DE
:100B4000DFF8D0B20C910646404649460022002309
:100B500000F0AEFE80F03B814800400D00F11C0229
:100B600011D0002A0FDD40F2FF70824205DB09F050
:100B7000004040EA0B01002013E00C98014041EADC
:100B8000025140460DE029F00043002028F0000209
:100B9000834208BF82420FBF40461C22404600F0FD
:100BA0009FFE8046894600F039FFFF1F002F044654
:100BB00009DD00F051FF02460B464046494600F071
:100BC0005DFF80468946F01D072104E004F00F0216
:100BD00000F8012D2411002C01DD491EF6D5491E17
:100BE0005CBF002200F8012DF9D5ECE00020194689
:100BF00002AA0A4400E05B1E12F80149491E844221
:100C0000F9D00F2804D10DF10900425C521C425466
:100C1000002904D50198001D02AE5B1C0190591EED
:100C200012D49DF838007218A0F13A07147804F134
:100C300030085FFA88F43A2CA8BFB844491E02F87D
:100C40000189F3D58DF83800286B002840F1B08079
:100C5000591E2963ACE0404649460022002300F0BB
:100C60000FFE019938BF89F0004947F29750414380
:100C7000694A91FBF2F20192D2F1070204DD40468B
:100C80004946FFF79AFE0AE0524200206349FFF707
:100C900094FE02460B464046494600F061FF8046FE
:100CA000662C286BDFF878B106BF019F0A3706274C
:100CB0003F18142FC8BF142730208DF8080089462C
:100CC0000DF1090000E03046002F34DD06464046B5
:100CD000494601F069F801460A4606F10803042076
:100CE0000A26B2FBF6F606EB860EA2EB4E02303277
:100CF00003F8012C0A22B6FBF2F202EB820EA6EBFD
:100D00004E063036401E03F8026DE9D1083F002F31
:100D100003F10806D7DD084601F05AF802460B46F3
:100D20004046494600F0AAFE00225B4600F09EFCC9
:100D300080468946CBE70DF10901401A0DF10906FD
:100D400004E00199491E401E0191761C317830293A
:100D5000F7D0662C02D10199491C03E0652C0CBF29
:100D6000012100212B6BCB189842B8BF431E002BEA
:100D70001ED4834204DAF05C3528A8BF392000DA9B
:100D800030201946721E02EB010800E05B1E18F8C5
:100D90000199491E8145F9D0392802D1705C401C67
:100DA0007054002904D50198401C16465B1C019024
:100DB000019800B200901BB29DF8381032462846C8
:100DC00000F034F82EE0C61D002F3FF7BDAE3046D0
:100DD0000DF10901401A009903468842C8BF0B462D
:100DE000002B0DF109063FF52FAF8342BFF6FEAE93
:100DF0000DF10900C15C07297FF7F8AE0F20F6E678
:100E0000CBCCCC0C0000244002FCFFFFFFFF0F8086
:100E10000000E03F0000F07FA08601000000F03FEE
:100E200084D797410FB0BDE8F08F00002DE9F84757
:100E300083B006468A461746984600F0FDF9B8F199
:100E4000000F406A356B90F8009002DC4FF001080B
:100E5000BFA74AF02000BDF93040662808BF641CD7
:100E600015D0672840F0848014F1040FC0F286800A
:100E7000AC4280F2838096F83800641C010702D4EB
:100E8000A845B8BF454620B22D1A48BF00250FFA25
:100E900084FAF068B169BAF1000F25DC4A1C3023EE
:100EA0004354002D03DC96F83800010703D5F068A1
:100EB00000F80290521C15EB0A0FB8BF6C4220B22A
:100EC000441941424445B8BFA046B26171620FFA6D
:100ED00088F5F561F068B3692A463946184400F090
:100EE00059FA641BB462C4E022B29045084417DA90
:100EF0004246394600F04EFAB0694044B061AAEB70
:100F00000801002D716203DC96F838100A0705D538
:100F1000F16801F80090F069401CF061B562A8E04A
:100F2000394600F037FAB069002D5044A8EB0408A8
:100F300003DC96F838100A0703D5F16801F8009031
:100F4000401CB0610FFA88F08542F368B069B8BF01
:100F5000A8460FFA88F207EB0A01184400F01AFAC3
:100F6000B1690FFA88F00144B161281A706280E01B
:100F7000BAF1610F14D14FF0700A16E0A84504DAF7
:100F800096F838100A0758BF45466D1E48BF002521
:100F9000BAF1670F14BF4FF0450A4FF0650A04E03D
:100FA000BAF1410F08BF4FF0500AB169F368481C0D
:100FB000B061002D17F8012B5A5403DC96F8381055
:100FC0000A071BD5F168431CB36101F80090002D9E
:100FD00014DDA8F101080FFA88F039468542F76858
:100FE000B8BFA8460FFA88F2F81800F0D3F9B06934
:100FF0000FFA88F108446D1AB0617562F068B16942
:101000000844002C80F800A003D42B224270811CDD
:1010100003E02D2141706442811C00206A460AE0F1
:1010200023460A2493FBF4F404EB8405A3EB450365
:1010300002F8013B401C24B2002CF1DC012806DC44
:101040004AF02002652A04BF302201F8012B48B97A
:10105000302001F8010B07E0401E1DF8003030334E
:1010600001F8013B0028F7DCF268B0691044091A66
:10107000F16196F8380000F0140010280DD1726963
:10108000B169706A8A18F1698218B06A8A18821880
:10109000706B8242BCBF821A326204B0BDE8F08736
:1010A000F8B505460E4617461C46002074B117F8E1
:1010B000011BB068A847B06030B1F06A401CF06214
:1010C0000020641EF3D1F2BD4FF0FF30F2BD0000EE
:1010D0007072696E74665F733A20256E206469735E
:1010E000616C6C6F776564007072696E74663A202B
:1010F00062616420256E20617267756D656E740093
:101100007072696E74665F733A2062616420257341
:1011100020617267756D656E740000007072696E93
:1011200074665F733A2062616420256C732061727B
:1011300067756D656E74000000000000000000001F
:101140006E616E004E414E00696E6600494E46006B
:101150003000F0B40246106895681318506803EB2D
:101160005004C0071DD54D441BE013F8017B05F862
:10117000017B491EF9D1A0B1B60813F8011B06F096
:101180000306032E08BF13F8016B01EB0621494249
:10119000801C294405D011F8016B05F8016B401E35
:1011A000F9D1A3420ED013F8016B16F0030104BF6E
:1011B00013F8011BC91C30090F28DAD113F8010BF1
:1011C0000F30D6E7F0BC02F10C0070471B487047A7
:1011D00070B45368D418042B09DA41B1057804F8C7
:1011E000015B10F8016B16B15B1C491EF3E75360FD
:1011F00070BC704738B514461D4661B1FFF7E8FF73
:1012000061686A6B204690476FF00102811A02D034
:10121000491E01D001E003E005E00021616032BD1C
:101220006FF0010032BD4FF0FF3032BDDA6B104776
:10123000024BDFE7014BF9E70148704754000020FB
:101240001C0000200278C9B28A421AB11CBF10F8F3
:10125000012FF9E718BF0020704730B4002513E0D4
:1012600050F8042BD30744BFA9F101039A18091FB2
:10127000042942F8045BFAD213468C0744BF158058
:101280009B1CC90748BF1D7050F8041B0029E7D1FB
:1012900030BC704780B500B906A005490B681BB18A
:1012A00022220021984701E000F09FFD222002BD8C
:1012B000EC620020636F6E73747261696E742068F3
:1012C000616E646C65723A20626164206D6573734F
:1012D0006167650000F10103810704D010F8011B6C
:1012E000820781B1FAD10268A2F10131914311F074
:1012F000803104BF50F8042FF6E709BAB1FA81F142
:1013000000EBD100401CC01A7047B1F5807F02D3BA
:101310004FF0FF3070470170012070470078401E89
:101320008041C043C00F7047C9B2830706D0521E28
:1013300022D310F8013B9942F7D11FE0083A13D3AA
:1013400002F1040241EA012141EA014150F8043B63
:10135000121F21BF4B40A3F1013C2CEA030C1CF0EF
:10136000803FF3D0C9B2001F083210F8013B521E73
:1013700028BF91EA030FF8D818BF0120401E70471C
:1013800080B5FFF723FF006C02BD0268531C0360A9
:101390001170704762B38B0708D0521E11F8013BE1
:1013A00000F8013B00F024808B07F6D1830740F062
:1013B000208000BF103A07D330B4B1E83810103A9B
:1013C000A0E83810F9D230BC530724BFB1E80810A8
:1013D000A0E8081044BF51F8043B40F8043BD20792
:1013E00024BF31F8022B20F8022B44BF0B78037086
:1013F0007047121F17D35B0009D151F8043B20F846
:10140000023B1B0C121F20F8023BF6D20BE051F8F6
:10141000043B00F8013B1B0A20F8023B1B0C121F87
:1014200000F8013BF3D238BF121D521E24BF11F841
:10143000013B00F8013BF8D870470000BBBBE1B1AD
:10144000B2F5803F80F07E80022A1ED98C46B1FB27
:10145000F2F102FB11C31B0443EA1043B3FBF2FC9D
:1014600002FB1C3380B240EA0343B3FBF2F002FB01
:10147000103240EA0C4000237047022A05D9844606
:10148000B0FBF2F002FB10C270474AB105D100F088
:10149000010249085FEA30007047002200237047CC
:1014A00000F0A6BC0B000200002100207047904213
:1014B00071EB030CF6D3B3F5803F2FD2F0B5B3FA3E
:1014C00083F7B1FA81F4A7F10F0E3D1B5340CEF123
:1014D000200602FA0EF2F3415340B5F10F0746D849
:1014E0000F3C2C444140C4F12006A040F141414052
:1014F000B1FBF3F603FB1611A2FB0645001BA94145
:1015000002D2761E8018594180EA010221FA0EF3B8
:1015100062FA0EF200215A403046F0BD30B4B1FB01
:10152000F3FC03FB1C11A2FB0C45001BA94103D2D9
:10153000ACF1010C8018594130BC02460B466046A4
:1015400000217047B2F1807F65D3F0B5B2FA82F71F
:10155000B1FA81F4C7F10F063D1B22FA06F307F139
:10156000110EF24120355A40B5F10F07B8D941406C
:10157000C4F12006A040F1414140B1FBF3FC03FB64
:101580001C11A2FB0C45001BA94103D2BCF1010CAC
:10159000801859410F2F12D30F3FC90341EA504120
:1015A000B1FBF3F603FB1611A2FB0645D4EBC030EA
:1015B000A94102D2761E8018594146EACC3C07B3B5
:1015C0004140C7F12006B840F1414140B1FBF3F67C
:1015D00003FB1611A2FB0645001BA94102D2761E91
:1015E0008018594180EA010221FA0EF3C7F1200464
:1015F00062FA0EF20CFA07F05A402CFA04F130436A
:10160000F0BD80EA010221FA0EF3002162FA0EF227
:1016100060465A40F0BD8C46B1FBF2F102FB11C3AB
:101620001B0243EA1063B3FBF2FC02FB1C331B02F8
:101630004CEA002043EA1063B3FBF2FC02FB1C33CC
:101640001B024CEA002043EA1063B3FBF2FC02FBEE
:101650001C331B024CEA002043EA1063B3FBF2FC8C
:1016600002FB1C324CEA002000237047B0B581EA2F
:10167000030C0CF0004C40F2FF7515EA11541DBF2D
:1016800015EA1357AC42AF4239E0E41923EA455357
:1016900043F48013C90241F0004141EA505EC702A1
:1016A0001100A7FB020200284FF00000EEFB012012
:1016B0004FF00001E3FB072118BF42F00102401880
:1016C00000214941E3FB0E01A4F580640F0302D21F
:1016D00052004041494154F101046CDD470872F168
:1016E000004250F1000051EB0451A1F580115CBFA4
:1016F00041EA0C01B0BD4CEA05510020B0BD05EA3D
:101700001357AC4214BFAF4241E050EA410E1CBF38
:1017100052EA430E02E061460020B0BD24423C4440
:101720001BD15FEA070EF6D0090302BF0146002075
:10173000AEF1140EB1FA81F7AEEB070401FA07FE21
:101740000C37C7F1200100FA07F7C8404EEA000E37
:1017500023EA455343F48013A2E733F00043B3FA7E
:1017600083F704BFB2FA82FE77440B3FE41BB7F164
:10177000200E2FBF02FA0EF3BB40C7F1200E22FA53
:101780000EFE38BF43EA0E03BA40641C82E750EAFB
:10179000410E14BF52EA430E6FF000014FF40017E0
:1017A00017EB430F8ABF194617EB410FB5E74CEA19
:1017B00005510020B0BDD4F10104B4F120070FDAC7
:1017C000C4F12007520828BF42F0010210FA07F5C1
:1017D00001FA07F7E1BF2A43E0403843E1400FE058
:1017E000352C98DCC7F1200452EA400220FA07F2B7
:1017F00018BF42F0010231FA07F0A1400A4300216C
:1018000072F1004250F1000051EB0C01B0BD00003C
:1018100010B5144600F002F8226010BDC1F30A535F
:1018200043B14A0012F5001F28D2A3F2FE32A1EB09
:101830000251704750EA410C20D001F0004C31EACF
:101840000C01B1FA81F204BFB0FA80F3D2180B3A5E
:10185000B2F120032CBF00FA03F1914041EA0C01E0
:101860003EBFC2F1200C20FA0CF3194390405242C3
:1018700040F2FD33D21A01EB03517047002270474A
:101880004FF4001C1CEB410F94BF1CEB430F09E00D
:1018900041EA030C50EA4C0C52EA0C0C03D2994278
:1018A00008BF9042704714BF8B42824270470000CD
:1018B0004FF4001C1CEB410F94BF1CEB430F09E0DD
:1018C00041EA030C50EA4C0C52EA0C0C03D28B4256
:1018D00008BF8242704714BF99429042704700008F
:1018E000124254D440F2FF7C1CEA11530FD06345DE
:1018F00031D09B1863453CBF01EB0251704701F0AA
:10190000004141EA0C510020AFF30080704750EADB
:10191000410320D001F0004C91EA0C011CD0B1FA37
:1019200081F30B3B9A420DD9D21A994051EA0C012E
:10193000C3F1200C20FA0CFC61449840531C40F287
:10194000FF7CD7E7914041EA0C01C2F1200C20FA5C
:101950000CF3194390407047B0FA80F31533202BF5
:10196000E0D3202AEED3203A203B9A4209D9D21A5A
:1019700000FA03F141EA0C010020531C40F2FF7C05
:10198000B8E700FA02F141EA0C0100207047524228
:1019900040F2FF7C1CEA11530DD06345DBD0B2EB63
:1019A000030C3CBFA1EB025170470CF1010221EA8C
:1019B000035141F4801150EA410CCCD001F0004CAD
:1019C000352A27DC30B481EA0C01B2F1200309DAB0
:1019D000C2F12003044601FA03F5D0402843D14068
:1019E0009C400CE0C3F12002450020FA03F418BF2C
:1019F00044F0010421FA03F091400C43002174F1FA
:101A0000004550F1000051EB0C01244230BC7FF442
:101A10007BAF70476146002076E70000C1F30A53B0
:101A200040F2FE329B1A14DDD3F120034FEAE1723B
:101A300008DDC90241EA505141F00040D840801809
:101A40005040704703F2E13010B1D24382F00040C1
:101A50007047002070470000C11768B14840401A25
:101A6000B0FA80F29040D21CC907C2F5846241EA04
:101A7000025202EBD02140057047000070B44FF0D5
:101A8000004591EA030F40F1B5816B40841A71EB78
:101A9000030603D2001BB141121973414FF4001C1D
:101AA0001CEB410F34BF7CEB430442E00C0DA4EB74
:101AB0001356352E4FDC45EAC323DB0A45EAC12124
:101AC000C912B6F120050DDD63FA05F6EB4086EA92
:101AD0000305124218BF45F00105C01851F100017D
:101AE0000CD213E062FA06F5F2405540F3415A4039
:101AF000B340F3405A408018594107D349085FEA80
:101B000030005FEA350528BF45F0010501F5801179
:101B1000420875F1004250F1000041EB04514E00C3
:101B200016F5001F70BC38BF70470020090D09056D
:101B300070471CEB410F10D252EA43060BD0BCEBAE
:101B4000410F05D80C0DAB43661E342EB6DD02E006
:101B5000AB438018594170BC704770BC704700009F
:101B6000F0B540F2FF7581EA030C0CF0004C15EA69
:101B700011541DBF15EA1357AC42AF42E5E0BC411A
:101B8000C1F31301C3F31303801A994143F4801383
:101B900004D2641E4000494180185941C90241EAFB
:101BA0005051B1FBF3F603FB1611A2FB0675D7EB00
:101BB000C020A94102D2761E80185941C90241EACB
:101BC0005051B1FBF3FE03FB1E11A2FB0E75D7EBC8
:101BD000C020A94103D2AEF1010E801859418902FB
:101BE00041EA9051760546EA8E2EB1FBF3F603FBEF
:101BF0001611A2FB0675D7EB8020A94102D2761EF2
:101C000080185941C90241EA50514EEA060EB1FB13
:101C1000F3F603FB1611A2FB0675D7EBC020A94112
:101C200002D2761E80185941C90241EA5051B1FBD7
:101C3000F3F703FB1711A2FB0735D3EBC020A94133
:101C400067F100070CBF004247F0010766F3D52794
:101C50004FEA1E31B80814F5806412DDBD0775F136
:101C6000004250EB0E5051EB045111F5801F5CBF48
:101C700041EA0C01F0BD4CF07F6141F0E0410020F1
:101C8000F0BDBD076D0840EA0E5041F48011D4F15B
:101C90000104B4F120060ADAC4F120060200E04093
:101CA00001FA06F3E1401843B24015430EE0342C2C
:101CB00013DCC6F1200445EA40056D0820FA06F25F
:101CC000154321FA06F0A1400D43002175F10042B1
:101CD00050F1000051EB0C01F0BD00205FEA0C0157
:101CE000F0BDCFB992185B41B3FA83F704BFB2FAE3
:101CF00082F6BF190B3FB7F120062FBF02FA06F399
:101D0000BB40C7F1200622FA06F638BF3343BA407B
:101D10001CB1E419641E33E77F4231F00041B1FA8F
:101D200081F404BFB0FA80F6A4190B3CB4F120068C
:101D30002FBF00FA06F1A140C4F1200620FA06F6F2
:101D400038BF3143A0403C1B1AE7AC421ABF05EA3A
:101D50001357AF4212E050EA41061CBF52EA430655
:101D6000BFE750EA4107304661461CBF41EA0551D2
:101D7000F0BD52EA430C08BFC143F0BD00204FF450
:101D8000001616EB410F98BF16EB430F08BF16EB7A
:101D9000410F24BFC14305E016EB430F0CBF614662
:101DA0004CEA0551F0BD0000400D491840EA812081
:101DB0000CD2490DA1F58061491C40F0004005DBC3
:101DC000D1F11F0154BFC840C017704700207047B1
:101DD000014648B1B0FA80F18840C91CC1F5846160
:101DE000090501EBD02140057047012000F0B8B88B
:101DF00070470000841A71EB030604D26E40001B8A
:101E0000B141121973414FF4001C1CEB410F34BF58
:101E10007CEB430683E00C0DA4EB1356362E00F347
:101E20007C80012E45EAC32341DC43EA525312BFB2
:101E3000D20292025B08240545EAC12141EA5051D1
:101E4000D2EBC020994125D407D1B0FA80F610FA20
:101E500006F162D00020203608E0B1FA81F6B140E8
:101E6000C6F1200220FA02F21143B0404FEAF474A6
:101E7000B4EB465434F001064FEA74040AD8D6F5A0
:101E80000016760D04F00044F04061FA06F250406E
:101E9000F1404840C00A40EA415021F0004128BFCB
:101EA0005FEA500550F1000044EBD12135E0DB0A38
:101EB00045EAC121C90AB6F120050EDD42EA024217
:101EC000120CC5F1200603FA06F6EB4042EA0605BD
:101ED0006D42984161F100010DE062FA06F5F240B1
:101EE000554063FA06FC82EA0C02F3405A406D4208
:101EF000904161EB030111F4801F05D1641E62055E
:101F000002D06D004041494121F48011430875F130
:101F1000004350F1000041EB045170BC70471CEBD2
:101F2000410F15D223F0004352EA43060BD04FEA8B
:101F30004C0CBCEB410F04D80C0D661E342EB7DDE3
:101F4000EBE7801A994150EA410608BF0021E4E717
:101F500008BF1CEB430F28BF6FF00001DDE7000056
:101F600080B5AFF30080024A11001820ABBEFBE73A
:101F70002600020000B585B04FF4FA7000F00CFDA9
:101F800000F078FD00F0E4FD00F055FE68460FF625
:101F9000A4111422FFF70EFA00F0C3FCDFF80819B1
:101FA000086005B000BD2DE9F84DDFF80089B3B039
:101FB000404601F003F9DFF8F8A8DFF8F81801222D
:101FC000504601F006FADFF8F0080FF660110278CB
:101FD00030326846002501F021FCAB460026DFF8D0
:101FE000DC781AAC15E000F061F8504601F06BF9AE
:101FF0000CE001A800F05EFE062000F057F8504605
:1020000001F061F9DFF8B81801200871002500F02F
:102010008DFA404601F0E9F80028F8D1404601F079
:1020200003F960556D1C300027D1032DEFD100203E
:10203000E070032269461AA801F010FCB0B901262D
:10204000E5E79DF80700022806D0032827D00628D8
:10205000CFD01628C7D0D9E700F076FEDFF86408A5
:10206000DFF8641802884FF47A73BEE760788DF861
:1020700068000225A1786170C9E7062D05D8C6D190
:102080002079617941EA002BC1E70BF10602954204
:10209000BDD11AA901A8FFF78DF90026D1E700F0FC
:1020A00078FEDFF82808DFF82818DBE7F8704FF42F
:1020B0007A730F22394670472DE9F84F9EB001A878
:1020C00000F031FADFF80C08DFF808B801F076F814
:1020D0000122DFF80418DFF8040801F07AF90DF1A5
:1020E000140ADFF8FC07C189891E18D0491E1AD0CE
:1020F0004FF4F772891A1AD0491E24D0491E1AD0FB
:102100004FF48772891A1AD0491E1CD0491E22D05A
:1021100040F2FE22891A22D0203926D02CE001A8D4
:1021200000F08AFE1EE001A800F098FE1AE001A867
:1021300000F0A7FE16E001A800F0E0FE12E001A802
:1021400000F01CFF0EE000218DF8001001A8022213
:10215000427303210FE001A800F06BFF02E001A829
:1021600000F0ADFF8DF8000006E08DF8001001A82A
:10217000F1224273F32181739DF811609DF80000F4
:1021800030B10246642301A9DFF8500701F09BF843
:10219000DFF82C178DF801600025A94600270224DE
:1021A0000D810E4675E001F03FF80AF807007F1C2C
:1021B000BFB2642F67DA5FEA090006D1DFF82007B3
:1021C000818A8F4265D14FF0010900200AF807008B
:1021D000DFF80C17CA89921E18D0521E1BD04FF47C
:1021E000F773D21A1DD0521E20D0521E24D04FF4A5
:1021F0008773D21A26D0521E29D0521E2DD040F2FB
:10220000FE23D21A2FD0203A32D036E005A9012081
:1022100000F019FE30E03AB205A9012000F022FEDC
:102220002AE005A9012000F032FE25E03AB205A916
:10223000012000F040FE1FE0FAB205A9012000F0E5
:102240006AFE19E005A9012000F0A2FE14E0FAB22E
:1022500005A9012000F0CAFE0EE0FAB205A901208E
:1022600000F0EBFE08E005A9012000F02DFF03E0DF
:1022700005A9012000F058FF80465FFA88F0012888
:1022800008BF002003D030780A2801DA401C3070E3
:1022900003243089B0F5FA7F0BDB012C09D0022C26
:1022A00004D130780A28BCBF401C307000200124C3
:1022B000308131780A290CD1DFF82406418ADFF811
:1022C000240601F0FFFADFF82016002001228871B1
:1022D000CA7100F02BF9012C3FF403AF022CD8D1C6
:1022E000584600F082FF0028D3D1280058467FF4DA
:1022F0005AAF00F099FF8DF814009DF801109DF879
:1023000014008842C5D101250127C2E72DE9F84F05
:10231000A0B000F007F9DFF8D41500F02BFA012285
:10232000DFF8CC15DFF8CC0501F053F8DFF8C8056D
:1023300002900DF11C0BDFF8A815088B801E18D039
:10234000401E1AD04FF4F772801A1AD0401E24D0C3
:10235000401E1AD04FF48772801A1AD0401E1CD02B
:10236000401E1DD040F2FE22801A1DD0203821D000
:1023700023E003A800F060FD19E003A800F06EFD63
:1023800015E003A800F07DFD11E003A800F0B6FD04
:102390000DE003A800F0F2FD09E000F0F8F90BE011
:1023A00003A800F046FE02E003A800F088FE8DF8C6
:1023B000000002E000F0E3F981739DF819909DF8A8
:1023C000000030B10246642303A9DFF8280500F0BD
:1023D0007AFF0026B246002402257E816FE000F0DD
:1023E00023FF00F0B5F964DA5FEA0A0006D1DFF8EE
:1023F000F004C18B8C4262D14FF0010A00F0B5F9B4
:102400000A8B921E18D0521E1BD04FF4F773D21AAB
:102410001DD0521E20D0521E24D04FF48773D21AE2
:1024200026D0521E29D0521E2DD040F2FE23D21AA1
:102430002FD0203A32D036E007A9022000F003FD69
:1024400030E022B207A9022000F00CFD2AE007A923
:10245000022000F01CFD25E022B207A9022000F0B6
:102460002AFD1FE0E2B207A9022000F054FD19E0A6
:1024700007A9022000F08CFD14E0E2B207A90220B7
:1024800000F0B4FD0EE0E2B207A9022000F0D5FD95
:1024900008E007A9022000F017FE03E007A90220C8
:1024A00000F042FE80465FFA88F0012808BF002055
:1024B00003D078780A2801DA401C787003257889DF
:1024C000B0F5FA7F0BDB012D09D0022D04D178780D
:1024D0000A28BCBF401C787000200125388178781C
:1024E0000A2807D1DFF8F803818B029801F0EAF996
:1024F00000F034F900F01AF8012D3FF41CAF022D62
:10250000DDD1019800F071FE0028D8D1300001988B
:102510007FF465AF00F088FE00F014F9CFD10126FA
:102520000124CCE703A8102101F0D0B9012001F06B
:10253000F8B92DE9F84FA0B0FFF7F4FFDFF8BC13AE
:1025400000F018F90122DFF8B813DFF8B80300F043
:1025500040FFDFF8B40302900DF11C0BDFF880138D
:10256000488C801E18D0401E1AD04FF4F772801A83
:102570001AD0401E24D0401E1AD04FF48772801A01
:102580001AD0401E1CD0401E1DD040F2FE22801AE0
:102590001DD0203821D023E003A800F04DFC19E025
:1025A00003A800F05BFC15E003A800F06AFC11E052
:1025B00003A800F0A3FC0DE003A800F0DFFC09E095
:1025C00000F0E5F80BE003A800F033FD02E003A8FB
:1025D00000F075FD8DF8000002E000F0D0F8817386
:1025E0009DF819909DF8000028B10246642303A9C4
:1025F000C44800F068FE0026B24600240225BE81D1
:102600006EE000F011FE00F0A3F863DA5FEA0A0062
:1026100005D1B348018D8C4262D14FF0010A00F020
:10262000A4F84A8C921E18D0521E1BD04FF4F77398
:10263000D21A1DD0521E20D0521E24D04FF48773C0
:10264000D21A26D0521E29D0521E2DD040F2FE237F
:10265000D21A2FD0203A32D036E007A9032000F05A
:10266000F2FB30E022B207A9032000F0FBFB2AE0D6
:1026700007A9032000F00BFC25E022B207A90320E4
:1026800000F019FC1FE0E2B207A9032000F043FCB0
:1026900019E007A9032000F07BFC14E0E2B207A9CF
:1026A000032000F0A3FC0EE0E2B207A9032000F033
:1026B000C4FC08E007A9032000F006FD03E007A919
:1026C000032000F031FD80465FFA88F0012808BF42
:1026D000002003D0B8780A2801DA401CB87003251E
:1026E000B889B0F5FA7F0BDB012D09D0022D04D19A
:1026F000B8780A28BCBF401CB87000200125B881FA
:10270000B8780A2806D17648C18C029801F0DAF828
:1027100000F024F8FFF70AFF012D3FF41FAF022D50
:10272000DED1019800F061FD0028D9D13000019878
:102730007FF467AF00F078FD00F004F8D0D10126F7
:102740000124CDE78DF81C009DF81C00484570471A
:102750000BF80400641CA4B2642C7047029900209A
:102760000870012202984270704700200BF80400A4
:102770005B497047524F0191084600F01FBD002190
:102780008DF8001003A8F1224273F2217047002156
:102790008DF8001003A80222427303217047000045
:1027A00038B594B00DF13C0067A1454C1422FEF7FA
:1027B00001FE00210FA801F098F8E06114220AA898
:1027C00066A1FEF7F7FD00F0A8F82062142205A824
:1027D00067A1FEF7EFFD00F09CF8606214226846E6
:1027E00068A1FEF7E7FD00F09CF8A06203212046F7
:1027F00001F06CF842F21075208AA84209DB206AC9
:1028000001F08AF800F082F800F087F820620020DA
:102810002082608AA84209DB606A01F07DF800F03E
:1028200075F800F076F8606200206082A08AA84205
:1028300009DBA06A01F070F800F068F800F071F8A8
:10284000A0620020A082208BA8420BDBE06901F08F
:1028500063F800F05BF800210FA801F046F8E06192
:10286000002020832079012818D100212171206ABD
:1028700001F052F8606A01F04FF8A06A01F04CF8DC
:1028800000F044F800F049F8206200F042F860627D
:1028900000F047F8A06200202061A0824FF47A7017
:1028A00001F03FF8A8E70000E862002094550020FE
:1028B000483D0020043D00206E620020C0620020E0
:1028C00070620020BC6200209C6200206C620020CC
:1028D000985D0020883D0020FC3C002048610020DD
:1028E000406200207A5E0020745E00208C4500204B
:1028F000FE3C002088610020BF5E0020904D00203B
:10290000003D0020083D0020045F0020642000F00E
:1029100043B8002105A800F0E8BF00210AA800F094
:10292000E4BF0021684600F0E0BF00004D2563547D
:1029300000000000145E0008A1270008FFFF00004F
:102940000000000000010000205E0008A71F000832
:102950000100000000000000000200002C5E0008E2
:10296000B920000800000000000000000001000085
:10297000385E00080D230008000000000000000081
:1029800000010000445E000833250008000000003C
:10299000000000000001000038B5044600F0C8FF48
:1029A00014F1010F054602D004480178641800F0C4
:1029B000BFFF401BA042FAD331BD00BF0C00002076
:1029C000811E012916D94FF4BF72891A14D07139AA
:1029D000022913D94FF48872891A022910D94FF4A9
:1029E0000072891A13D04FF48072891A0AD02039E4
:1029F0000AD00BE00E2070473E207047042070473D
:102A000006207047082070470A2070470020704752
:102A1000811E1DD0491E1DD040F27D12891A1BD087
:102A200071391BD0491E01291ED940F20F12891A93
:102A300016D0491E1AD0491E14D04FF4FF72891ABD
:102A400017D04FF48072891A0ED020390ED00FE0C3
:102A50000E207047102070473E20704708207047B6
:102A6000062070470D207047072070470C207047E4
:102A70000020704770B54FF0FF35DFF8D84606E00C
:102A8000204601F069F80546204600F0A9FF2046DF
:102A900000F07CFFDFF8C016204600F0BCFF0028E5
:102AA000F2D1002DECD4204601F056F82E46054612
:102AB000B542E9D1A5F675606328DFF8A04638BFB6
:102AC000012134D3A5F6E540632838BF02212ED377
:102AD000A5F65530812838BF032128D3A5F6152047
:102AE000772838BF042122D3A5F69900632838BF80
:102AF00005211CD3A5F20970632838BF062116D31F
:102B0000A5F27950812838BF072110D3A5F23940AA
:102B1000772838BF08210AD3A5F2BD20632838BF23
:102B2000092104D3A5F22D10772802D20A212170A1
:102B300003E00A2D3CBF0B2020700FF2486001F02B
:102B400031F921780FF25460BDE8704001F02AB9E4
:102B500010B5DFF80806DFF808460178DFF804064C
:102B600021700322627005220168C94301F00F0140
:102B7000A170E01C0FF23C61FEF70CFCA17801296A
:102B800004F1220028D1012221722273062140F291
:102B900021626173E28101210A22217462820C2187
:102BA0000122A1826272E275A27602210722A1753A
:102BB000E2834FF4F971042303222183A38384F871
:102BC00020200180012304220721A37284F82130F0
:102BD00083708280C18010BD02292BD10121022285
:102BE00021722173E28100210E2261736282A2822E
:102BF000012101222174627202210322A175E27572
:102C000040F2023101222183A27606210C22A18307
:102C1000E28301210322A17284F82020062140F2E0
:102C2000016284F8211002800123082107228370A9
:102C30008180C28010BD70B5DFF82C45CF212046C1
:102C400000F044FE0021DFF8180545224A432244E3
:102C50002323137053704E1C0A234B430344967076
:102C6000491C5D7BD5700329DE8916711B7C53716D
:102C7000EBDBDFF8F844002100220023002584E884
:102C80002E00017823714D226270303121700622AE
:102C9000E2705421A170092262714178A171C11CB6
:102CA0008278DFF8CC04E2710522FEF773FB6573CE
:102CB000A57370BD2DE9F04180460027DFF8A044E0
:102CC0000A2505FB07F008EB0001E319CA7F1A7219
:102CD0002618087E30734A7E7273487E8A7E42EAE6
:102CE0000022F281C97E3174F089FFF769FE70829B
:102CF000F089FFF78DFEB082E119087A20B1F189E1
:102D0000781CC0B201F03CFA7F1C022FD9DDDFF83D
:102D10005864CF21304600F0D9FD002045214143C1
:102D2000314423220A704A70471C05FB00F22244FA
:102D30008F70401C537BCB700228D7890F71127C97
:102D40004A71EBDDBDE8F0812DE9F041DFF8244464
:102D50002021204600F0BAFD00F053F8022000F0D8
:102D600059F80027DFF80084E819007A48B14520B7
:102D7000784308EB000130B206222044FEF70AFB3C
:102D8000B61D7F1C032FEFDB268400F033F8BDE86F
:102D9000F0812DE9F843DFF8E043DB21204600F025
:102DA00095FD00F02EF8032000F034F831B2002039
:102DB0006054761C0027DFF8B083E819007A88B1E8
:102DC0000A217943294445207843B1F8129008EB51
:102DD000000130B209F106022044FEF7DBFA09F1E6
:102DE000060006447F1C032FE7DBAE8500F002F8E7
:102DF000BDE8F18330B2801F00122071B01F6071F6
:102E00007047D74D2A7854214D20A1706070002161
:102E100030327047A1802270E07008266978A17175
:102E2000A878E0710020291832B2C978761C401CBD
:102E3000A1540528F7DB7047F1210170417300228E
:102E4000F2214270A1E0452210B500F079F90C2280
:102E5000491C3D38FEF79EFA012010BD0221017089
:102E600010224EE070B500F079F808D100F06CF84F
:102E70000C22891C3D38FEF78DFA012070BD002020
:102E800070BD052101700022F123F2217BE010B515
:102E900000F040F9897841EA02214FF49B7211FB5E
:102EA00002F1CB1201EB135109130C0424168470A8
:102EB000C170012010BD70B500F050F81CD100F0B9
:102EC00090F8A0F13F0300241C705C7064228D78A0
:102ED0004C784FF47A70554310FB0454CE780A793D
:102EE000A6490A2010FB0644A01808180104D8704F
:102EF00009169970012070BD002070BD022101707B
:102F0000202242700323002102228370C170427389
:102F100083730320704770B500F020F812D100F0E1
:102F200013F80A20CD788C786423454313FB0454AE
:102F30000B799349E01808180104D07009169170B4
:102F4000012070BD002070BD4522874B50431844BE
:102F5000A0F13F0200241470547070470023002435
:102F600002E04D5D6B40641C25B2961EB542F8DB55
:102F70000A44DBB212F8024CA3427047F1210170FF
:102F800000220223032142704373817301207047A2
:102F900030B500F026F8002400F83F4D44704FF49F
:102FA0007A724B788C7844EA032414FB02F3DD1226
:102FB00003EB15531B13143B1BB21C12C37084701C
:102FC000CB78097941EA032111FB02F1CA1201EB26
:102FD00012510913463109B20A12027141710120DE
:102FE00030BD4522604B504318447047F0B5FFF7A1
:102FF000B5FF1CD100F04FF8CF788E7800F045F87F
:103000000F7900F03DF84F79F6194F7896192D2F6A
:1030100008BF764237043F16C6708770CF798E7925
:1030200014FB07F415FB06440D7A497A3DE00020B5
:10303000F0BD02210170302263E7F0B5FFF78EFF8B
:103040001CD100F028F80F79CE7800F01EF84F79E7
:1030500000F016F88F79F6198F7896192D2F08BF82
:10306000764237043F16C67087700F7ACE7914FB0C
:1030700007F415FB06444D7A897A16E00020F0BD6E
:103080003E4A0A2313FB076670474FF47A7567437D
:1030900015FB067670474522334B504318440024F5
:1030A00000F83F4D44706424704713FB05435918E2
:1030B000521811040916017142710120F0BDF2216C
:1030C00001700022F1235EE710B500F023F8C47010
:1030D000A2F1300383F00103837004714471CA7854
:1030E000302A02D10122C27008E0322A02D1012224
:1030F000027103E0312A04BF012242710A79A2F170
:10310000300383714979A1F1300282F00102C2716A
:10311000012010BD4522144B50431844002400F8F0
:103120003F4D44704A787047452210B500F008F8CA
:1031300051F8022F40F83D2D4A684260012010BD31
:10314000094B50431844A0F13F02002414705470FE
:1031500070470000C060002040420F006E620020F7
:103160004062002010080240745E0020C06200200F
:10317000A05D00209C620020985D0020B02FFFFF22
:1031800030EBFFFF5B426F61726420496E666F72C5
:103190006D6174696F6E5D0D0A00000020536C6FE5
:1031A00074204E756D626572203A20253032640DB0
:1031B0000A0A0000463030303100000000F500609F
:1031C000002141800180704700F50060418800883F
:1031D000491C8A1201EB5253DB12A1EBC32181423D
:1031E00001D1012070470020704700F50060018880
:1031F0004088814201D1012070470020704738B5D6
:1032000004460D46FFF7E0FF68B9B4F802082554FC
:10321000B4F80208401C811200EB5152D212A0EB0C
:10322000C220A4F8020831BD10B50446FFF7DDFF47
:1032300008B1002010BDB4F80018605C491C8A1267
:1032400001EB5253DB12A1EBC321A4F8001810BD0F
:1032500038B5040001D1012032BD00F021F808B9D1
:1032600000F022F800F012F800F023F8FFE74161C7
:1032700000F001F832BD2068C16841F40051C1601E
:103280000020686020216970A97070472420687050
:103290002068C16821F40051C160204600F0F6B9F1
:1032A00004F138056878704700212970204600F045
:1032B000F5BD2068016921F49041016120684169F0
:1032C00021F02A0170472DE9F84F054699462B68F1
:1032D000DFF8F8B4DFF8F8845B450C46164602D1F7
:1032E000012200F06BF805F138077878202846D1E4
:1032F000002C18BF002E06D12868584501D100F0D7
:103300005CF8012041E0387801283DD00121397076
:103310000020786021227A7000F00AFBAE84824699
:10332000EE8403E0296814F8010B4860E88C00285B
:103330002DD0E88C411EE984534600F044F80ED1AC
:1033400000F036F800282CD120882968C0F3080046
:1033500048602869002814BF641CA41CE6E700F03C
:1033600027F80028DED01CE020207870002139707A
:103370002A685A4501D100F020F8002005E02868AD
:10338000584501D100F019F80220BDE8F28FCDF8C0
:103390000090534600224021284600F0EDF8002816
:1033A000E2D02868584501D100F007F80320ECE787
:1033B00000228021284600F0DFB800224FF40041AF
:1033C000404600F0D6BFA868CDF80090B0F5805F09
:1033D000704710B500F138039C78202C1DD109B13D
:1033E000140001D1012010BD1C78012C15D001243E
:1033F0001C7081628285C2850021596022229A70E8
:10340000197001684A6942F001024A610068C168A6
:1034100041F49071C160002010BD022010BD4169CF
:1034200021F040014161606B704738B50446256862
:103430002968EA686B6911F00F0007D188065DD52D
:1034400093065BD52046BDE83240DBE0D80702D4C6
:1034500012F4907F52D0C80705D5D50503D5E06B8F
:1034600040F00100E063480705D5DD0703D5E06BB8
:1034700040F00200E063880705D5DD0703D5E06B67
:1034800040F00400E063080705D5DB0703D5E06BD7
:1034900040F00800E063E06B00286CD0880604D59B
:1034A000910644BF204600F0ADF820684069E16B0A
:1034B0000A0701D440061BD5204600F08FF820688B
:1034C00041694A060FD5FFF7AAFF60B10FF2291133
:1034D0000165606B00F066FF00284CD0606B016DE9
:1034E000BDE8344008472046BDE8324000F06CBFDC
:1034F000204600F069FF0020E06331BD08062AD5B0
:10350000130628D594F83900212834D1A068B0F5E5
:10351000805F206A0BD10188C1F3080169602069CE
:103520000028206A0CBF811C411C216203E0411C61
:10353000216200786860E08C401EE08480B2D0B9DF
:103540002068C16821F08001C1602068C16841F035
:103550004001C16031BD48060DD551060BD5E86864
:1035600020F04000E860202184F839102046BDE8B2
:10357000324000F02ABF31BD2DE9F041069C0546DE
:103580000E4690461F46286801683140B1420CBF84
:1035900001200020404517D114F1010FF3D024B1D0
:1035A00000F0C6F9C01B8442EDD22868C16821F43E
:1035B000D07100F00CF805F13800202141708170C5
:1035C00000210170032000E00020BDE8F081C1600F
:1035D0002868416949084900416170470168CA6823
:1035E00022F49072CA6001684A69520852004A6126
:1035F000202180F83A107047806B0021C185C1847A
:1036000000F0E2BE80B590F83A1022293CD18168E2
:10361000B1F5805F12D101690368826A0029596897
:1036200005D1C1F308011180826A911C04E001F008
:10363000FF011180826A511C81620FE0016900293B
:10364000816A04D14A1C826203685A6805E04A1CF8
:10365000826203685A6802F07F020A70C18D491EB7
:10366000C18589B271B90168CA6822F49072CA60D2
:1036700001684A69520852004A61202180F83A10D4
:1036800000F013FD002002BD022002BD2DE9F0472D
:103690000446642522681169E06821F44051014321
:1036A00011611926D3684B48A168034020690B4378
:1036B00061690343E0690B430343D3605169A06927
:1036C00021F4407101435161E36943484349B3F533
:1036D000004F3BD18A4218BF82420ED100F003FF57
:1036E000074600F000FF804600F0FDFE814600F036
:1036F000FAFE824600F0F7FE0DE000F0ECFE074611
:1037000000F0E9FE804600F0E6FE814600F0E3FEB0
:10371000824600F0E0FE6168490000F070F8AE46B5
:10372000BCFBFEFE05FB1E77FF0032376423B7FBB0
:10373000F3F35B0003F4F87300F052F8ED00323558
:103740006420B5FBF0F000F0070039E08A4218BFB2
:1037500082420ED100F0C7FE074600F0C4FE80464C
:1037600000F0C1FE814600F0BEFE824600F0BBFEC6
:103770000DE000F0B0FE074600F0ADFE804600F020
:10378000AAFE814600F0A7FE824600F0A4FE616812
:10379000890000F034F8AE46BCFBFEFE05FB1E7748
:1037A0003F0132376423B7FBF3F303F0F00300F07B
:1037B00017F82D0132356420B5FBF0F000F00F0052
:1037C0002168C3188B60BDE8F087000000780040D6
:1037D00000080240F369FFFF00140140001001409F
:1037E00003EB021306FB0AF74643B7FBF1F2B6FB05
:1037F000F1F06421B0FBF1F105FB1125704777432F
:10380000B7FBF1F36422B3FBF2F206FB08F3B3FB60
:10381000F1F706FB09F3B3FBF1FC70470CB430B5CC
:1038200083B00A4606A9029104460025019400953A
:1038300002AB01A9084878441E30FCF7CDFC019A80
:10384000157000284EBF04460198041B204603B0A3
:1038500030BC5DF80CFB00BF33DBFFFF0300002032
:1038600013F0030F09D0521E22BF13F8010B11F8F9
:1038700001CBB0EB0C00F3D0704711F0030F14D163
:10388000121F22BF53F8040B51F804CB6045F7D048
:10389000121D0AD200BA9CFA8CFCB0EB0C0038BFA7
:1038A0006FF0000088BF01207047521E22BF13F83E
:1038B000010B11F801CBB0EB0C00F6D0521C08BF85
:1038C00010467047002200F06FBE0000002200F09A
:1038D0009BBE000001460020842918BFC81C704709
:1038E00080B500F0DEFF002002BD3EB504460D4667
:1038F000B4F90800FFF7EEFF02A9019100902B46F2
:1039000022692168606892B200F098FE012801D017
:1039100000203EBD02983EBD80B500F048FF00206B
:1039200002BD80B500B9012000F06CFF002002BD8F
:1039300001484068704700BF0C00002070B5044685
:1039400000250CB9012070BD04F13C06706820B957
:10395000B5603070204601F082F97068C10610D45D
:10396000706820F4885040F002007060204600F03B
:1039700090F9B560716821F0020141F001017160B8
:1039800000E0012500203070284670BD38B500F0F9
:10399000BCF801D1022032BD00F0BFF81ED500F006
:1039A00095F846BF906820F00600002000F087F8E8
:1039B00000F09FF806D1816811F0405F0ED100F051
:1039C00079F80BE0DFF8C013884202BFDFF8BC03D0
:1039D000026812F0405F01D100F092F8002032BD81
:1039E00000F13C010A78012A01D10220704701222E
:1039F0000A70026893685B085B00936000688268E5
:103A0000D00705D44A6822F4885242F001024A6085
:103A1000002008707047F8B50C46064606F13C05D4
:103A2000306881684A050AD58068C10507D568688D
:103A300040F020006860002129700120F2BDFFF7EE
:103A400077FF0746306801688A0710D414F1010F28
:103A5000F8D024B1FFF76CFFC01B8442F2D2686833
:103A600040F004006860002129700320F2BD6FF06F
:103A700012020260686840F400706860316888680B
:103A800010F0405F04BFB069002811D1C86A10F47B
:103A9000700F02D0886841050AD4686820F48070ED
:103AA00068606868C10403D4686840F00100686019
:103AB0000020F2BD816841F08041816070479060D4
:103AC000002414706FF02200186070475568DFF80A
:103AD000C002054045F4807555605868440505D519
:103AE000506820F4005040F4805050605068C40486
:103AF00070470868DFF89C120A6812F01F0F7047C1
:103B0000016841F08041016070470146002001F1E9
:103B10003C0200901378012B704701201070086858
:103B20008368DC0714D48368DFF86C4243F0010338
:103B30008360DFF868020368B3FBF4F404EB440429
:103B4000009402E00098401E009000980028F9D1EF
:103B50000B689868C40770470068C06C704778B5F8
:103B600002460020009092F83C30012B01D1022047
:103B700072BD012082F83C0007240B6810680A2BF4
:103B800011D30A3BC56803EB430300F076F8C46029
:103B9000C3680D688C68A5F10A0606EB4606B440BA
:103BA0002343C3600FE0056903EB430304FA03F307
:103BB00025EA0303036103690D688C6805EB45057D
:103BC000AC40234303611F244B68072B0CD25B1EC0
:103BD000456B00F050F84463436B4D680C886E1ED3
:103BE00000F044F843631BE00D2B0CD2DB1F056B88
:103BF00000F041F80463036B4D680C88EE1F00F081
:103C000035F803630CE00D3BC56A00F034F8C4627C
:103C1000C36A4D680C88A5F10D0600F027F8C36251
:103C2000594B98421DD10C685A48122C03D1036895
:103C300043F4800303600B68122B18BF112B10D1C3
:103C4000036843F4000303600868122809D153494C
:103C5000514C0B68B3FBF4F40A204443009400F089
:103C600010F8002182F83C10002072BD06EB860699
:103C7000B4402343704703EB83039C4025EA0404CC
:103C8000704702E00098401E009000980028F9D18B
:103C90007047404A116821F440311160136841684F
:103CA0000B4313600268536823F4807353605168B8
:103CB000036941EA03215160516821F0407151606C
:103CC000536881680B435360936823F400639360E7
:103CD0009368C1680B4393603149836A8B4210D06B
:103CE000936823F0706393609368816A0B439360D9
:103CF000936823F0405393609368C16A0B439360C9
:103D000007E0916821F070619160916821F0405165
:103D10009160916821F0020191609168836941EAA4
:103D200043019160016A002951680CD041F400619F
:103D30005160516821F4604151605168436A5B1ED3
:103D400041EA433101E021F400615160D16A21F47C
:103D50007001D162D16AC3695B1E41EA0351D1622D
:103D6000916821F4007191609168036B41EA4321ED
:103D70009160916821F4806191609168406941EAA5
:103D80008021916070470000002001400820014020
:103D9000FEF9FFFF0423014040420F0018000020FD
:103DA0000100000F0EB4C0B5024603A80021019027
:103DB000009101AB0121044878440C30FCF70CFA67
:103DC00006BC5DF810FB00BF2721000080B5DFF8BE
:103DD0007413DFF874230861CA60002048618861A9
:103DE000C8610C22486288620A6201F10C00FFF788
:103DF0002FFA00B117E001BD80B5DFF84803DFF806
:103E00004C13C1644FF4E132026500210C2241657C
:103E10008165C1650266416681664C30FFF718FA1C
:103E200000B100E001BDBDE8014001F02DB880B552
:103E3000DFF81C03DFF81C1301604FF4E1320023AC
:103E40000C2142608360C360036141618361C3618F
:103E5000FFF7FEF900B1E6E701BD80B5DFF8F81223
:103E6000DFF8F82200F00DF800B1DCE701BD80B505
:103E7000DFF8EC12DFF8EC2200F003F800B1D2E733
:103E800001BD48600A6000208860C86008610C229B
:103E90008861C8614A610846FFF7DAB910B586B093
:103EA000044668461421FFF711FD2168A64AAE4C6E
:103EB000AE48914231D100F0F0F842F4002200F017
:103EC000CBF801F4002100F0ECF80221036843F084
:103ED00001030360032200F0C3F801910392012162
:103EE0000291204608210491694600F075F90221EB
:103EF0000191012202924FF480500321009003911E
:103F00000B2204926946204600F066F9002208213F
:103F1000342000F0D5FF34209AE08C4A914224D11D
:103F200000F0BBF842F0804200F096F801F08041CA
:103F300000F0B7F84FF40141036843F00103036058
:103F4000022200F08DF80192012102910322082142
:103F5000049103926946204600F03EF900220521B3
:103F6000522000F0ADFF522072E07A4A914216D101
:103F700000210591426942F010024261002241692C
:103F800001F0100100F08DF84FF4C06100F06FF8FF
:103F900000220A21252000F093FF252058E06F4AD7
:103FA000914213D100F079F842F4003200F054F855
:103FB00001F4003100F075F80C2100F058F80022EF
:103FC0000621262000F07CFF262041E0654A914230
:103FD00040D100F062F842F4802200F03DF801F494
:103FE000802100F05EF8036843F004030360016879
:103FF00001F0040100F055F82021036843F00203AA
:1040000003600222006800F00200059005985848FD
:104010000091019201210291032207210491039250
:10402000694600F0D9F802210191012202924FF471
:1040300080600321009003910722049269464D4855
:1040400000F0CAF800220721272000F039FF2720BE
:1040500000F053FF06B010BD0261002201697047F5
:10406000006800F001000590059800917047036812
:1040700043F0010303600222006800F00100059094
:1040800005980091019201210291032207210491D8
:1040900003926946204600F09FB80021059102690D
:1040A0007047059105990592704770B504462B4AF3
:1040B0002068314D234E90420BD1317806F18C00AF
:1040C000FFF79DF8012231462348FFF782F90020CF
:1040D00028802168234A91420BD1B17806F5096006
:1040E000FFF78DF80122B11C1D48FFF772F900207F
:1040F00068802168144881420DD1317941F29400E1
:104100003044FFF77CF80122311D06F10C00FFF767
:1041100060F90020A88021680C4881420FD1317AD3
:1041200041F698003044FFF76AF8012206F10801D1
:1041300006F14C00FFF74DF910490020088070BDD2
:1041400000000000FC3C0020004C004000780040D3
:104150000861002000100140486100200044004038
:1041600088610020004800400000024030380240D2
:1041700000080240000402408062002088620020A3
:10418000891E012915D94FF4BF73C91A11D071398D
:10419000022982BF4FF48873C91A022909D94FF442
:1041A0000073C91A05D04FF48073C91A01D02039A1
:1041B00001D14FF41652012804BF1046FFF74DBE3F
:1041C000022804BF1046FFF752BE032804BF104662
:1041D000FFF7FCBD704700002DE9F84702460B468B
:1041E000002466480F2101271D68A74007EA05083B
:1041F000B84540F0B8805D68022D18BF122D4FEA17
:10420000840911D1E50802EB850C09F01C05DCF8E6
:1042100020E0D3F810A001FA05F62EEA06060AFA05
:1042200005F53543CCF820504FEA440C03261568B9
:1042300006FA0CF66FEA060E1E7906F003060EEA81
:10424000050506FA0CF6354315605D68012D18BFAB
:10425000022D03D0112D18BF122D10D19568DE68E4
:104260000EEA050506FA0CF635439560556825EA11
:1042700007075D68C5F30015A5402F435760D76851
:104280000EEA07059F6807FA0CF63543D5605D68AE
:10429000EF0068D50025009509F00C090768384E35
:1042A00047F48047076001FA09FE056805F4804578
:1042B0000095009FA70856F8275025EA0E0E314DAD
:1042C000AA4208BF00251DD02F4DAA4208BF0125D4
:1042D00018D02E4DAA4208BF022513D02C4DAA4259
:1042E00008BF03250ED02B4DAA4208BF042509D0D4
:1042F000294DAA4208BF052504D0284DAA420CBF6B
:104300000625072505FA09F545EA0E0546F8275062
:104310006FEA0807224E356807EA050C5D68ED0371
:1043200048BF48EA0C0CC6F800C0756807EA050CDF
:104330005D68AD0348BF48EA0C0CC6F804C0B56818
:1043400007EA050C5D68ED0248BF48EA0C0CC6F8A8
:1043500008C0F56807EA050C5F68BD0248BF48EA77
:104360000C0CC6F80CC0641C0F2C7FF63CAFBDE8EB
:10437000F18702B9090481617047000044380240A6
:1043800008380140000002400004024000080240DA
:10439000000C0240001002400014024000180240CD
:1043A000003C014090F83510022903D0802242657C
:1043B00001207047052180F8351000680268520816
:1043C0005200026000207047704770472DE9F041AD
:1043D00004000F4677D0564E306800F00F00B84208
:1043E00002D200F072F86ED12068524D810712D5CA
:1043F000400703D5A96841F4E051A960207801077E
:1044000003D5A86840F46040A860A968A06821F0BE
:10441000F0010143A9602178C8074CD560680128E4
:1044200002D129688A0305E0022818BF032803D1B6
:1044300029688A0103D446E029688A0743D5A96818
:10444000890840EA8100A860FFF772FA8046A868F0
:10445000616800F00C00B0EB810F2CD0FFF768FA18
:10446000A0EB080041F289318842F0D3032020E01C
:104470002078410705D5AA68E06822F4E05202439B
:10448000AA602178080706D5A968206921F460414F
:1044900041EAC001A96000F057F8AA682649274BF5
:1044A000C2F30312895CC8401860002000F03AFD96
:1044B0000020BDE8F081306800F00F008742D7D2BD
:1044C00000F003F8D4D00120F3E73770316801F031
:1044D0000F01B94270471948194A00681368194911
:1044E000C3F3822206E01548154A0068136815498F
:1044F000C3F34232895CC840704710B50F22026096
:104500000F4A136803F003034360146804F0F004D7
:104510008460136803F4E053C3601268D20802F4A5
:10452000E05202610248026802F00F020A6010BD08
:10453000003C024000380240B05D00081800002036
:10454000083802402C5F000830B5144C606800F059
:104550000C00042802D0082802D01DE0104830BD0D
:10456000226820680023410202F03F0204D525683A
:104570000B49C5F3881003E020680A49C0F388108E
:10458000A1FB0001FCF75AFF2168C1F30141491C5E
:104590004900B0FBF1F030BD024830BD04380240A4
:1045A00000127A000024F400401810F0030308D031
:1045B000C91A1FD3DB0748BF00F8012D28BF20F818
:1045C000022D130030B414461546103928BF20E9D7
:1045D0003C00FAD8490728BF20E90C0048BF40F842
:1045E000042D890028BF20F8022D48BF00F8012DB6
:1045F00030BC7047C91818BF00F8012DCB0728BF81
:1046000000F8012D7047000000B500BF130096466A
:104610009446103928BFA0E80C50FAD85FEA417CD4
:1046200028BF0CC048BF40F8042BC90728BF20F89A
:10463000022B48BF00F8012B00BD00002DE9F84314
:104640000646174684B088469946B80000F0A8FC94
:1046500005001AD0542000F0A3FC040012D00D99DC
:104660000C982563002203920191009002944B461E
:104670003A464146304600F00DF8204600F046F834
:10468000012004E0284600F014FD4FF0FF3005B093
:10469000BDE8F0832DE9F0470A9E8146306B00EBC0
:1046A0008202101FC0084FEAC00A00228C5CB018BA
:1046B00080F83440885C10B1521C102AF6D3089D53
:1046C000002086F84300062D099C88BF062506F1C8
:1046D0004407F5623D6078609846301D00F047FD64
:1046E00006F1180000F043FD3661C5F10705B5611C
:1046F00076620020B860387342464946504600F062
:1047000071FD306004B12660BDE8F0872DE9F0410D
:1047100000F08FF8DFF86854DFF86884E86C401C1C
:10472000E8641426A86A28BBAC62E86C012827D18B
:10473000002706FB07F0404400F00CFD7F1C072F0C
:10474000F7D305F1740000F005FD05F18807384640
:1047500000F000FD284600F0FDFC05F1140000F01B
:10476000F9FC05F1380000F0F5FC05F17400E86291
:104770002F6305E0A86D18B900F08EF828BFAC6271
:10478000A86E401CA8660122E06A696D8240114350
:1047900069654643211D08EB060000F0EBFC00F0C4
:1047A000A4FDA86D08B100F0DCF9BDE8F08138B5D2
:1047B00000F03FF800F051F800F03EF808B100F0CA
:1047C000EDF8A86E401CA866A86A844208D1211D95
:1047D00005F1140000F0CEFC686B401C686307E034
:1047E000E86C401EE864204600F099F900F0A1F959
:1047F00000F07BFDA86D20B1A96A8C4201D100F0C8
:1048000033F831BD80B588B1DFF8E423116F21B1F1
:1048100000F03EF800F053F9FEE7116F491C1167F4
:10482000002100F0B1F900F06CF808B900F042F98D
:1048300001BD044600F040BD68B9E16ADFF8B42369
:1048400014234B43D05830B9686D012202FA01F1AC
:1048500020EA01016965A06A7047DFF8945304B942
:10486000AC6A201D00F0ACBC286F38B1502181F338
:104870001188BFF34F8FBFF36F8FFEE7DFF8781318
:104880004FF080500860BFF34F8FBFF36F8F7047BA
:10489000502080F311887047E06AA96ACA6A904282
:1048A00070473EB5DFF848430FF2503104F19C00E9
:1048B000019000250095002380220FF20D20FFF7C4
:1048C000BDFE502101280ED181F3118800F0F7F8C8
:1048D0004FF0FF30E0660121A1652565BDE8374056
:1048E00000F0A2BC37BD10F1010FFBD181F311889C
:1048F00000F0E5F8FEE7DFF8F802016F491C0167F8
:10490000704770B5DFF8E862306F0024002528B9E1
:10491000502181F3118800F0D2F8FEE700F0CCFCC2
:10492000306F401E3067306F002836D1F06CD8B938
:1049300033E0F068C46800F031F800F008F9E06A8C
:10494000716DDFF8B032012282401143716514228B
:104950005043211D184400F00DFCE06AB16ACA6A98
:10496000904224BF0121316630680028E1D10CB1AA
:1049700000F0DFF8F46D3CB100F014F808B101204C
:104980003066641EF8D1F565306E30B1DFF868121C
:104990004FF08050012500F091F8DBE004F11800A1
:1049A00000F00EBC2DE9F843DFF84472386F0026A2
:1049B00000284FD13C6D641C3C6511D1F96A086830
:1049C00028B1502181F3118800F079F8FEE7F86AE8
:1049D000396BF9623863786E401C786600F0A9F88C
:1049E000F86EDFF8109284424FF0140825D31AE0D5
:1049F000281D00F0E5FBA86A18B105F1180000F0C9
:104A0000DFFBE86A796D012282401143796508FB7A
:104A100000F0291D484400F0ADFBE86AB96ACA6A93
:104A2000904228BF0126F96A086880B1F86AC16817
:104A3000CD6868688442DBD2F866B86AC16A08FB50
:104A400001F059F80020022A07D3012605E04FF0B3
:104A5000FF30F1E7F86D401CF865386E00B10126B3
:104A60007CE0DFF81C21106F10B101211166704746
:104A700010661421506DB0FA80F3C3F11F034B434D
:104A8000DFF87011C85838B9502181F31188BFF38D
:104A90004F8FBFF36F8FFEE7C81800F1080341681E
:104AA00049684160994204BF496841604068C168F3
:104AB00091627047DFF840114FF080500860BFF3FB
:104AC0004F8FBFF36F8F704770B5DFF8B840DFF8D6
:104AD00020511BE0286F401C28676869461EB641BC
:104AE000FFF70FFFF60F8EB900F0E6FB286AC668E5
:104AF000301D00F065FBE86C401EE864686B401EEA
:104B0000686300F0F2FB304600F009F8686B00289B
:104B1000E0D121680129F9D9FFF7CCFFF6E710B5FC
:104B20000446206B00F0C5FA2046BDE8104000F0B6
:104B3000C0BADFF8BC10CA6A106810B94FF0FF3273
:104B400003E0C86AC268D0684268CA667047201D20
:104B500000F036BB00F0C9FB284670BD3046BDE80A
:104B6000F283A86AC16AE06A814207D2224A4FF002
:104B700080511160BFF34F8FBFF36F8F70470000FC
:104B8000445F0020E45F0020F8B5194D2F6D0C46FE
:104B9000A96A0646081D00F013FB30B9A86A696DC2
:104BA000C06A012282409143696516F1010F08D164
:104BB0003CB1A86A011D05F13800BDE8F44000F0E1
:104BC000D9BAA86AF6194660BE42A86A05D2011D84
:104BD000286BBDE8F44000F0DABA011DE86A00F085
:104BE000D6FAE86E864238BFEE66F1BD00000000DE
:104BF000445F0020E45F002004ED00E049444C45A0
:104C00000000000038B584B068461021FEF75EFE53
:104C10004FF48030294C2A4D606000212948A06261
:104C2000A1600120E06160612161A1612162E16216
:104C3000E160216325602046FEF780FE08B100F0A8
:104C400023F900200121009001910290694620463D
:104C5000FEF785FF08B100F017F905B030BD38B593
:104C600086B0044601A81421FEF730FE2468144DD6
:104C7000AC4220D10020009000221348416941F449
:104C800080714161416901F4807100910099009245
:104C90000121036843F0010303600322006800F070
:104CA00001000090009809480191029200210391AF
:104CB00001A9FFF791FA07B030BD0000C0600020E5
:104CC000002001400100000F303802400000024087
:104CD00001B500995C480A294FF6FF7304D10222FE
:104CE00058A1FEF7F0FA03E001226946FEF7EBFA5D
:104CF000009802BD80B500F03DFB00F028F800F000
:104D000053FBFFF77FFF00F0A3FB4FF41650FFF7B4
:104D10005DF8FFF771F8FFF78AF84FF41650FFF7C8
:104D20009CF84FF41650FFF7A2F800F0A7FB474895
:104D300000F009FC46490A684CF6CC40106000239C
:104D400044480360FDF716F9FEF7CAFDFEE700B51B
:104D500093B006A83421FEF7B9FD01A81421FEF78F
:104D6000B5FD002000904FF480333B48016841F0CE
:104D7000805101600021006800F080500090009890
:104D800036480091026842F44042026009220068FD
:104D900000F44040009006A80099069201210222EA
:104DA0000B910C924FF4800104220D910E9264211C
:104DB000022207930F9110921192129200F086FD39
:104DC000022102910F204FF48051019000220491A2
:104DD00003920592032101A8FFF7F8FA13B000BD72
:104DE00010B500681E49884223D11A484168491C01
:104DF000B1F57A7F03D18268521C00218260416044
:104E000040F2F5120168491C9142016006D3104B33
:104E10001A684AF6AA21116000240460114800F0C3
:104E200029F8114800F026F810480188491C018033
:104E300010BD0F4A904203D1BDE8104000F0C6BE3D
:104E400010BD00000D0A000008610020046200206F
:104E5000D0620020DC620020403802400070004038
:104E600000000140786200208062002088620020FB
:104E70000010004001884288491C0180521C818832
:104E80004280491C81807047704700000901020080
:104E900006D51F4A00F00F00104400F8041C7047AC
:104EA0001C4B195470471C4B19684FF6FF02000247
:104EB000114000F4E0600843184908431860704747
:104EC00038B5154B1C68C4F30223C3F10704052C45
:104ED00028BF04241D1D072D34BF0023DB1E012520
:104EE00005FA04F4641E2140994005FA03F35B1EA1
:104EF0001A401143BDE83440C8E7012200F01F0109
:104F0000074BFFE78A40400943F820207047000024
:104F100018ED00E000E400E00CED00E00000FA0510
:104F200000E100E018B5014687B000223620FFF707
:104F3000C7FF3620FFF7E1FF00200090144C154812
:104F4000016841F01001016001A9006800F0100043
:104F50000090009802A8FFF7D0FAFFF7BCFA0E49BC
:104F6000216040F2E73240000C49E260B0FBF1F012
:104F7000401E606000222261A260204600F0D6FA46
:104F800018B9204600F0DFFA00E0012008B010BD9B
:104F9000C8610020403802400010004040420F002D
:104FA0002DE9F8430446FFF7A6FC694FB8684FF0B7
:104FB0000009002508BB07F1180307F1180113F0D9
:104FC000070F4FF470500A4605D0CA1DD208D20010
:104FD000C2F57050081880180838C008C0003A6040
:104FE0007D60B86045600560831A5360106050684A
:104FF0003861F8604FF0004078614FF050087869F0
:10500000044233D194B3083414F0070F1FBF04F1E6
:10501000080004F00704041B14F0070F02D000F08E
:1050200041F8FEE714B3F868A0421FD33E68394642
:105030007068A04223D2306800281CBF3146064663
:10504000F6D11CE0301D02517460084600F05BF898
:105050007168F8683A69401AF860904238BF386160
:10506000786901437160356009F00705FFF749FC75
:1050700015B100F017F8FEE74846BDE8F283B868BE
:105080008642F3D00A683068086002F10809726845
:10509000121B112ADCD3311911F00700D2D000F015
:1050A00001F8FEE788F31188BFF34F8FBFF36F8FCE
:1050B0007047002800D1704738B5A0F10804244D8E
:1050C00061686A695023114202D100F015F8FEE7C9
:1050D000206810B100F010F8FEE791436160FFF71F
:1050E0000AFCE96860684118E960204600F00BF8A6
:1050F000BDE83140FFF705BC83F31188BFF34F8F44
:10510000BFF36F8F704730B511490A4600E01A4669
:1051100013688342FBD35368D418844203D1406898
:10512000C3185360104643681468C518A54208D1D7
:1051300089688C4204D06168CB184360246800E021
:105140000C460460824218BF106030BD00000000B1
:10515000E40000204FF0FF3200F10801826041605E
:10516000C16000F108020261002101607047002166
:105170000161704710B542684A6093688B6094681B
:105180006160916008610168491C016010BD30B523
:105190000A6812F1010F08BF036907D000F1080384
:1051A00000E023465C682568AA42FAD25A684A6041
:1051B00091608B60596008610168491C016030BDD5
:1051C0004368016982689A60836842685A604A68E5
:1051D000824204BF83684B60002202610868401E5F
:1051E00008607047490810B54900A0F120034FF04E
:1051F000807499611A60DC616FF002020FF20D0198
:10520000596140F8242D203810BD00004A494A68F1
:10521000502012F1010F80F31188BFF34F8FBFF3BD
:105220006F8F00D0FEE7FEE73EB54449444B0A6865
:1052300050209A4202D100F078F8FEE70A68414B0C
:105240009A4202D100F071F8FEE73F4A13780193C9
:10525000FF2414701578384C8DF800509DF800002C
:1052600000F050002070072005E09DF800305B0042
:10527000401E8DF800309DF800301D06F5D4000268
:1052800000F4E060A060019810700A6A42F47002B5
:105290000A62086A40F07040086200F05BF8002083
:1052A000606000F0E1FC2948016841F04041016084
:1052B00000F0CEFC00203EBD502080F31188BFF3EB
:1052C0004F8FBFF36F8F1C494A68521C012A4A60F6
:1052D0000AD11F490A68130606D080F31188BFF36C
:1052E0004F8FBFF36F8FFEE770471349486838B997
:1052F000502080F31188BFF34F8FBFF36F8FFEE70D
:10530000401E486008BF80F31188704780B5502068
:1053100000F00BF8FFF746FB18B10D494FF0805035
:105320000860002282F3118801BD80F31188BFF369
:105330004F8FBFF36F8F70470000002000ED00E03B
:1053400071C20F4170C20F4100E400E034EF00E091
:1053500004ED00E0054906480A684FF47A73B2FB91
:10536000F3F35B1E436007210160704718000020C3
:1053700010E000E080B50B48016841F40071016065
:10538000026842F480620260016841F48071016049
:105390000320FFF788FD0020FFF7C4FD00F072FC3A
:1053A000002002BD003C024010B586B001A81421C7
:1053B000FEF78CFA0024244800940168234C41F045
:1053C00004010160026802F00402009200220099C8
:1053D0000092036843F080030360016801F08001DC
:1053E000009100990092036843F001030360016893
:1053F00001F001010091009900924FF4004103680F
:1054000043F002030360006800F00200009000987F
:105410002046FEF7AEFF4FF400410191012200212A
:1054200003910491029201A92046FEF7D5FE0F20B8
:105430000021019002910122039201A92046FEF76A
:10544000CBFE06B010BD000030380240000802401C
:1054500080B50848084903224FF47A73016042601E
:10546000836000F02FFC18B1BDE80140FFF70CBDD0
:1054700001BD00BFD062002000300040D0B586B032
:1054800002A81021FEF722FA26A42348D4E90067D7
:10549000224C20604FF47A70CDE90067642100222D
:1054A000E0606160A26022616261204600F03EF827
:1054B00008B1FFF7E9FC4FF48050029002A92046A2
:1054C00000F002F908B1FFF7DFFC00210091019123
:1054D0002046694600F018FC08B1FFF7D5FC06B07D
:1054E000D0BD00680C49884200D0704780B50022CA
:1054F0000B480092016841F0010101600921006838
:1055000000F00100009000981920FFF7D9FCBDE8D9
:1055100002401920FFF7F1BC0000014004620020A6
:1055200044380240000000000000000038B50400CC
:1055300001D1012032BD00F01FF818B900F018F8B1
:10554000FFF7CFFF0AE00068C16841F00101C160C8
:10555000026842F001020260002070470220687079
:10556000211D206800F01BF901206870002032BD69
:10557000002129702046704704F13805687870478B
:1055800010B50446206801698A0715D5C1688A07E5
:1055900012D56FF00201016101222276806910F0BC
:1055A000030F204602D000F0D4FB03E000F0D2FB52
:1055B00000F087F800202076206801694A0715D599
:1055C000C1684A0712D56FF00401016102222276F8
:1055D000806910F4407F204602D000F0BAFB03E05F
:1055E00000F0B8FB00F06DF800202076206801691B
:1055F0000A0715D5C1680A0712D56FF008010161C5
:1056000004222276C06910F0030F204602D000F079
:10561000A0FB03E000F09EFB00F053F80020207692
:1056200020680169CA0615D5C168CA0612D56FF08F
:105630001001016108222276C06910F4407F2046E3
:1056400002D000F086FB03E000F084FB00F039F8A4
:105650000020207620680169CA0708D5C168CA07FA
:1056600005D56FF0010101612046FFF7B9FB206805
:1056700001690A0608D5C1680A0605D56FF08001E0
:105680000161204600F067FB206801694A0608D5E1
:10569000C1684A0605D56FF040010161204600F05F
:1056A0005BFB206801698A060AD5C1688A0607D5AE
:1056B0006FF0200101612046BDE8104000F04DBBB5
:1056C00010BD204600F04ABB38B500F05CF801D1AF
:1056D000022032BD0120207002226270DFF85001EA
:1056E0002A689368034093600A68002A37D0102A1A
:1056F00037D0202A37D0302A37D0402A2BD0502A12
:105700001ED0602A20D0702A0BD0B2F5805F03D063
:10571000B2F5005F0CD02CE028688168C908C90088
:105720000CE000F02BF82868816841F0770105E073
:1057300000F024F82868816841F48041816018E015
:1057400000F018F8502111E0CA684968286800F094
:1057500098F860210AE000F00DF8402106E00021F1
:1057600004E0102102E0202100E03021286800F050
:105770009AF80EE0CA684968286871E0CB684A6800
:105780008968286897E0054605F1380420780128E3
:1057900070470120607000212170002032BDF0B5FB
:1057A000244C0568244B254E254FDFF898C0A042B5
:1057B00018BFB0F1804F07D0604518BFB84203D082
:1057C000B04218BF98420DD14A6825F070051543C4
:1057D000A04218BFB0F1804F17D060451CBFB8423F
:1057E000B04212D098421CBF174A90420DD0174EBB
:1057F000B0421CBF164A904207D0164EB0421FBF9F
:10580000154A9042154EB04203D1CA6825F440753E
:1058100015430560A0428D68C5620A68826212BFA6
:1058200098420969016301224261F0BD0000000055
:105830008800FFFF0000014000040140000C004010
:1058400000080040000400400040014000440140C6
:105850000048014000180040001C004000200040AB
:1058600010B5036A046A64086400046223F00A0342
:10587000846924F0F00444EA02148461194301624B
:1058800010BD10B5036A23F0100303628369046A34
:1058900023F4704343EA023324F0A004836144EA12
:1058A0000114046210BD826822F07002114341F0BD
:1058B00007018160704710B5846824F47F44214358
:1058C000114341EA0321816010BD00002DE9F84336
:1058D0000646DFF8E8523078C10745D5A86800F0E1
:1058E0000C00042807D0A86800F00C0008280BD191
:1058F0006868410208D52868810335D5706800289A
:1059000040F0B88001204FE17068B0F5803F04D1CD
:10591000286840F48030286011E0B0F5A02F286896
:1059200006D140F480202860296841F4803105E0E8
:1059300020F480302860296821F480212960706873
:1059400068B1FDF7F5FF04462868810300F19280F5
:10595000FDF7EEFF001B6528F6D3032024E1FDF7D9
:10596000E7FF04462868810340F18480FDF7E0FFEB
:10597000001B6528F6D3F0E7FDF7DAFF001B0228CD
:1059800040F2A580E9E7F06870B101213960FDF7C8
:10599000CFFF04462868810700F1C780FDF7C8FFE4
:1059A000001B0228F6D9D8E73860FDF7C1FF04468E
:1059B0002968880761D5FDF7BBFF001B0228F7D9CE
:1059C000CBE70860FDF7B4FF0446686F810773D525
:1059D000FDF7AEFF001B0228F7D9BEE70528286FA8
:1059E00006D140F004002867286F40F0010005E070
:1059F000400840002867286F20F00400286741F223
:105A00008938B06868B1FDF793FF8146286F810738
:105A100000F19880FDF78CFFA0EB09004045F5D31D
:105A20009BE7FDF785FF8146286F810740F18A805B
:105A3000FDF77EFFA0EB09004045F5D38DE7FDF7AC
:105A400077FF001B022840F2908086E7FDF770FF89
:105A5000001B022840F2A3807FE700F0A7F804466D
:105A60002868810140F19F80FDF762FF001B02283A
:105A7000F6D972E73078534F81071BD5A86810F02C
:105A80000C0F09D0A86800F00C0008287FF47BAF49
:105A9000686841023FF577AF2868810703D5F06851
:105AA00001287FF42FAF2968306921F0F80141EA1D
:105AB000C0012960317808070DD570694249002876
:105AC0003FF47FAF01220A60FDF732FF0446686FA2
:105AD00081077FF551AF3078410738D5286C002415
