:020000040800F2
:10000000186201206D6500081D6400081F64000867
:100010002164000823640008256400080000000033
:100020000000000000000000000000006D630008F8
:10003000276400080000000015630008AD62000896
:10004000976500089B6500089F650008A365000888
:10005000A7650008AB650008AF650008B365000838
:10006000B7650008BB650008BF650008C3650008E8
:10007000C7650008CB650008CF650008D365000898
:10008000D7650008DB650008DF650008E365000848
:10009000E7650008EB650008EF650008F3650008F8
:1000A000F765000829640008FB650008FF65000883
:1000B00003660008076600080B6600080F66000864
:1000C00013660008176600081B6600081F66000814
:1000D000236600082F640008356400083B640008AC
:1000E000276600082B6600082F66000833660008A4
:1000F000376600083B6600083F6600084366000854
:10010000476600084B6600084F6600085366000803
:100110004164000857660008476400085B660008F1
:100120005F66000863660008676600086B66000883
:100130006F66000873660008776600087B66000833
:100140007F66000883660008876600088B660008E3
:100150008F66000893660008976600089B66000893
:100160009F660008A3660008A7660008AB66000843
:10017000AF660008B3660008000000000000000041
:10018000B7660008BB6600084D640008BF6600083B
:10019000C3660008C766000800000000CB660008C0
:1001A000CF660008D36600080000000000000000D1
:1001B000D76600080000000000000000DB660008B1
:1001C000DF660008E3660008E7660008EB660008E3
:1001D000EF660008F36600082DE9F04F0FF2A41C4B
:1001E000A1B0DCE90089CDE900892A9DDFF8109CE7
:1001F000049100248DF843500D944FF0FF3882464F
:1002000016461F460FE0B3462C461BF8011B049808
:10021000D0470028049000F0A2800D98401C641E76
:100220000D90F2D176193078252808D100210022CE
:100230000791089209910A920B910C920DE06A467F
:100240004146304600F0F4FF050001D10D98A1E0D1
:10025000D9D50125E6E741F0010116F8010F202864
:10026000F9D023280CD02B2804D02D2805D03028F5
:1002700009D076E041F00201EFE741F00401ECE73C
:1002800041F00801E9E741F01001E6E70F9209E0CB
:100290000F98484505DA00EB800402EB4402303A3F
:1002A0000F92761C3278A2F130000A28F0D3307811
:1002B0002E2818BFCDF8388022D116F8010F2A2831
:1002C00007D138683860761C50F8042B38600E92DD
:1002D00016E02D280CBF761C002000220E920AE0AA
:1002E00040B90E9A4A4505DA02EB820403EB440357
:1002F000303B0E93761C3378A3F130020A2AEFD3F9
:10030000ADF8401021A0317800F09CFF08B116F83C
:10031000010B8DF842009DF84200682804D1307826
:1003200068280AD1622105E06C2804BF30786C2867
:1003300003D171218DF84210761C12A806903A461E
:1003400016F8013B02A9504600F064F838B912AA29
:1003500002A9504600F0CAF900287FF564AF404674
:1003600018E02A2892D13A683A6052F8040B3A60B1
:1003700000280F9003D540420F9041F00401761CF5
:1003800095E700000000000000000000686A6C743F
:100390007A4C000021B0BDE8F08F622820D0682898
:1003A00011D06A2803D06C2827D0712825D108687D
:1003B000C01D20F007000860D0E900230830086065
:1003C000194610467047002A0A680A60106803D070
:1003D000121D0A6000B217E0121D0A6080B217E019
:1003E000002A0A680A60106803D0121D0A6040B231
:1003F0000AE0121D0A60C0B20AE0002A0A680A6018
:10040000106803D0121D0A60C1177047121D0A60E0
:10041000002170477CB50D4611461C462E69B4F18B
:10042000250200F051811C3A00F08680121F022A3A
:1004300040F282800E3A00F00B81521F5AD0093AE6
:100440007AD0921E16D0521E35D0521E022A73D96F
:10045000121F30D0521F00F09A80521E4AD0521EF6
:1004600000F0E480D21E00F00181921E42D0D21E24
:1004700040D02FE195F83A406C2C09D06869421CB5
:100480006A610A680A6052F8043B0A6033542BE13F
:100490000A680A6052F8043B0A6000930022019245
:1004A0004FF0FF332B636A46294600F09AF9002883
:1004B00040F11A8105E195F83A000122FFF76DFF3E
:1004C000C5E900010023994204DA6869411C6961A9
:1004D0002D220DE0288F810704D56869411C6961D0
:1004E0002B2205E0C00722D56869411C69612022E2
:1004F00032541CE095F83A000022FFF74EFFC5E9A0
:10050000000195F83800010711D5D5E90023002036
:10051000834208BF82420AD044F02000782806D1E6
:10052000686930213154401C421C6A6134542146B0
:1005300068693044E86087E00868C01D20F0070063
:100540000860D0E9002308300860C5E90023D5E938
:100550000001C80F04D06869411C69612D220DE0BB
:10056000288F810704D56869411C69612B2205E049
:10057000C00704D56869411C69612022325468694A
:100580003044E8602146284600F03AFAACE005F134
:100590003A02507820B14FF0FF340FF6343074E057
:1005A0001078622808D0682824D06A2812D06C28D5
:1005B0002ED071280ED02BE00A680A6052F8040B86
:1005C0000A6020B94FF0FF340FF61C305DE0E96A95
:1005D000017089E00A680A6052F8040B0A6020B9C9
:1005E0004FF0FF340FF600304FE0EA6AD317C0E94E
:1005F000002379E00A680A6052F8040B0A6020B907
:100600004FF0FF340FF6E0203FE0E96A01806BE035
:100610000A680A6052F8040B0A6020B94FF0FF34F0
:100620000FF6C42031E0E96A01605DE00A680A6003
:1006300052F8040B0A60002120F0000221F0FF3381
:10064000C5E90023EE607821284600F02DF94BE043
:100650006C2285F83A200B680B6053F8042B0B6072
:1006600052BB4FF0FF340FF6B4200EE095F83A205D
:100670006C2AF0D00868086050F8044B0860EC6001
:100680003CB94FF0FF340FF6782000F003FE201A3B
:1006900076BD2E6B002E04D5204600F01BFE0446CE
:1006A00008E032460021204600F03EFE002814BF3C
:1006B000041B3446AC6117E0294600F092F800288C
:1006C00012D54FF0FF3076BD6869411C6961252263
:1006D000325409E06969481C68612522725421007E
:1006E00002D0431C6B613454002076BD2DE9F041EB
:1006F0000E4605469046726B7069316AB46A121AEA
:10070000B069521A716A121AF069521A121A96F8DE
:100710003800141B41070DD4002C0BDD2746B068B0
:100720002021A8470028B06057D0F06A401C7F1EE7
:10073000F062F4D1736942463146284600F0B0FCBD
:1007400000284AD1376A002F0ADDB0683021A84757
:100750000028B06041D0F06A401C7F1EF062F4D1E6
:10076000B369F2683146284600F09AFCA8BB776A64
:10077000002F09DDB0683021A847B06068B3F06A87
:10078000401C7F1EF062F5D1F068B169F369421830
:100790003146284600F084FCF8B9B76A002F09DD1D
:1007A000B0683021A847B060B8B1F06A401C7F1E25
:1007B000F062F5D196F8380041070BD5002C09DD21
:1007C000B0682021A847B06038B1F06A401C641EB0
:1007D000F062F5D10020BDE8F0814FF0FF30BDE8B8
:1007E000F0812DE9F8470D46A3B02F6B002F064688
:1007F000904648BF6FF000470FF63C1400F0C0FD74
:10080000D4E90023696B4018CDE90123812828BF72
:100810004FF0FF3042D20024002F33DDD8F8001013
:1008200001AA684600F006FD8146B9F1000F38D4F0
:10083000D8F8000010B9B9F1010932D44F4521DBD5
:100840006869484481280AD30021696303AA2946BC
:100850003046FFF74BFF040014D40020686103AB5F
:10086000D5F814A04A46694603EB0A0000F092FD51
:10087000CA44C5F814A058F8040B002818BFA7EB09
:100880000907C9D14CB903AA29463046FFF72EFF04
:10089000044614B9002068616863204624B0BDE8AE
:1008A000F0874FF0FF34F8E72DE9FC4707468C4608
:1008B0003E69BCF16F0F08BF082405D04CF0200042
:1008C000782814BF0A2410243C25D7E90023BCF162
:1008D000640F18BFBCF1690F9046994606D10021FC
:1008E0008B4203DAD8F1000869EB49094FF0000A9E
:1008F000D14508BFD0451FD1386BE8B9082C4BD182
:1009000097F83800010747D530203B2586F83B0093
:1009100042E000280ED597F8380000F014001028A7
:1009200008D17B6B7969386A5B1A1B1A9A1A002AFC
:10093000C8BF3A62BDE8F3878DF800C0404649461B
:100940002246E31700F07AFD3032D0B26D1E3A280D
:10095000019504DB9DF80000A0F151018A18725541
:10096000404649462246E31700F068FD8946804626
:10097000D14508BFD04503D0F86871198842DDD34E
:10098000082C09D197F83800010705D5705D30288B
:1009900002D06D1E30207055C5F13C02BA6171194C
:1009A000F960386B8242B4DA821A3A624FF6EF701D
:1009B000398F01403987BDE8F3872DE9D0430646DA
:1009C0000F4614464FF00008DFF8389412E0E007B5
:1009D00007D542464B463046394600F047FE0646AC
:1009E0000F464046494642464B4600F03FFE6410E3
:1009F00080468946002CEAD130463946BDE8D0838E
:100A00002DE9F34F054641F020048DB0D5E900896A
:100A1000612C02AE09D0286B002848BF062003D401
:100A200008BF672C01D101202863D5E900235800B5
:100A30004015401C0ED119030CD00320A8619DF86D
:100A4000381061391A2902D20FF2F46111E00FF265
:100A5000F4610EE059004915491C0FD118030DD15E
:100A60000320A8619DF8381061391A2914D30FF2B8
:100A7000DC61E868032200F08DFCD3E1194621F027
:100A80000043B3F5801F10460DD20027BB4208BFBC
:100A9000BA42019703D111E00FF2AC61E9E701AA74
:100AA00000F0B6FE0AE0DFF8607307EB1352DFF8E0
:100AB0005C3301921940DFF858331943C5E900014E
:100AC000612C0ED1E86830210170821CEA609DF82B
:100AD000381061290CBF7821582141706869801C49
:100AE0006861D5E900AB2BF0004300202AF000023A
:100AF000834204BF8242002300F05B81612C40F0FE
:100B0000AA80286B002847BF21210091401C00903B
:100B1000009F7F1C404649460022002300F0B0FEA3
:100B2000D94601998DF8082038BF89F00049091F7E
:100B3000002FD04601910DF1090040F34981B349DE
:100B4000DFF8D0B20C910646404649460022002309
:100B500000F0AEFE80F03B814800400D00F11C0229
:100B600011D0002A0FDD40F2FF70824205DB09F050
:100B7000004040EA0B01002013E00C98014041EADC
:100B8000025140460DE029F00043002028F0000209
:100B9000834208BF82420FBF40461C22404600F0FD
:100BA0009FFE8046894600F039FFFF1F002F044654
:100BB00009DD00F051FF02460B464046494600F071
:100BC0005DFF80468946F01D072104E004F00F0216
:100BD00000F8012D2411002C01DD491EF6D5491E17
:100BE0005CBF002200F8012DF9D5ECE00020194689
:100BF00002AA0A4400E05B1E12F80149491E844221
:100C0000F9D00F2804D10DF10900425C521C425466
:100C1000002904D50198001D02AE5B1C0190591EED
:100C200012D49DF838007218A0F13A07147804F134
:100C300030085FFA88F43A2CA8BFB844491E02F87D
:100C40000189F3D58DF83800286B002840F1B08079
:100C5000591E2963ACE0404649460022002300F0BB
:100C60000FFE019938BF89F0004947F29750414380
:100C7000694A91FBF2F20192D2F1070204DD40468B
:100C80004946FFF79AFE0AE0524200206349FFF707
:100C900094FE02460B464046494600F061FF8046FE
:100CA000662C286BDFF878B106BF019F0A3706274C
:100CB0003F18142FC8BF142730208DF8080089462C
:100CC0000DF1090000E03046002F34DD06464046B5
:100CD000494601F069F801460A4606F10803042076
:100CE0000A26B2FBF6F606EB860EA2EB4E02303277
:100CF00003F8012C0A22B6FBF2F202EB820EA6EBFD
:100D00004E063036401E03F8026DE9D1083F002F31
:100D100003F10806D7DD084601F05AF802460B46F3
:100D20004046494600F0AAFE00225B4600F09EFCC9
:100D300080468946CBE70DF10901401A0DF10906FD
:100D400004E00199491E401E0191761C317830293A
:100D5000F7D0662C02D10199491C03E0652C0CBF29
:100D6000012100212B6BCB189842B8BF431E002BEA
:100D70001ED4834204DAF05C3528A8BF392000DA9B
:100D800030201946721E02EB010800E05B1E18F8C5
:100D90000199491E8145F9D0392802D1705C401C67
:100DA0007054002904D50198401C16465B1C019024
:100DB000019800B200901BB29DF8381032462846C8
:100DC00000F034F82EE0C61D002F3FF7BDAE3046D0
:100DD0000DF10901401A009903468842C8BF0B462D
:100DE000002B0DF109063FF52FAF8342BFF6FEAE93
:100DF0000DF10900C15C07297FF7F8AE0F20F6E678
:100E0000CBCCCC0C0000244002FCFFFFFFFF0F8086
:100E10000000E03F0000F07FA08601000000F03FEE
:100E200084D797410FB0BDE8F08F00002DE9F84757
:100E300083B006468A461746984600F0FDF9B8F199
:100E4000000F406A356B90F8009002DC4FF001080B
:100E5000BFA74AF02000BDF93040662808BF641CD7
:100E600015D0672840F0848014F1040FC0F286800A
:100E7000AC4280F2838096F83800641C010702D4EB
:100E8000A845B8BF454620B22D1A48BF00250FFA25
:100E900084FAF068B169BAF1000F25DC4A1C3023EE
:100EA0004354002D03DC96F83800010703D5F068A1
:100EB00000F80290521C15EB0A0FB8BF6C4220B22A
:100EC000441941424445B8BFA046B26171620FFA6D
:100ED00088F5F561F068B3692A463946184400F090
:100EE00059FA641BB462C4E022B29045084417DA90
:100EF0004246394600F04EFAB0694044B061AAEB70
:100F00000801002D716203DC96F838100A0705D538
:100F1000F16801F80090F069401CF061B562A8E04A
:100F2000394600F037FAB069002D5044A8EB0408A8
:100F300003DC96F838100A0703D5F16801F8009031
:100F4000401CB0610FFA88F08542F368B069B8BF01
:100F5000A8460FFA88F207EB0A01184400F01AFAC3
:100F6000B1690FFA88F00144B161281A706280E01B
:100F7000BAF1610F14D14FF0700A16E0A84504DAF7
:100F800096F838100A0758BF45466D1E48BF002521
:100F9000BAF1670F14BF4FF0450A4FF0650A04E03D
:100FA000BAF1410F08BF4FF0500AB169F368481C0D
:100FB000B061002D17F8012B5A5403DC96F8381055
:100FC0000A071BD5F168431CB36101F80090002D9E
:100FD00014DDA8F101080FFA88F039468542F76858
:100FE000B8BFA8460FFA88F2F81800F0D3F9B06934
:100FF0000FFA88F108446D1AB0617562F068B16942
:101000000844002C80F800A003D42B224270811CDD
:1010100003E02D2141706442811C00206A460AE0F1
:1010200023460A2493FBF4F404EB8405A3EB450365
:1010300002F8013B401C24B2002CF1DC012806DC44
:101040004AF02002652A04BF302201F8012B48B97A
:10105000302001F8010B07E0401E1DF8003030334E
:1010600001F8013B0028F7DCF268B0691044091A66
:10107000F16196F8380000F0140010280DD1726963
:10108000B169706A8A18F1698218B06A8A18821880
:10109000706B8242BCBF821A326204B0BDE8F08736
:1010A000F8B505460E4617461C46002074B117F8E1
:1010B000011BB068A847B06030B1F06A401CF06214
:1010C0000020641EF3D1F2BD4FF0FF30F2BD0000EE
:1010D0007072696E74665F733A20256E206469735E
:1010E000616C6C6F776564007072696E74663A202B
:1010F00062616420256E20617267756D656E740093
:101100007072696E74665F733A2062616420257341
:1011100020617267756D656E740000007072696E93
:1011200074665F733A2062616420256C732061727B
:1011300067756D656E74000000000000000000001F
:101140006E616E004E414E00696E6600494E46006B
:101150003000F0B40246106895681318506803EB2D
:101160005004C0071DD54D441BE013F8017B05F862
:10117000017B491EF9D1A0B1B60813F8011B06F096
:101180000306032E08BF13F8016B01EB0621494249
:10119000801C294405D011F8016B05F8016B401E35
:1011A000F9D1A3420ED013F8016B16F0030104BF6E
:1011B00013F8011BC91C30090F28DAD113F8010BF1
:1011C0000F30D6E7F0BC02F10C0070471B487047A7
:1011D00070B45368D418042B09DA41B1057804F8C7
:1011E000015B10F8016B16B15B1C491EF3E75360FD
:1011F00070BC704738B514461D4661B1FFF7E8FF73
:1012000061686A6B204690476FF00102811A02D034
:10121000491E01D001E003E005E00021616032BD1C
:101220006FF0010032BD4FF0FF3032BDDA6B104776
:10123000024BDFE7014BF9E70148704754000020FB
:101240001C0000200278C9B28A421AB11CBF10F8F3
:10125000012FF9E718BF0020704730B4002513E0D4
:1012600050F8042BD30744BFA9F101039A18091FB2
:10127000042942F8045BFAD213468C0744BF158058
:101280009B1CC90748BF1D7050F8041B0029E7D1FB
:1012900030BC704780B500B906A005490B681BB18A
:1012A00022220021984701E000F09FFD222002BD8C
:1012B00014520120636F6E73747261696E742068DA
:1012C000616E646C65723A20626164206D6573734F
:1012D0006167650000F10103810704D010F8011B6C
:1012E000820781B1FAD10268A2F10131914311F074
:1012F000803104BF50F8042FF6E709BAB1FA81F142
:1013000000EBD100401CC01A7047B1F5807F02D3BA
:101310004FF0FF3070470170012070470078401E89
:101320008041C043C00F7047C9B2830706D0521E28
:1013300022D310F8013B9942F7D11FE0083A13D3AA
:1013400002F1040241EA012141EA014150F8043B63
:10135000121F21BF4B40A3F1013C2CEA030C1CF0EF
:10136000803FF3D0C9B2001F083210F8013B521E73
:1013700028BF91EA030FF8D818BF0120401E70471C
:1013800080B5FFF723FF006C02BD0268531C0360A9
:101390001170704762B38B0708D0521E11F8013BE1
:1013A00000F8013B00F024808B07F6D1830740F062
:1013B000208000BF103A07D330B4B1E83810103A9B
:1013C000A0E83810F9D230BC530724BFB1E80810A8
:1013D000A0E8081044BF51F8043B40F8043BD20792
:1013E00024BF31F8022B20F8022B44BF0B78037086
:1013F0007047121F17D35B0009D151F8043B20F846
:10140000023B1B0C121F20F8023BF6D20BE051F8F6
:10141000043B00F8013B1B0A20F8023B1B0C121F87
:1014200000F8013BF3D238BF121D521E24BF11F841
:10143000013B00F8013BF8D870470000BBBBE1B1AD
:10144000B2F5803F80F07E80022A1ED98C46B1FB27
:10145000F2F102FB11C31B0443EA1043B3FBF2FC9D
:1014600002FB1C3380B240EA0343B3FBF2F002FB01
:10147000103240EA0C4000237047022A05D9844606
:10148000B0FBF2F002FB10C270474AB105D100F088
:10149000010249085FEA30007047002200237047CC
:1014A00000F0A6BC0B000200002100207047904213
:1014B00071EB030CF6D3B3F5803F2FD2F0B5B3FA3E
:1014C00083F7B1FA81F4A7F10F0E3D1B5340CEF123
:1014D000200602FA0EF2F3415340B5F10F0746D849
:1014E0000F3C2C444140C4F12006A040F141414052
:1014F000B1FBF3F603FB1611A2FB0645001BA94145
:1015000002D2761E8018594180EA010221FA0EF3B8
:1015100062FA0EF200215A403046F0BD30B4B1FB01
:10152000F3FC03FB1C11A2FB0C45001BA94103D2D9
:10153000ACF1010C8018594130BC02460B466046A4
:1015400000217047B2F1807F65D3F0B5B2FA82F71F
:10155000B1FA81F4C7F10F063D1B22FA06F307F139
:10156000110EF24120355A40B5F10F07B8D941406C
:10157000C4F12006A040F1414140B1FBF3FC03FB64
:101580001C11A2FB0C45001BA94103D2BCF1010CAC
:10159000801859410F2F12D30F3FC90341EA504120
:1015A000B1FBF3F603FB1611A2FB0645D4EBC030EA
:1015B000A94102D2761E8018594146EACC3C07B3B5
:1015C0004140C7F12006B840F1414140B1FBF3F67C
:1015D00003FB1611A2FB0645001BA94102D2761E91
:1015E0008018594180EA010221FA0EF3C7F1200464
:1015F00062FA0EF20CFA07F05A402CFA04F130436A
:10160000F0BD80EA010221FA0EF3002162FA0EF227
:1016100060465A40F0BD8C46B1FBF2F102FB11C3AB
:101620001B0243EA1063B3FBF2FC02FB1C331B02F8
:101630004CEA002043EA1063B3FBF2FC02FB1C33CC
:101640001B024CEA002043EA1063B3FBF2FC02FBEE
:101650001C331B024CEA002043EA1063B3FBF2FC8C
:1016600002FB1C324CEA002000237047B0B581EA2F
:10167000030C0CF0004C40F2FF7515EA11541DBF2D
:1016800015EA1357AC42AF4239E0E41923EA455357
:1016900043F48013C90241F0004141EA505EC702A1
:1016A0001100A7FB020200284FF00000EEFB012012
:1016B0004FF00001E3FB072118BF42F00102401880
:1016C00000214941E3FB0E01A4F580640F0302D21F
:1016D00052004041494154F101046CDD470872F168
:1016E000004250F1000051EB0451A1F580115CBFA4
:1016F00041EA0C01B0BD4CEA05510020B0BD05EA3D
:101700001357AC4214BFAF4241E050EA410E1CBF38
:1017100052EA430E02E061460020B0BD24423C4440
:101720001BD15FEA070EF6D0090302BF0146002075
:10173000AEF1140EB1FA81F7AEEB070401FA07FE21
:101740000C37C7F1200100FA07F7C8404EEA000E37
:1017500023EA455343F48013A2E733F00043B3FA7E
:1017600083F704BFB2FA82FE77440B3FE41BB7F164
:10177000200E2FBF02FA0EF3BB40C7F1200E22FA53
:101780000EFE38BF43EA0E03BA40641C82E750EAFB
:10179000410E14BF52EA430E6FF000014FF40017E0
:1017A00017EB430F8ABF194617EB410FB5E74CEA19
:1017B00005510020B0BDD4F10104B4F120070FDAC7
:1017C000C4F12007520828BF42F0010210FA07F5C1
:1017D00001FA07F7E1BF2A43E0403843E1400FE058
:1017E000352C98DCC7F1200452EA400220FA07F2B7
:1017F00018BF42F0010231FA07F0A1400A4300216C
:1018000072F1004250F1000051EB0C01B0BD00003C
:1018100010B5144600F002F8226010BDC1F30A535F
:1018200043B14A0012F5001F28D2A3F2FE32A1EB09
:101830000251704750EA410C20D001F0004C31EACF
:101840000C01B1FA81F204BFB0FA80F3D2180B3A5E
:10185000B2F120032CBF00FA03F1914041EA0C01E0
:101860003EBFC2F1200C20FA0CF3194390405242C3
:1018700040F2FD33D21A01EB03517047002270474A
:101880004FF4001C1CEB410F94BF1CEB430F09E00D
:1018900041EA030C50EA4C0C52EA0C0C03D2994278
:1018A00008BF9042704714BF8B42824270470000CD
:1018B0004FF4001C1CEB410F94BF1CEB430F09E0DD
:1018C00041EA030C50EA4C0C52EA0C0C03D28B4256
:1018D00008BF8242704714BF99429042704700008F
:1018E000124254D440F2FF7C1CEA11530FD06345DE
:1018F00031D09B1863453CBF01EB0251704701F0AA
:10190000004141EA0C510020AFF30080704750EADB
:10191000410320D001F0004C91EA0C011CD0B1FA37
:1019200081F30B3B9A420DD9D21A994051EA0C012E
:10193000C3F1200C20FA0CFC61449840531C40F287
:10194000FF7CD7E7914041EA0C01C2F1200C20FA5C
:101950000CF3194390407047B0FA80F31533202BF5
:10196000E0D3202AEED3203A203B9A4209D9D21A5A
:1019700000FA03F141EA0C010020531C40F2FF7C05
:10198000B8E700FA02F141EA0C0100207047524228
:1019900040F2FF7C1CEA11530DD06345DBD0B2EB63
:1019A000030C3CBFA1EB025170470CF1010221EA8C
:1019B000035141F4801150EA410CCCD001F0004CAD
:1019C000352A27DC30B481EA0C01B2F1200309DAB0
:1019D000C2F12003044601FA03F5D0402843D14068
:1019E0009C400CE0C3F12002450020FA03F418BF2C
:1019F00044F0010421FA03F091400C43002174F1FA
:101A0000004550F1000051EB0C01244230BC7FF442
:101A10007BAF70476146002076E70000C1F30A53B0
:101A200040F2FE329B1A14DDD3F120034FEAE1723B
:101A300008DDC90241EA505141F00040D840801809
:101A40005040704703F2E13010B1D24382F00040C1
:101A50007047002070470000C11768B14840401A25
:101A6000B0FA80F29040D21CC907C2F5846241EA04
:101A7000025202EBD02140057047000070B44FF0D5
:101A8000004591EA030F40F1B5816B40841A71EB78
:101A9000030603D2001BB141121973414FF4001C1D
:101AA0001CEB410F34BF7CEB430442E00C0DA4EB74
:101AB0001356352E4FDC45EAC323DB0A45EAC12124
:101AC000C912B6F120050DDD63FA05F6EB4086EA92
:101AD0000305124218BF45F00105C01851F100017D
:101AE0000CD213E062FA06F5F2405540F3415A4039
:101AF000B340F3405A408018594107D349085FEA80
:101B000030005FEA350528BF45F0010501F5801179
:101B1000420875F1004250F1000041EB04514E00C3
:101B200016F5001F70BC38BF70470020090D09056D
:101B300070471CEB410F10D252EA43060BD0BCEBAE
:101B4000410F05D80C0DAB43661E342EB6DD02E006
:101B5000AB438018594170BC704770BC704700009F
:101B6000F0B540F2FF7581EA030C0CF0004C15EA69
:101B700011541DBF15EA1357AC42AF42E5E0BC411A
:101B8000C1F31301C3F31303801A994143F4801383
:101B900004D2641E4000494180185941C90241EAFB
:101BA0005051B1FBF3F603FB1611A2FB0675D7EB00
:101BB000C020A94102D2761E80185941C90241EACB
:101BC0005051B1FBF3FE03FB1E11A2FB0E75D7EBC8
:101BD000C020A94103D2AEF1010E801859418902FB
:101BE00041EA9051760546EA8E2EB1FBF3F603FBEF
:101BF0001611A2FB0675D7EB8020A94102D2761EF2
:101C000080185941C90241EA50514EEA060EB1FB13
:101C1000F3F603FB1611A2FB0675D7EBC020A94112
:101C200002D2761E80185941C90241EA5051B1FBD7
:101C3000F3F703FB1711A2FB0735D3EBC020A94133
:101C400067F100070CBF004247F0010766F3D52794
:101C50004FEA1E31B80814F5806412DDBD0775F136
:101C6000004250EB0E5051EB045111F5801F5CBF48
:101C700041EA0C01F0BD4CF07F6141F0E0410020F1
:101C8000F0BDBD076D0840EA0E5041F48011D4F15B
:101C90000104B4F120060ADAC4F120060200E04093
:101CA00001FA06F3E1401843B24015430EE0342C2C
:101CB00013DCC6F1200445EA40056D0820FA06F25F
:101CC000154321FA06F0A1400D43002175F10042B1
:101CD00050F1000051EB0C01F0BD00205FEA0C0157
:101CE000F0BDCFB992185B41B3FA83F704BFB2FAE3
:101CF00082F6BF190B3FB7F120062FBF02FA06F399
:101D0000BB40C7F1200622FA06F638BF3343BA407B
:101D10001CB1E419641E33E77F4231F00041B1FA8F
:101D200081F404BFB0FA80F6A4190B3CB4F120068C
:101D30002FBF00FA06F1A140C4F1200620FA06F6F2
:101D400038BF3143A0403C1B1AE7AC421ABF05EA3A
:101D50001357AF4212E050EA41061CBF52EA430655
:101D6000BFE750EA4107304661461CBF41EA0551D2
:101D7000F0BD52EA430C08BFC143F0BD00204FF450
:101D8000001616EB410F98BF16EB430F08BF16EB7A
:101D9000410F24BFC14305E016EB430F0CBF614662
:101DA0004CEA0551F0BD0000400D491840EA812081
:101DB0000CD2490DA1F58061491C40F0004005DBC3
:101DC000D1F11F0154BFC840C017704700207047B1
:101DD000014648B1B0FA80F18840C91CC1F5846160
:101DE000090501EBD02140057047012000F0B8B88B
:101DF00070470000841A71EB030604D26E40001B8A
:101E0000B141121973414FF4001C1CEB410F34BF58
:101E10007CEB430683E00C0DA4EB1356362E00F347
:101E20007C80012E45EAC32341DC43EA525312BFB2
:101E3000D20292025B08240545EAC12141EA5051D1
:101E4000D2EBC020994125D407D1B0FA80F610FA20
:101E500006F162D00020203608E0B1FA81F6B140E8
:101E6000C6F1200220FA02F21143B0404FEAF474A6
:101E7000B4EB465434F001064FEA74040AD8D6F5A0
:101E80000016760D04F00044F04061FA06F250406E
:101E9000F1404840C00A40EA415021F0004128BFCB
:101EA0005FEA500550F1000044EBD12135E0DB0A38
:101EB00045EAC121C90AB6F120050EDD42EA024217
:101EC000120CC5F1200603FA06F6EB4042EA0605BD
:101ED0006D42984161F100010DE062FA06F5F240B1
:101EE000554063FA06FC82EA0C02F3405A406D4208
:101EF000904161EB030111F4801F05D1641E62055E
:101F000002D06D004041494121F48011430875F130
:101F1000004350F1000041EB045170BC70471CEBD2
:101F2000410F15D223F0004352EA43060BD04FEA8B
:101F30004C0CBCEB410F04D80C0D661E342EB7DDE3
:101F4000EBE7801A994150EA410608BF0021E4E717
:101F500008BF1CEB430F28BF6FF00001DDE7000056
:101F600080B5AFF30080024A11001820ABBEFBE73A
:101F70002600020040F20121401A0AD0401E0AD079
:101F8000401E0AD0801E0AD04FF48E71401A08D02D
:101F900009E03C207047102070471E207047082041
:101FA0007047062070470020704740F20121401A18
:101FB0000AD0401E0AD0401E0AD0801E0AD04FF41C
:101FC0008E71401A08D009E03F2070472D207047DD
:101FD0002C20704718207047092070470020704758
:101FE00010B502464FF6FF700FF6D03307E012F837
:101FF000014B4440E4B233F8144084EA10200C460C
:10200000611EA4B2002CF2D110BD70B54FF0FF35A7
:10201000DFF8404B06E0204600F0DEFF0546204694
:1020200000F01EFF204600F0F1FEDFF82C1B2046DA
:1020300000F031FF0028F2D1002DECD4204600F052
:10204000CBFF2E460546B542E9D1A5F6756063285B
:10205000DFF8084B38BF012134D3A5F6E5406328EB
:1020600038BF02212ED3A5F65530812838BF032171
:1020700028D3A5F61520772838BF042122D3A5F64A
:102080009900632838BF05211CD3A5F20970632885
:1020900038BF062116D3A5F27950812838BF072111
:1020A00010D3A5F23940772838BF08210AD3A5F20A
:1020B000BD20632838BF092104D3A5F22D1077284D
:1020C00002D20A21217403E00A2D3CBF0B202074A8
:1020D0000FF6B02001F0A6F8217C0FF6C020BDE875
:1020E000704001F09FB8F8B5DFF8700ADFF8704A69
:1020F000017CDFF8700A21700222627005220168FB
:10210000C94301F00F01A170E01C0FF6A821FFF7F1
:1021100041F9A0780A26012804F6AC7539D10820C7
:10212000207200200CE000F08BF840F20122431CEA
:10213000CA810B743C223F23401C4A828B8200B22E
:10214000217A8842EFDBE189012001F069FA082059
:10215000607240F20227002008E000F079F81023B6
:10216000421C0A71401C2D2200F065F8617A8842F9
:10217000F3DB00F05BF80020A072032129704FF61A
:10218000FE60FE22688000216A702971E980298141
:10219000F1BD022849D10420207200200CE000F09B
:1021A0004FF840F20522431CCA810B740822182301
:1021B000401C4A828B8200B2217A8842EFDBE1899F
:1021C000012001F02DFA0420607240F20327002064
:1021D00008E000F03DF81E23421C0A71401C2C222E
:1021E00000F029F8617A8842F3DB00F01FF86420E0
:1021F000A07240F2213700200EE016FB00F12144CE
:1022000001F6AC7103220A704A700623421C0A715F
:10221000401C092200F00FF8A17A8842EDDB6988A2
:10222000BDE8F440032001F0FBB9F1BDB4F8DE17BE
:10223000022001F0F5B94F80CB800A8100B27047CF
:1022400016FB00F12144012202230A734B737047ED
:1022500016FB00F1214401F2DC7102220A704A707F
:1022600070472DE9F84FDFF8F808DFF8FC2881788F
:102270000A2346240129DFF8F458DFF8F46869D10D
:102280004FF0000C00F10E0B29E004FB0CF74FF0AF
:10229000230E06F807E006F101094FF0010A09F8DC
:1022A00007E000F10D0806F1020E0EF807A003FB8F
:1022B0000CFE06F1030A18F80E900AF8079006F1D2
:1022C00004093BF80E8009F8078000F1100A06F1B6
:1022D00005081AF80EE008F807E00CF1010C077A7F
:1022E000BC45D2DB00270FE000F0D1F89CF8DDE719
:1022F00008F806E00CF2DE7C05F1040EBCF8009054
:102300000EF8069000F0BCF8467AB742ECDB0025E8
:10231000867AB5426ADA04FB05F62327975502F15F
:10232000010E4FF003080EF8067002F1030E971C21
:1023300007F8068003FB05F707446D1C97F8ADCF3F
:102340000EF806C000F093F802F1050EBF780EF803
:102350000670DDE7022969D14FF0000C00F10E0B89
:1023600029E004FB0CF74FF0230E06F807E006F116
:1023700001094FF0010A09F807E000F10D0806F124
:10238000020E0EF807A003FB0CFE06F1030A18F874
:102390000E900AF8079006F104093BF80E8009F840
:1023A000078000F1100A06F105081AF80EE008F897
:1023B00007E00CF1010C077ABC45D2DB00270FE0E7
:1023C00000F065F89CF8DDE708F806E00CF2DE7C2A
:1023D00005F1040EBCF800900EF8069000F050F8DD
:1023E000467AB742ECDB0025867AB5421EDA04FB5A
:1023F00005F62327975502F1010E4FF003080EF85A
:10240000067002F1030E971C07F8068003FB05F720
:1024100007446D1C97F8ADCF0EF806C000F027F802
:1024200002F1050EBF780EF80670DDE7DFF82C47E5
:10243000002200230025002684E86C004D23227C26
:102440006370303206232270E37054222571092311
:10245000A270637105224578E171A571C11CDFF896
:102460001407FEF797FF6673A673BDE8F18F07F6B2
:10247000AE7702F1040CB7F800800CF806807047C4
:1024800005F105089CF802C008F806C0704704FB77
:1024900007F64FF0230C05F806C005F101084FF0D0
:1024A000020908F806C005F1030805F1020C0CF852
:1024B000069003FB07FC84447F1C7047F0B5037E45
:1024C000DFF89C560024072710E0065D232E02BF8C
:1024D00006197678232E07D112B22B4492FBF7F21D
:1024E0000619DA710022B378521C641C8C42ECDBB2
:1024F000F0BD2DE9F0470546FFF7E0FF4FF000087B
:1025000000244FF00A09DFF858664FF0000A27E070
:102510004FF4FA606043301819FB0AF1471805EBD5
:102520000800027E3A73CAEBCA0040442844417E48
:102530007973427E817E41EA0221F981C07E38743E
:10254000F889FFF717FD7882F889FFF72EFD40F232
:10255000DA716143711888820AF101000FFA80FA7A
:102560003019007A01468A45D2DBC1EBC1014144F2
:10257000C91C0FFA81F880B114B9F18901200AE071
:10258000012C03D1B6F8DE17022004E0022C04D19E
:10259000B6F8AE1F032001F043F8641C032CB4DB33
:1025A0000022462106F10E0716E0DFF8C40501FB04
:1025B00002F318442324012304704470837006F14D
:1025C0000D0409FB02F3521CE55CC57006F1100511
:1025D000FC5A0471EB5C4371307A8242E5DB0020E7
:1025E0000FE0DFF8882500F02CF8022300F023F834
:1025F00093F8DD57D57003F2DE731C8814719B7855
:102600005371727A9042ECDB00200FE0DFF858251E
:1026100000F017F8032300F00EF893F8AD5FD570C3
:1026200003F6AE731C8814719B785371B27A904292
:10263000ECDBBDE8F087937009FB00F43319401C14
:10264000704701FB00F31A44232414705470704740
:102650002DE9F84FDFF820554FF4FA61284601F0D4
:1026600011F8DFF8FC64327854214D20A9706870AD
:10267000002130320220A9802A70E8700827717882
:10268000A971B078E87100203118401CC978E9556B
:102690007F1C05283FB2F7DB0024DFF8CCA4DFF86D
:1026A000CC84DFF8CC940622494603E0022C04D106
:1026B00006225146E819FEF76DFE3119BF1D087A52
:1026C0003FB240B34FF0010B10E0022C0AD10322BD
:1026D000504403E0012CF8D103224044C11CE81906
:1026E000FEF758FEFF1C3FB20BF1010B3019007AC8
:1026F000834510DA4620002C00FB0BF0EAD10322C0
:102700004844EBE7A5F8D077B81F00122871B91F2D
:102710006971BDE8F18F641C032CF3DA002CC2D080
:10272000012CC3D106224146C4E72DE9F84FDFF85A
:102730004C6441F27071304600F0A4FFDFF8207461
:102740003A7854214D20B17070700021303203204E
:10275000B1803270F07008257978B171B878F07175
:1027600000203918401CC97871556D1C05282DB200
:10277000F7DB002070556D1C2DB20024DFF8EC83D0
:10278000DFF8EC933819007A002856D01CB97A8A01
:10279000921D49460DE0012C04D1B7F8E227921DA5
:1027A000414606E0022C07D1B7F8B22FDFF8B81384
:1027B000921D7019FEF7EEFD4FF4FA6207F1120157
:1027C00062434FF0010B885E4519AD1D20E0022CDD
:1027D00013D1B0F8B22FDFF89003D21C084408E000
:1027E000012C07EB0A00F2D1B0F8E227D21C08EB6B
:1027F0000100C11C7019FEF7CDFD4FF4FA61614371
:10280000394451440BF1010BB1F912004519ED1C8B
:102810002DB23819007A83450FDA46210A20002CA0
:1028200001FB0BF100FB0BFADAD107F1120049446E
:1028300030F80A20D21CC91CDCE7641C032CA1DB85
:10284000CF48A91F0580A81F091270713171BDE81A
:10285000F18F6031017030223F2141708270002180
:10286000FF22C1704273817303207047F0B50024CA
:10287000002502E08E5DA4196D1CEEB2571EBE420B
:10288000F8DB0A44E4B212F8015CAC422BD14622D8
:102890005343012808BFB64806D0022808BFB348F2
:1028A00002D003281DD1B048184400228271C271A1
:1028B000027242728A7D312A04BF012343720022D0
:1028C00082720023C3720A7D12F00C0F1CBF01221A
:1028D000C27203734373097D11F0030F1CBF012102
:1028E00041730120F0BD0020F0BDF8B50C46002179
:1028F000002502E0A65D89196D1CEEB2571EBE428E
:10290000F8DB2244C9B212F8012C914237D146219A
:102910004B43012812D1964800F033F805F10A0321
:1029200001681960062204F10A0105F10E00FEF7A4
:1029300031FD00222A75A07E687517E0022808BFC5
:102940008A4802D0032818D1874800F01AF805F108
:102950000A0102680A6004F10A01062205F10E006C
:10296000FEF718FD00202875A17E69750C2204F180
:102970001B0105F11600FEF70DFD0120F2BD002040
:10298000F2BDC5180021A971E9712972A01C6178F6
:102990006972704738B500F0A6F8C920A170E070E0
:1029A00021711D2232E0F8B500F08BF800F083F8B9
:1029B00004BF4978B1EB102F1BD146204643012DAF
:1029C00005D16B49881900228271C2710AE0022D7B
:1029D00008BF664802D0032D09D163483044002166
:1029E0008171C1713A22E11C0830FEF7D3FC01204D
:1029F000F2BD0020F2BD38B504460D462570042016
:102A000000216070A170E1702171142262710621B1
:102A10002046FFF7E5FAA0716573000AE071002017
:102A2000A073082032BDF8B500F04BF800F043F871
:102A300004BF4978B1EB102F3BD146204643012D0E
:102A400004F1230108BF4A4806D0022D08BF4748B9
:102A500002D0032D2BD14448821900239371D371E6
:102A600088791072CB795372E078907204F1130078
:102A70002379D37202F10C0304681C6044685C6023
:102A8000C8784C796401800004F0C00400F03C0078
:102A900004430878C0F3C100044314750B784878E8
:102AA0005B0103F0C00300F03F00034353750120B6
:102AB000F2BD0020F2BDE119C3B211F8022D9A4215
:102AC00070470C4617460546B91E1E4689B2204679
:102AD000FFF786BA38B500F006F81520A170E0704F
:102AE0002171022292E704460D4625700320607092
:102AF00000217047F8B50C4617460646B91E1D461C
:102B000089B22046FFF76CFAFFF7D5FF04BF49787A
:102B1000B1EB102F1BD146204543012E08BF1448AE
:102B200006D0022E08BF114802D0032E0DD10E4848
:102B3000821D002151552844C17161790172A27929
:102B40004272E17881722279C2720120F2BD0020C6
:102B5000F2BD00003C50012040420F00DC5101203A
:102B6000A8150120100802405CBE0020AC870020A0
:102B7000FC5000202C2D012094440120242D012004
:102B8000664C01205B426F61726420496E666F7211
:102B90006D6174696F6E5D0D0A00000020536C6FEB
:102BA00074204E756D626572203A20253032640DB6
:102BB0000A0A000046303030310000000000C1C079
:102BC00081C1400101C3C003800241C201C6C006E9
:102BD000800741C70005C1C581C4400401CCC00CB9
:102BE000800D41CD000FC1CF81CE400E000AC1CA79
:102BF00081CB400B01C9C009800841C801D8C01869
:102C0000801941D9001BC1DB81DA401A001EC1DEE8
:102C100081DF401F01DDC01D801C41DC0014C1D4D8
:102C200081D5401501D7C017801641D601D2C012F8
:102C3000801341D30011C1D181D0401001F0C030C8
:102C4000803141F10033C1F381F240320036C1F6E8
:102C500081F7403701F5C035803441F4003CC1FCB8
:102C600081FD403D01FFC03F803E41FE01FAC03A78
:102C7000803B41FB0039C1F981F840380028C1E8A8
:102C800081E9402901EBC02B802A41EA01EEC02EE8
:102C9000802F41EF002DC1ED81EC402C01E4C024D8
:102CA000802541E50027C1E781E640260022C1E2F8
:102CB00081E3402301E1C021802041E001A0C06008
:102CC000806141A10063C1A381A240620066C1A6E8
:102CD00081A7406701A5C065806441A4006CC1ACB8
:102CE00081AD406D01AFC06F806E41AE01AAC06A78
:102CF000806B41AB0069C1A981A840680078C1B868
:102D000081B9407901BBC07B807A41BA01BEC07EE7
:102D1000807F41BF007DC1BD81BC407C01B4C074D7
:102D2000807541B50077C1B781B640760072C1B2F7
:102D300081B3407301B1C071807041B00050C19047
:102D4000819140510193C053805241920196C056E7
:102D5000805741970055C19581944054019CC05CB7
:102D6000805D419D005FC19F819E405E005AC19A77
:102D7000819B405B0199C059805841980188C048A7
:102D800080494189004BC18B818A404A004EC18EE7
:102D9000818F404F018DC04D804C418C0044C184D7
:102DA000818540450187C047804641860182C042F7
:102DB000804341830041C1818180404070B5044619
:102DC00000250CB9012070BD04F13C06706820B9E3
:102DD000B5603070204600F086FC7068C10610D4E3
:102DE000706820F4885040F002007060204600F0C7
:102DF00090F9B560716821F0020141F00101716044
:102E000000E0012500203070284670BD38B500F084
:102E1000BCF801D1022032BD00F0BFF81ED500F091
:102E200095F846BF906820F00600002000F087F873
:102E300000F09FF806D1816811F0405F0ED100F0DC
:102E400079F80BE0DFF8C013884202BFDFF8BC035B
:102E5000026812F0405F01D100F092F8002032BD0C
:102E600000F13C010A78012A01D1022070470122B9
:102E70000A70026893685B085B0093600068826870
:102E8000D00705D44A6822F4885242F001024A6011
:102E9000002008707047F8B50C46064606F13C0560
:102EA000306881684A050AD58068C10507D5686819
:102EB00040F020006860002129700120F2BD00F080
:102EC0004BFC0746306801688A0710D414F1010FE3
:102ED000F8D024B100F040FCC01B8442F2D26868F4
:102EE00040F004006860002129700320F2BD6FF0FB
:102EF00012020260686840F4007068603168886897
:102F000010F0405F04BFB069002811D1C86A10F406
:102F1000700F02D0886841050AD4686820F4807078
:102F200068606868C10403D4686840F001006860A4
:102F30000020F2BD816841F080418160704790605F
:102F4000002414706FF02200186070475568DFF895
:102F5000C002054045F4807555605868440505D5A4
:102F6000506820F4005040F4805050605068C40411
:102F700070470868DFF89C120A6812F01F0F70474C
:102F8000016841F08041016070470146002001F175
:102F90003C0200901378012B7047012010700868E4
:102FA0008368DC0714D48368DFF86C4243F00103C4
:102FB0008360DFF868020368B3FBF4F404EB4404B5
:102FC000009402E00098401E009000980028F9D17B
:102FD0000B689868C40770470068C06C704778B584
:102FE00002460020009092F83C30012B01D10220D3
:102FF00072BD012082F83C0007240B6810680A2B80
:1030000011D30A3BC56803EB430300F076F8C460B4
:10301000C3680D688C68A5F10A0606EB4606B44045
:103020002343C3600FE0056903EB430304FA03F392
:1030300025EA0303036103690D688C6805EB450508
:10304000AC40234303611F244B68072B0CD25B1E4B
:10305000456B00F050F84463436B4D680C886E1E5E
:1030600000F044F843631BE00D2B0CD2DB1F056B13
:1030700000F041F80463036B4D680C88EE1F00F00C
:1030800035F803630CE00D3BC56A00F034F8C46208
:10309000C36A4D680C88A5F10D0600F027F8C362DD
:1030A000594B98421DD10C685A48122C03D1036821
:1030B00043F4800303600B68122B18BF112B10D14F
:1030C000036843F4000303600868122809D15349D8
:1030D000514C0B68B3FBF4F40A204443009400F015
:1030E00010F8002182F83C10002072BD06EB860625
:1030F000B4402343704703EB83039C4025EA040458
:10310000704702E00098401E009000980028F9D116
:103110007047404A116821F44031116013684168DA
:103120000B4313600268536823F480735360516843
:10313000036941EA03215160516821F040715160F7
:10314000536881680B435360936823F40063936072
:103150009368C1680B4393603149836A8B4210D0F6
:10316000936823F0706393609368816A0B43936064
:10317000936823F0405393609368C16A0B43936054
:1031800007E0916821F070619160916821F04051F1
:103190009160916821F0020191609168836941EA30
:1031A00043019160016A002951680CD041F400612B
:1031B0005160516821F4604151605168436A5B1E5F
:1031C00041EA433101E021F400615160D16A21F408
:1031D0007001D162D16AC3695B1E41EA0351D162B9
:1031E000916821F4007191609168036B41EA432179
:1031F0009160916821F4806191609168406941EA31
:1032000080219160704700000020014008200140AB
:10321000FEF9FFFF0423014040420F001800002088
:103220000100000F0EB4C0B5024603A800210190B2
:10323000009101AB0121044878440C30FCF7CCFF2D
:1032400006BC5DF810FB00BF03330000002980B509
:10325000DFF89023DFF890331061D16114BF4FF491
:103260008050002050610C210020906150629062DB
:10327000D360116202F10C0000F074FA00B117E0A3
:1032800001BD80B5DFF85C03DFF86013C1644FF463
:10329000E132026500210C2241658165C16502664B
:1032A000416681664C3000F05DFA00B100E001BD7E
:1032B000BDE8014000F09ABE80B5DFF83403DFF8C6
:1032C000341301604FF4E13200230C21426083602B
:1032D000C360036141618361C36100F043FA00B1DF
:1032E000E6E701BD002980B5DFF80C23DFF80C33D9
:1032F0005060116114BF4FF48050002000F014F8AA
:1033000000B1D5E701BD002980B5DFF8F422DFF870
:10331000F4325060116114BF4FF48050002000F06F
:1033200003F800B1C4E701BD90600C210020D0601B
:103330009061D06113605161104600F013BA10B56E
:1033400086B004466846142100F09CF92168A64A1C
:10335000AD4CAE48914231D100F0F0F842F4002279
:1033600000F0CBF801F4002100F0ECF80221036832
:1033700043F001030360032200F0C3F801910392BC
:1033800001210291204608210491694600F030FE97
:1033900002210191012202924FF4805003210090FA
:1033A00003910B2204926946204600F021FE002280
:1033B0000821342000F01CFF34209AE08B4A91420F
:1033C00024D100F0BBF842F0804200F096F801F002
:1033D000804100F0B7F84FF40141036843F0010366
:1033E0000360022200F08DF8019201210291032274
:1033F0000821049103926946204600F0F9FD00225D
:103400000521522000F0F4FE522072E0794A9142E8
:1034100016D100210591426942F01002426100225A
:10342000416901F0100100F08DF84FF4C06100F027
:103430006FF800220A21252000F0DAFE252058E04E
:103440006E4A914213D100F079F842F4003200F054
:1034500054F801F4003100F075F80C2100F058F830
:1034600000220621262000F0C3FE262041E0654A06
:10347000914240D100F062F842F4802200F03DF821
:1034800001F4802100F05EF8036843F00403036058
:10349000016801F0040100F055F82021036843F0B1
:1034A000020303600222006800F002000590059804
:1034B00057480091019201210291032207210491B2
:1034C0000392694600F094FD0221019101220292CB
:1034D0004FF4806003210090039107220492694613
:1034E0004C4800F085FD00220721272000F080FED7
:1034F000272000F09AFE06B010BD0261002201698B
:103500007047006800F00100059005980091704731
:10351000036843F0010303600222006800F0010029
:103520000590059800910192012102910322072143
:10353000049103926946204600F05ABD002105918E
:1035400002697047059105990592704770B5044668
:103550002A4A2068304D234E90420BD1317806F133
:103560008C0000F098FE01223146234800F03CFA1E
:10357000002028802168234A91420BD1B17806F5BA
:10358000096000F088FE0122B11C1D4800F02CFAF1
:10359000002068802168144881420DD1317941F2C0
:1035A0009400304400F077FE0122311D06F10C003A
:1035B00000F01AFA0020A88021680C4881420FD13F
:1035C000317A41F69800304400F065FE012206F1A0
:1035D000080106F14C0000F007FA104900200880AD
:1035E00070BD00000CF50020004C00400078004049
:1035F0008450012000100140C450012000440040CC
:1036000004510120004800400000024030380240D0
:103610000008024000040240C0510120C8510120AE
:1036200010B540F20124091B0AD0491E0BD0491ED7
:103630000ED0891E0CD04FF48E74091B08D00AE0FE
:103640004FF4164306E04FF496434FF4806202E0D5
:103650004FF416530022012804D1BDE81040114652
:1036600018463FE6022804D1BDE81040114618462E
:1036700049E6032804D1BDE8104011461846E5E5A7
:1036800010BD0000002200F02FBE000038B584B04D
:1036900068461021FFF7F6FF4FF48030294C2A4D81
:1036A000606000212948A062A1600120E0616061A2
:1036B0002161A1612162E162E16021632560204610
:1036C000FFF77CFB08B100F091FC00200121009085
:1036D0000191029069462046FFF781FC08B100F095
:1036E00085FC05B030BD38B586B0044601A814216C
:1036F000FFF7C8FF2468144DAC4220D10020009091
:1037000000221348416941F480714161416901F42B
:1037100080710091009900920121036843F0010338
:1037200003600322006800F001000090009809483F
:10373000019102920021039101A900F059FC07B008
:1037400030BD00003C500120002001400100000F6E
:10375000303802400000024001484068704700BF16
:103760000C00002038B5040001D1012032BD00F06A
:1037700026F808B900F014F800F017F800F023F864
:10378000FFE7416100F001F832BD2068C16841F4F3
:103790000051C1600020686020216970A9707047E5
:1037A000002129702046FFF7CABD242068702068D8
:1037B000C16821F40051C160204600F073BA04F1E1
:1037C0003805687870472068016921F490410161EB
:1037D0002068416921F02A0170472DE9F24F044623
:1037E00082B02068DFF8DCA1774EDFF8E0B1DFF8C7
:1037F000E081DFF8E091504517461D4603D10122D4
:103800004FF4805110E0404503D101224FF40051A4
:103810000AE0584503D101224FF4804104E0B04250
:1038200004D101224FF4004100F0DBF804F138002C
:103830004178202940F098800298002818BF002F76
:103840001BD12068504503D100224FF4805110E075
:10385000404503D100224FF400510AE0584503D1FE
:1038600000224FF4804104E0B04204D100224FF422
:10387000004100F0B6F8012091E094F838000128EA
:1038800000F08C80012104F1380284F83810002007
:103890005060212104F138004170FFF75DFFA784DB
:1038A000E7842946029D0191074603E0216815F847
:1038B000010B4860E08C002873D0E08C411EE1844D
:1038C0003B46A068B0F5805F019800900DD100F0F4
:1038D00083F870B928882168C0F30800486020691F
:1038E000002814BF6D1CAD1CE4E700F075F800283B
:1038F000DCD02068504561D0404504D0584508D000
:103900000BE0404503D100224FF400510AE0584536
:1039100003D100224FF4804104E0B04204D10022E0
:103920004FF4004100F05DF8032038E004F1380066
:1039300020214170002202702068504508BF4FF4DA
:1039400080510DD0404508BF4FF4005108D0584574
:1039500008BF4FF4804103D0B04203D14FF400417F
:1039600000F03FF800201AE02068504503D1002203
:103970004FF4805110E0404503D100224FF4005134
:103980000AE0584503D100224FF4804104E0B042E0
:1039900004D100224FF4004100F023F80220BDE8DA
:1039A000FE8F019800903B4600224021204600F007
:1039B000EEF80028BAD020685045A2D100224FF47A
:1039C0008051AFE70044004000780040004C0040C8
:1039D000004800400008024000228021204600F0FC
:1039E000D6B8484600F0D1BB10B500F138039C783A
:1039F000202C1DD109B1140001D1012010BD1C786B
:103A0000012C15D001241C7081628285C2850021A1
:103A1000596022229A70197001684A6942F00102C5
:103A20004A610068C16841F49071C160002010BD16
:103A3000022010BD416921F040014161606B704777
:103A400038B5044625682968EA686B6911F00F00EB
:103A500007D188065DD593065BD52046BDE8324088
:103A6000DCE0D80702D412F4907F52D0C80705D505
:103A7000D50503D5E06B40F00100E063480705D5AC
:103A8000DD0703D5E06B40F00200E063880705D551
:103A9000DD0703D5E06B40F00400E063080705D5BF
:103AA000DB0703D5E06B40F00800E063E06B002823
:103AB0006CD0880604D5910644BF204600F0AEF8CD
:103AC00020684069E16B0A0701D440061BD52046F7
:103AD00000F08FF8206841694A060FD5FFF7AAFF6A
:103AE00060B10FF22D110165606B00F017FC00282A
:103AF0004CD0606B016DBDE8344008472046BDE8FE
:103B0000324000F01DBC204600F01AFC0020E063AB
:103B100031BD08062AD5130628D594F83900212886
:103B200034D1A068B0F5805F206A0BD10188C1F361
:103B30000801696020690028206A0CBF811C411CB3
:103B4000216203E0411C216200786860E08C401E25
:103B5000E08480B2D0B92068C16821F08001C160E2
:103B60002068C16841F04001C16031BD48060DD5F3
:103B700051060BD5E86820F04000E860202184F869
:103B800039102046BDE8324000F0DBBB31BD2DE9E5
:103B9000F041069C05460E4690461F46286801687F
:103BA0003140B1420CBF01200020404517D114F133
:103BB000010FF3D024B1FFF7CFFDC01B8442EDD23B
:103BC0002868C16821F4D07100F00CF805F13800C4
:103BD00020214170817000210170032000E000204D
:103BE000BDE8F081C1602868416949084900416128
:103BF00070470168CA6822F49072CA6001684A6915
:103C0000520852004A61202180F83A1070470000A3
:103C1000806B0021C185C18400F092BB80B590F813
:103C20003A1022293CD18168B1F5805F12D1016937
:103C30000368826A0029596805D1C1F3080111801F
:103C4000826A911C04E001F0FF011180826A511C1C
:103C500081620FE001690029816A04D14A1C8262F5
:103C600003685A6805E04A1C826203685A6802F0D9
:103C70007F020A70C18D491EC18589B271B9016880
:103C8000CA6822F49072CA6001684A6952085200F8
:103C90004A61202180F83A10FFF758FC002002BD4D
:103CA000022002BD2DE9F04704466425226811690F
:103CB000E06821F44051014311611926D368494855
:103CC000A168034020690B4361690343E0690B432A
:103CD0000343D3605169A06921F4407101435161EC
:103CE000E36941484149B3F5004F3BD18A4218BFCF
:103CF00082420ED100F0B3FB074600F0B0FB8046D5
:103D000000F0ADFB814600F0AAFB824600F0A7FB65
:103D10000DE000F09CFB074600F099FB804600F0A8
:103D200096FB814600F093FB824600F090FB6168B1
:103D3000490000F06CF8AE46BCFBFEFE05FB1E77AA
:103D4000FF0032376423B7FBF3F35B0003F4F8732F
:103D500000F04EF8ED0032356420B5FBF0F000F0D5
:103D6000070039E08A4218BF82420ED100F077FB8B
:103D7000074600F074FB804600F071FB814600F0BE
:103D80006EFB824600F06BFB0DE000F060FB074627
:103D900000F05DFB804600F05AFB814600F057FBC7
:103DA000824600F054FB6168890000F030F8AE46AE
:103DB000BCFBFEFE05FB1E773F0132376423B7FBD9
:103DC000F3F303F0F00300F013F82D013235642013
:103DD000B5FBF0F000F00F002168C3188B60BDE860
:103DE000F0870000F369FFFF00140140001001405C
:103DF00003EB021306FB0AF74643B7FBF1F2B6FBEF
:103E0000F1F06421B0FBF1F105FB11257047774318
:103E1000B7FBF1F36422B3FBF2F206FB08F3B3FB4A
:103E2000F1F706FB09F3B3FBF1FC704701B500990C
:103E30005E480A294FF6FF7304D102225AA1FFF708
:103E4000CCFC03E001226946FFF7C7FC009802BDE5
:103E500080B500F065FB00F02CF800F07BFBFFF76D
:103E600015FC00F0CBFB00214FF41650FFF7EEF9E4
:103E7000FFF707FAFFF720FA00214FF41640FFF78B
:103E800031FA4FF480614FF49640FFF73CFA00F0AE
:103E9000CBFB474800F02DFC46490A684CF6CC4065
:103EA000106000234448036000F0E6FD01F06CFA66
:103EB000FEE700B593B006A83421FFF7E3FB01A8A5
:103EC0001421FFF7DFFB002000904FF480333B48C4
:103ED000016841F0805101600021006800F08050CD
:103EE0000090009836480091026842F44042026017
:103EF0000922006800F44040009006A8009906924C
:103F0000012102220B910C924FF4800104220D91A9
:103F10000E926421022207930F9110921192129235
:103F200001F05AFA022102910F204FF480510190C2
:103F30000022049103920592032101A800F002FAE5
:103F400013B000BD10B500681E49884223D11A483D
:103F50004168491CB1F57A7F03D18268521C002167
:103F60008260416040F2F5120168491C9142016093
:103F700006D3104B1A684AF6AA2111600024046087
:103F8000114800F029F8114800F026F8104801887F
:103F9000491C018010BD0F4A904203D1BDE810407A
:103FA00001F09ABB10BD00000D0A000084500120F2
:103FB00080510120F0510120FC5101204038024085
:103FC000007000400000014008520120C051012053
:103FD000C85101200010004001884288491C01801E
:103FE000521C81884280491C8180704770470000C4
:103FF0002DE9F84702460B46002466480F210127A9
:104000001D68A74007EA0508B84540F0B8805D681C
:10401000022D18BF122D4FEA840911D1E50802EBD9
:10402000850C09F01C05DCF820E0D3F810A001FA9B
:1040300005F62EEA06060AFA05F53543CCF82050B7
:104040004FEA440C0326156806FA0CF66FEA060ED2
:104050001E7906F003060EEA050506FA0CF635434E
:1040600015605D68012D18BF022D03D0112D18BFFA
:10407000122D10D19568DE680EEA050506FA0CF6D9
:1040800035439560556825EA07075D68C5F3001557
:10409000A5402F435760D7680EEA07059F6807FAC7
:1040A0000CF63543D5605D68EF0068D500250095B6
:1040B00009F00C090768384E47F48047076001FA99
:1040C00009FE056805F480450095009FA70856F88D
:1040D000275025EA0E0E314DAA4208BF00251DD0FB
:1040E0002F4DAA4208BF012518D02E4DAA4208BF65
:1040F000022513D02C4DAA4208BF03250ED02B4D0C
:10410000AA4208BF042509D0294DAA4208BF0525A7
:1041100004D0284DAA420CBF0625072505FA09F54B
:1041200045EA0E0546F827506FEA0807224E356823
:1041300007EA050C5D68ED0348BF48EA0C0CC6F8B9
:1041400000C0756807EA050C5D68AD0348BF48EA22
:104150000C0CC6F804C0B56807EA050C5D68ED02F2
:1041600048BF48EA0C0CC6F808C0F56807EA050C19
:104170005F68BD0248BF48EA0C0CC6F80CC0641C5E
:104180000F2C7FF63CAFBDE8F18702B909048161CD
:1041900070470000443802400838014000000240E7
:1041A0000004024000080240000C024000100240DF
:1041B0000014024000180240003C014009010200C6
:1041C00006D51F4A00F00F00104400F8041C704789
:1041D0001C4B195470471C4B19684FF6FF02000224
:1041E000114000F4E0600843184908431860704724
:1041F00038B5154B1C68C4F30223C3F10704052C22
:1042000028BF04241D1D072D34BF0023DB1E0125FC
:1042100005FA04F4641E2140994005FA03F35B1E7D
:104220001A401143BDE83440C8E7012200F01F01E5
:10423000074BFFE78A40400943F820207047000001
:1042400018ED00E000E400E00CED00E00000FA05ED
:1042500000E100E000F5006000214180018070472E
:1042600000F5006041880088491C8A1201EB525316
:10427000DB12A1EBC321814201D101207047002054
:10428000704700F5006001884088814201D101201B
:1042900070470020704738B504460D46FFF7E0FF31
:1042A00068B9B4F802082554B4F80208401C811219
:1042B00000EB5152D212A0EBC220A4F8020831BD8B
:1042C00010B50446FFF7DDFF08B1002010BDB4F8BB
:1042D0000018605C491C8A1201EB5253DB12A1EBFF
:1042E000C321A4F8001810BD00B500BF1300964606
:1042F0009446103928BFA0E80C50FAD85FEA417CF8
:1043000028BF0CC048BF40F8042BC90728BF20F8BD
:10431000022B48BF00F8012B00BD000090F83510BB
:10432000022903D08022426501207047052180F8D0
:104330003510006802685208520002600020704781
:10434000704770472DE9F04104000F4677D0564E74
:10435000306800F00F00B84202D200F072F86ED15F
:104360002068524D810712D5400703D5A96841F452
:10437000E051A9602078010703D5A86840F46040A7
:10438000A860A968A06821F0F0010143A960217824
:10439000C8074CD56068012802D129688A0305E066
:1043A000022818BF032803D129688A0103D446E0F4
:1043B00029688A0743D5A968890840EA8100A8606E
:1043C000FFF7CAF98046A868616800F00C00B0EBFE
:1043D000810F2CD0FFF7C0F9A0EB080041F2893122
:1043E0008842F0D3032020E02078410705D5AA6851
:1043F000E06822F4E0520243AA602178080706D55B
:10440000A968206921F4604141EAC001A96000F077
:1044100057F8AA682649274BC2F30312895CC840A3
:104420001860002001F060F90020BDE8F0813068DC
:1044300000F00F008742D7D200F003F8D4D001205B
:10444000F3E73770316801F00F01B942704719483E
:10445000194A006813681949C3F3822206E0154817
:10446000154A006813681549C3F34232895CC84095
:10447000704710B50F2202600F4A136803F0030360
:104480004360146804F0F0048460136803F4E0539C
:10449000C3601268D20802F4E05202610248026866
:1044A00002F00F020A6010BD003C024000380240DA
:1044B0000C640008180000200838024088650008D5
:1044C00030B5144C606800F00C00042802D00828B5
:1044D00002D01DE0104830BD226820680023410250
:1044E00002F03F0204D525680B49C5F3881003E0AC
:1044F00020680A49C0F38810A1FB0001FCF79EFF69
:104500002168C1F30141491C4900B0FBF1F030BD05
:10451000024830BD0438024000127A000024F40042
:1045200080B50B48016841F400710160026842F4F3
:1045300080620260016841F4807101600320FFF72E
:104540004AFE002001F0D0F801F00CF9002002BD75
:10455000003C024010B586B001A81421FFF792F884
:104560000024244800940168234C41F004010160B8
:10457000026802F00402009200220099009203688F
:1045800043F080030360016801F08001009100990D
:104590000092036843F001030360016801F0010128
:1045A0000091009900924FF47041036843F00203B8
:1045B0000360006800F00200009000982046FFF7BA
:1045C000E4FD4FF470410191012200210391049117
:1045D000029201A92046FFF70BFD0F200021019058
:1045E00002910122039201A92046FFF701FD06B0C6
:1045F00010BD0000303802400008024080B5084875
:10460000084903224FF47A7301604260836001F02D
:10461000C9F818B1BDE80140FFF7E8BC01BD00BF13
:10462000F051012000300040D0B586B002A8102122
:10463000FFF728F826A42348D4E90067224C20601D
:104640004FF47A70CDE9006764210022E060616078
:10465000A26022616261204600F03EF808B1FFF7D7
:10466000C5FC4FF48050029002A9204600F002F9E8
:1046700008B1FFF7BBFC002100910191204669467B
:1046800001F0B2F808B1FFF7B1FC06B0D0BD006888
:104690000C49884200D0704780B500220B48009238
:1046A000016841F0010101600921006800F001008A
:1046B000009000981920FFF79BFDBDE802401920EB
:1046C000FFF7B3BD00000140805101204438024093
:1046D000000000000000000038B5040001D10120F6
:1046E00032BD00F01FF818B900F018F8FFF7CFFF3F
:1046F0000AE00068C16841F00101C160026842F04F
:10470000010202600020704702206870211D2068AD
:1047100000F01BF901206870002032BD00212970D3
:104720002046704704F138056878704710B5044694
:10473000206801698A0715D5C1688A0712D56FF00C
:104740000201016101222276806910F0030F2046E8
:1047500002D001F06EF803E001F06CF800F087F889
:1047600000202076206801694A0715D5C1684A07EC
:1047700012D56FF00401016102222276806910F4E3
:10478000407F204602D001F054F803E001F052F8D7
:1047900000F06DF800202076206801690A0715D521
:1047A000C1680A0712D56FF0080101610422227660
:1047B000C06910F0030F204602D001F03AF803E080
:1047C00001F038F800F053F80020207620680169E5
:1047D000CA0615D5C168CA0612D56FF0100101616D
:1047E00008222276C06910F4407F204602D001F0F2
:1047F00020F803E001F01EF800F039F800202076E0
:1048000020680169CA0708D5C168CA0705D56FF0D5
:10481000010101612046FFF795FB206801690A0646
:1048200008D5C1680A0605D56FF0800101612046F0
:1048300001F001F8206801694A0608D5C1684A06F6
:1048400005D56FF040010161204600F0F5FF2068BA
:1048500001698A060AD5C1688A0607D56FF020016A
:1048600001612046BDE8104000F0E7BF10BD2046C2
:1048700000F0E4BF38B500F05CF801D1022032BD91
:104880000120207002226270DFF850012A689368CC
:10489000034093600A68002A37D0102A37D0202AB4
:1048A00037D0302A37D0402A2BD0502A1ED0602A49
:1048B00020D0702A0BD0B2F5805F03D0B2F5005F34
:1048C0000CD02CE028688168C908C9000CE000F011
:1048D0002BF82868816841F0770105E000F024F8A2
:1048E0002868816841F48041816018E000F018F880
:1048F000502111E0CA684968286800F098F86021E2
:104900000AE000F00DF8402106E0002104E010214B
:1049100002E0202100E03021286800F09AF80EE043
:10492000CA684968286871E0CB684A68896828685D
:1049300097E0054605F138042078012870470120EA
:10494000607000212170002032BDF0B5244C056854
:10495000244B254E254FDFF898C0A04218BFB0F178
:10496000804F07D0604518BFB84203D0B04218BF8F
:1049700098420DD14A6825F070051543A04218BF32
:10498000B0F1804F17D060451CBFB842B04212D082
:1049900098421CBF174A90420DD0174EB0421CBF20
:1049A000164A904207D0164EB0421FBF154A904299
:1049B000154EB04203D1CA6825F440751543056011
:1049C000A0428D68C5620A68826212BF9842096976
:1049D000016301224261F0BD000000008800FFFF7A
:1049E0000000014000040140000C004000080040AD
:1049F00000040040004001400044014000480140E4
:104A000000180040001C00400020004010B5036A60
:104A1000046A64086400046223F00A03846924F0D1
:104A2000F00444EA021484611943016210BD10B518
:104A3000036A23F0100303628369046A23F470435A
:104A400043EA023324F0A004836144EA01140462BF
:104A500010BD826822F07002114341F007018160AD
:104A6000704710B5846824F47F442143114341EA20
:104A70000321816010BD000000B585B04FF4FA70CD
:104A800000F0DEFEFDF7C1FAFDF72DFBFDF7E9FBB7
:104A900068460FF684011422FCF78CFC00F033FC0E
:104AA000DFF8E417086005B000BD2DE9F84DADF55D
:104AB000885DDFF8D8878DB04046FFF7CBFBDFF885
:104AC000D0A7DFF8D01701225046FEF78DFFDFF8A0
:104AD000C8070FF63C0102783032684600F0C4FE89
:104AE00040F69C0400270026DFF8B0B76C4417E0BE
:104AF00000F066F85046FEF770FE0EE0A91D09B200
:104B000001A8FDF7F6FC062000F05AF85046FEF723
:104B100064FEDFF88C1701200870002700F033FADC
:104B20004046FFF7AEFB0028F8D14046FFF7C8FB30
:104B3000E0557F1C300029D1032FEFD10020E07019
:104B4000032240F69C006946684400F0ADFEB0B90F
:104B50000126E3E79DF80700022806D0032828D0A5
:104B60000628CBD01628C3D0D7E7FDF771FDDFF8B4
:104B70003407DFF8341702884FF47A73BAE76078A5
:104B80008DF89C080227A1786170C7E7062F05D829
:104B9000C4D12079657945EA0025BFE7AA1D97426F
:104BA000BCD140F69C01694401A8FCF703FC002637
:104BB000D0E7FDF7BAFDDFF8F406DFF8F416DAE720
:104BC0008BF803004FF47A730F22594670472DE992
:104BD000F04F9FB002A800F0C0F9DFF8D806DFF868
:104BE000D896DFF8D0B6FFF735FB0122DFF8CC16F8
:104BF000DFF8CC06FEF7F8FEDFF8C806017A4D1E96
:104C0000ADB2DFF8C016087A00F0AEF9019040F2BC
:104C10000123C289017CD21A0DD0521E0FD0521E20
:104C200005D0921E03D000F09BF90CD010E002A832
:104C3000FDF70FFE0AE002A8FDF7ACFE06E002A8B1
:104C4000FDF7D9FE02E002A8FDF744FF8DF8000051
:104C50009DF815705846FFF7FDFA9DF8000030B139
:104C60000246642302A9DFF85806FEF7B6FDDFF816
:104C7000580600220280002402268DF802708DF86A
:104C80000120924649E0584606AFFFF719FB00F0B5
:104C900059F93ADA5FEA0A0005D10198818A8C4213
:104CA0003BD14FF0010A0020385540F20122019912
:104CB000C889801A14D0401E17D0401E0BD0801E09
:104CC00004D04FF48E72801A14D018E000F068F807
:104CD000FDF7CCFD12E000F063F8FDF706FE0DE0F5
:104CE00000F05EF8FDF75FFE08E000F059F8FDF710
:104CF0009AFE03E000F054F8FDF7FCFE80465FFAF0
:104D000088F0012808BF002004D019F805000A28FF
:104D100002DA401C09F805000326DFF8AC251088EC
:104D2000FA280DDB012E0BD0022E06D119F8050052
:104D30000A28BCBF401C09F805000020012610808D
:104D400019F805100A290BD14621DFF880056943BF
:104D500047180198418AB81D00F0DAFD00F00EF9FD
:104D600000F011F9012E3FF44CAF022ED5D1584678
:104D7000FFF787FA0028D0D19DF80100002882D1E2
:104D80005846FFF79DFA8DF818009DF802109DF81F
:104D900018008842C1D101208DF801000124BCE730
:104DA000EBB2E2B206A9012070472DE9F84FA0B09E
:104DB00000F0D2F8DFF8185502952846FFF74AFAB6
:104DC0000122DFF81015DFF81005FEF70DFEDFF801
:104DD000F404417A4D1EADB2DFF8E814487A00F0D1
:104DE000C3F800F2DE7100F0ADF90DD0521E0FD005
:104DF000521E05D0921E03D000F0B2F80CD010E085
:104E000003A8FDF726FD0AE003A8FDF7C3FD06E0B1
:104E100003A8FDF7F0FD02E003A8FDF75BFE8DF8A7
:104E2000000000F0A6F99DF8000030B102466423AE
:104E300003A9DFF8A404FEF7D0FC00F076F9A2F88D
:104E40000280C34643E0029807AFFFF739FA00F04B
:104E500079F834DAB8F1000F05D10198C1888C4295
:104E600035D14FF0010800F07CF913D0521E16D056
:104E7000521E0AD0921E03D000F072F814D018E02F
:104E800000F065F8FDF7F2FC12E000F060F8FDF7C5
:104E90002CFD0DE000F05BF8FDF785FD08E000F06B
:104EA00056F8FDF7C0FD03E000F051F8FDF722FED3
:104EB00081465FFA89F0012808BF002004D09AF8E3
:104EC000C8000A2802DA401C8AF8C8000326DFF866
:104ED000F813DFF8E4034A88FA2A00EB050A0DDB31
:104EE000012E0BD0022E06D19AF8C8000A28BCBFAA
:104EF000401C8AF8C8000020012648809AF8C800A3
:104F00000A2806D14620DFF8D41300F023F900F078
:104F100035F800F038F8012E3FF45EAF022ED6D1FE
:104F20000298FFF7AEF90028D1D15FEA0B008AD1D1
:104F30000298FFF7C5F900F0F0F8C8D14FF0010B67
:104F40000124C4E73855641CA4B2642C7047EBB24A
:104F5000E2B207A90220704703A81021FEF792BB16
:104F60004FF48E73D21A70476D1C95FBF0F200FB64
:104F70001255ADB20A206843084470470020B8714A
:104F80000121F9717047012000F01FBA2DE9F84F97
:104F9000A0B0FFF7E1FFDFF8485302952846FFF77E
:104FA00059F90122DFF83C13DFF83C03FEF71CFD42
:104FB000C448817A4D1EADB2C249887AFFF7D4FF4A
:104FC00000F6AE7100F0BEF80DD0521E0FD0521E8A
:104FD00005D0921E03D0FFF7C3FF0CD010E003A84A
:104FE000FDF737FC0AE003A8FDF7D4FC06E003A8B0
:104FF000FDF701FD02E003A8FDF76CFD8DF8000050
:1050000000F0B7F89DF8000028B10246642303A918
:10501000B548FEF7E2FB00F088F8A2F80480C3462A
:1050200043E0029807AFFFF74BF9FFF78BFF34DA45
:10503000B8F1000F05D10198C1888C4235D14FF0ED
:10504000010800F08EF813D0521E16D0521E0AD05E
:10505000921E03D0FFF784FF14D018E000F06DF823
:10506000FDF704FC12E000F068F8FDF73EFC0DE0EF
:1050700000F063F8FDF797FC08E000F05EF8FDF73C
:10508000D2FC03E000F059F8FDF734FD81465FFAE9
:1050900089F0012808BF002004D09AF890010A285E
:1050A00002DA401C8AF890010326874982488A88E0
:1050B000FA2A00EB050A0DDB012E0BD0022E06D1D9
:1050C0009AF890010A28BCBF401C8AF89001002081
:1050D000012688809AF890010A2805D14620834944
:1050E00000F038F8FFF74AFFFFF74DFF012E3FF4BD
:1050F00063AF022ED9D10298FFF7C3F80028D4D1AC
:105100005FEA0B008DD10298FFF7DAF800F005F89E
:10511000CBD14FF0010B0124C7E78DF81C009DF89F
:1051200001109DF81C0088427047674A8DF8017095
:105130004FF00008002402267047EBB2E2B207A944
:10514000032070470191084640F2012302888178CC
:10515000D21A704768430F1801998988B81D00F06A
:10516000D7BB0020385540F2012301990A88D21A92
:1051700070479DF819700298FFF76CB838B594B075
:105180000DF13C0069A1464C1422FCF713F90021F3
:105190000FA800F0FEF8206114220AA868A1FCF70D
:1051A00009F900F0ACF86061142205A869A1FCF7C8
:1051B00001F900F0A0F8A061142268466AA1FCF78A
:1051C000F9F800F0A0F8E0614FF416713A48FEF7E4
:1051D00059FA4EF66025A088A84209DB606900F004
:1051E000EFF800F085F800F08AF860610020A080F8
:1051F000E088A84209DBA06900F0E2F800F078F846
:1052000000F079F8A0610020E0802089A84209DB45
:10521000E06900F0D5F800F06BF800F074F8E06198
:105220000020208142F21071A08988420BDB2069A6
:1052300000F0C6F800F05CF800210FA800F0A9F813
:1052400020610020A0812178012919D1002020703F
:10525000606900F0B5F8A06900F0B2F8E06900F00C
:10526000AFF800F045F800F04AF8606100F043F84C
:10527000A06100F048F8E0610020A080E08020817B
:10528000FFF781FEA7E7000010520120A40D0120C6
:1052900058F5002014F50020EC510120DC510120CC
:1052A000BC510120644C012094440120664C012033
:1052B000242D012098F50020684C01200CF50020D9
:1052C000C4500120A815012008520120FC500020E4
:1052D0009CFD00200EF5002004510120AC87002029
:1052E000A005012010F5002018F500205CBE00206C
:1052F000642000F0A5BA002105A800F04AB80021FA
:105300000AA800F046B80021684600F042B8000044
:105310004D25635400000000706400087D510008B2
:105320000000000000000000800000007C64000815
:10533000AB4A00080100000000000000000C000063
:1053400088640008CF4B0008000000000000000047
:105350000001000094640008AB4D0008000000004C
:105360000000000000010000A06400088D4F00084C
:1053700000000000000000000001000001460020C5
:10538000842918BFC81C704780B500F0F8FB0020C6
:1053900002BD3EB504460D46B4F90800FFF7EEFF26
:1053A00002A9019100902B4622692168606892B29F
:1053B00000F0B2FA012801D000203EBD02983EBDA7
:1053C00080B500F062FB002002BD80B500B901206D
:1053D00000F086FB002002BD2DE9F8430646DFF809
:1053E000E8523078C10745D5A86800F00C000428C1
:1053F00007D0A86800F00C0008280BD168684102AB
:1054000008D52868810335D57068002840F0B88039
:1054100001204FE17068B0F5803F04D1286840F466
:105420008030286011E0B0F5A02F286806D140F444
:1054300080202860296841F4803105E020F4803024
:105440002860296821F480212960706868B1FEF71E
:1054500083F904462868810300F19280FEF77CF905
:10546000001B6528F6D3032024E1FEF775F90446F6
:105470002868810340F18480FEF76EF9001B6528DF
:10548000F6D3F0E7FEF768F9001B022840F2A5808A
:10549000E9E7F06870B101213960FEF75DF9044673
:1054A0002868810700F1C780FEF756F9001B022823
:1054B000F6D9D8E73860FEF74FF90446296888071F
:1054C00061D5FEF749F9001B0228F7D9CBE7086040
:1054D000FEF742F90446686F810773D5FEF73CF981
:1054E000001B0228F7D9BEE70528286F06D140F037
:1054F00004002867286F40F0010005E040084000E4
:105500002867286F20F00400286741F28938B068C6
:1055100068B1FEF721F98146286F810700F1988074
:10552000FEF71AF9A0EB09004045F5D39BE7FEF71B
:1055300013F98146286F810740F18A80FEF70CF944
:10554000A0EB09004045F5D38DE7FEF705F9001BF8
:10555000022840F2908086E7FEF7FEF8001B022842
:1055600040F2A3807FE700F0A7F804462868810195
:1055700040F19F80FEF7F0F8001B0228F6D972E791
:105580003078534F81071BD5A86810F00C0F09D055
:10559000A86800F00C0008287FF47BAF686841021F
:1055A0003FF577AF2868810703D5F06801287FF4BD
:1055B0002FAF2968306921F0F80141EAC001296064
:1055C000317808070DD57069424900283FF47FAF54
:1055D00001220A60FEF7C0F80446686F81077FF574
:1055E00051AF3078410738D5286C0024C1000AD467
:1055F00000940124296C41F080512964286C00F04A
:10560000805000900098DFF8C480D8F80000C105F1
:1056100019D4D8F8000040F4807000F051F88146A9
:10562000D8F80000C1050ED4FEF796F8A0EB0900EB
:105630000228F5D917E72868316920F0F80040EA18
:10564000C1002860BCE7B06801287FF44DAF51E786
:105650001CB1286C20F080502864B06948B3A96858
:1056600001F00C0108293FF4D3AE02287FF47BAF90
:1056700000F022F80446286881013FF566AFF26920
:10568000306A716A0243B06A400842EA8112401EE1
:1056900042EA0042F06A316B42EA006242EA017279
:1056A0006A60012000F009F80446286881017FF54E
:1056B00053AF0020BDE8F28300203866FEF74CB8F7
:1056C000C8F80000FEF748B80038024000700040FB
:1056D00000004742800E47420248416802788A181B
:1056E000426070470C00002018B5014687B00022C8
:1056F0003620FEF77DFD3620FEF797FD0020009056
:10570000144C1548016841F01001016001A90068BE
:1057100000F010000090009802A8FEF7AAFEFEF725
:1057200096FE0E49216040F2E73240000C49E260EB
:10573000B0FBF1F0401E606000222261A2602046B2
:10574000FEF7CAFF18B92046FEF7D3FF00E001209C
:1057500008B010BD44510120403802400010004004
:1057600040420F0082B00020009000220C484168A7
:1057700041F480414160416801F480410091009909
:1057800000920F21036843F080530360006800F02B
:105790008050009000986FF0010002B0FEF728BD25
:1057A0004038024038B5040001D1012032BD2068E4
:1057B0004CF6CC41016045F255520260636843608B
:1057C000A1688160FDF7C8FF05462168C86830B14F
:1057D000FDF7C2FF401B3128F7D3032032BD4AF644
:1057E000AA200860002032BD30B500F138031A78D5
:1057F000012A01D1022030BD01221A7002245C70FE
:105800000268546824F070045460046865680A688B
:10581000154365600268946824F08004946002680F
:1058200094684868044394600121597000201870FE
:1058300030BD704770477047704770477047000031
:1058400038B50446FDF788FF14F1010F054602D074
:10585000044801786418FDF77FFF401BA042FAD38B
:1058600031BD00BF0C0000200CB430B583B00A4637
:1058700006A90291044600250194009502AB01A9F6
:10588000084878441E30FAF7A7FC019A15700028E2
:105890004EBF04460198041B204603B030BC5DF89F
:1058A0000CFB00BFE7BAFFFF0300002013F0030F5B
:1058B00009D0521E22BF13F8010B11F801CBB0EB37
:1058C0000C00F3D0704711F0030F14D1121F22BF48
:1058D00053F8040B51F804CB6045F7D0121D0AD2DF
:1058E00000BA9CFA8CFCB0EB0C0038BF6FF00000E3
:1058F00088BF01207047521E22BF13F8010B11F818
:1059000001CBB0EB0C00F6D0521C08BF104670471C
:10591000002200F0E5BA00002DE9F84306461746DC
:1059200084B088469946B80000F00AFB05001AD0FA
:10593000542000F005FB040012D00D990C9825634B
:10594000002203920191009002944B463A46414650
:10595000304600F00DF8204600F046F8012004E043
:10596000284600F076FB4FF0FF3005B0BDE8F0832D
:105970002DE9F0470A9E8146306B00EB8202101F32
:10598000C0084FEAC00A00228C5CB01880F834408E
:10599000885C10B1521C102AF6D3089D002086F8AE
:1059A0004300062D099C88BF062506F14407F562D1
:1059B0003D6078609846301D00F0A9FB06F11800A4
:1059C00000F0A5FB3661C5F10705B56176620020E0
:1059D000B860387342464946504600F0D3FB306009
:1059E00004B12660BDE8F0872DE9F04100F08FF8A2
:1059F000DFF86854DFF86884E86C401CE86414261B
:105A0000A86A28BBAC62E86C012827D1002706FBF6
:105A100007F0404400F06EFB7F1C072FF7D305F121
:105A2000740000F067FB05F18807384600F062FB60
:105A3000284600F05FFB05F1140000F05BFB05F168
:105A4000380000F057FB05F17400E8622F6305E0B1
:105A5000A86D18B900F08EF828BFAC62A86E401C83
:105A6000A8660122E06A696D824011436965464378
:105A7000211D08EB060000F04DFB00F006FCA86DB0
:105A800008B100F0DCF9BDE8F08138B500F03FF86E
:105A900000F051F800F03EF808B100F0EDF8A86E03
:105AA000401CA866A86A844208D1211D05F1140093
:105AB00000F030FB686B401C686307E0E86C401E38
:105AC000E864204600F099F900F0A1F900F0DDFB50
:105AD000A86D20B1A96A8C4201D100F033F831BD24
