:020000040800F2
:10000000A84C0020F14E0008D94D0008DB4D000837
:10001000DD4D0008DF4D0008E14D00080000000044
:10002000000000000000000000000000294D000852
:10003000E34D000800000000D14C0008694C0008A6
:100040001B4F00081F4F0008234F0008274F0008D0
:100050002B4F00082F4F0008334F0008374F000880
:100060003B4F00083F4F0008434F0008474F000830
:100070004B4F00084F4F0008534F0008574F0008E0
:100080005B4F00085F4F0008634F0008674F000890
:100090006B4F00086F4F0008734F0008774F000840
:1000A0007B4F0008E54D00087F4F0008834F000894
:1000B000874F00088B4F00088F4F0008934F0008B0
:1000C000974F00089B4F00089F4F0008A34F000860
:1000D000A74F0008EB4D0008AB4F0008AF4F0008DA
:1000E000B34F0008B74F0008BB4F0008BF4F0008D0
:1000F000C34F0008C74F0008CB4F0008CF4F000880
:10010000D34F0008D74F0008DB4F0008DF4F00082F
:10011000E34F0008E74F0008F14D0008EB4F0008DF
:10012000EF4F0008F34F0008F74F0008FB4F00089F
:10013000FF4F000803500008075000080B5000084C
:100140000F50000813500008175000081B500008FB
:100150001F50000823500008275000082B500008AB
:100160002F50000833500008375000083B5000085B
:100170003F5000084350000800000000000000004D
:10018000475000084B500008F74D00084F5000083A
:100190005350000857500008000000005B50000852
:1001A0005F500008635000080000000000000000DD
:1001B0006750000800000000000000006B500008BD
:1001C0006F50000873500008775000087B500008FB
:1001D0007F500008835000082DE9F04F0FF2A41C57
:1001E000A1B0DCE90089CDE900892A9DDFF8109CE7
:1001F000049100248DF843500D944FF0FF3882464F
:1002000016461F460FE0B3462C461BF8011B049808
:10021000D0470028049000F0A2800D98401C641E76
:100220000D90F2D176193078252808D100210022CE
:100230000791089209910A920B910C920DE06A467F
:100240004146304600F0F4FF050001D10D98A1E0D1
:10025000D9D50125E6E741F0010116F8010F202864
:10026000F9D023280CD02B2804D02D2805D03028F5
:1002700009D076E041F00201EFE741F00401ECE73C
:1002800041F00801E9E741F01001E6E70F9209E0CB
:100290000F98484505DA00EB800402EB4402303A3F
:1002A0000F92761C3278A2F130000A28F0D3307811
:1002B0002E2818BFCDF8388022D116F8010F2A2831
:1002C00007D138683860761C50F8042B38600E92DD
:1002D00016E02D280CBF761C002000220E920AE0AA
:1002E00040B90E9A4A4505DA02EB820403EB440357
:1002F000303B0E93761C3378A3F130020A2AEFD3F9
:10030000ADF8401021A0317800F09CFF08B116F83C
:10031000010B8DF842009DF84200682804D1307826
:1003200068280AD1622105E06C2804BF30786C2867
:1003300003D171218DF84210761C12A806903A461E
:1003400016F8013B02A9504600F064F838B912AA29
:1003500002A9504600F0CAF900287FF564AF404674
:1003600018E02A2892D13A683A6052F8040B3A60B1
:1003700000280F9003D540420F9041F00401761CF5
:1003800095E700000000000000000000686A6C743F
:100390007A4C000021B0BDE8F08F622820D0682898
:1003A00011D06A2803D06C2827D0712825D108687D
:1003B000C01D20F007000860D0E900230830086065
:1003C000194610467047002A0A680A60106803D070
:1003D000121D0A6000B217E0121D0A6080B217E019
:1003E000002A0A680A60106803D0121D0A6040B231
:1003F0000AE0121D0A60C0B20AE0002A0A680A6018
:10040000106803D0121D0A60C1177047121D0A60E0
:10041000002170477CB50D4611461C462E69B4F18B
:10042000250200F051811C3A00F08680121F022A3A
:1004300040F282800E3A00F00B81521F5AD0093AE6
:100440007AD0921E16D0521E35D0521E022A73D96F
:10045000121F30D0521F00F09A80521E4AD0521EF6
:1004600000F0E480D21E00F00181921E42D0D21E24
:1004700040D02FE195F83A406C2C09D06869421CB5
:100480006A610A680A6052F8043B0A6033542BE13F
:100490000A680A6052F8043B0A6000930022019245
:1004A0004FF0FF332B636A46294600F09AF9002883
:1004B00040F11A8105E195F83A000122FFF76DFF3E
:1004C000C5E900010023994204DA6869411C6961A9
:1004D0002D220DE0288F810704D56869411C6961D0
:1004E0002B2205E0C00722D56869411C69612022E2
:1004F00032541CE095F83A000022FFF74EFFC5E9A0
:10050000000195F83800010711D5D5E90023002036
:10051000834208BF82420AD044F02000782806D1E6
:10052000686930213154401C421C6A6134542146B0
:1005300068693044E86087E00868C01D20F0070063
:100540000860D0E9002308300860C5E90023D5E938
:100550000001C80F04D06869411C69612D220DE0BB
:10056000288F810704D56869411C69612B2205E049
:10057000C00704D56869411C69612022325468694A
:100580003044E8602146284600F03AFAACE005F134
:100590003A02507820B14FF0FF340FF6343074E057
:1005A0001078622808D0682824D06A2812D06C28D5
:1005B0002ED071280ED02BE00A680A6052F8040B86
:1005C0000A6020B94FF0FF340FF61C305DE0E96A95
:1005D000017089E00A680A6052F8040B0A6020B9C9
:1005E0004FF0FF340FF600304FE0EA6AD317C0E94E
:1005F000002379E00A680A6052F8040B0A6020B907
:100600004FF0FF340FF6E0203FE0E96A01806BE035
:100610000A680A6052F8040B0A6020B94FF0FF34F0
:100620000FF6C42031E0E96A01605DE00A680A6003
:1006300052F8040B0A60002120F0000221F0FF3381
:10064000C5E90023EE607821284600F02DF94BE043
:100650006C2285F83A200B680B6053F8042B0B6072
:1006600052BB4FF0FF340FF6B4200EE095F83A205D
:100670006C2AF0D00868086050F8044B0860EC6001
:100680003CB94FF0FF340FF6782000F003FE201A3B
:1006900076BD2E6B002E04D5204600F01BFE0446CE
:1006A00008E032460021204600F03EFE002814BF3C
:1006B000041B3446AC6117E0294600F092F800288C
:1006C00012D54FF0FF3076BD6869411C6961252263
:1006D000325409E06969481C68612522725421007E
:1006E00002D0431C6B613454002076BD2DE9F041EB
:1006F0000E4605469046726B7069316AB46A121AEA
:10070000B069521A716A121AF069521A121A96F8DE
:100710003800141B41070DD4002C0BDD2746B068B0
:100720002021A8470028B06057D0F06A401C7F1EE7
:10073000F062F4D1736942463146284600F0B0FCBD
:1007400000284AD1376A002F0ADDB0683021A84757
:100750000028B06041D0F06A401C7F1EF062F4D1E6
:10076000B369F2683146284600F09AFCA8BB776A64
:10077000002F09DDB0683021A847B06068B3F06A87
:10078000401C7F1EF062F5D1F068B169F369421830
:100790003146284600F084FCF8B9B76A002F09DD1D
:1007A000B0683021A847B060B8B1F06A401C7F1E25
:1007B000F062F5D196F8380041070BD5002C09DD21
:1007C000B0682021A847B06038B1F06A401C641EB0
:1007D000F062F5D10020BDE8F0814FF0FF30BDE8B8
:1007E000F0812DE9F8470D46A3B02F6B002F064688
:1007F000904648BF6FF000470FF63C1400F0C0FD74
:10080000D4E90023696B4018CDE90123812828BF72
:100810004FF0FF3042D20024002F33DDD8F8001013
:1008200001AA684600F006FD8146B9F1000F38D4F0
:10083000D8F8000010B9B9F1010932D44F4521DBD5
:100840006869484481280AD30021696303AA2946BC
:100850003046FFF74BFF040014D40020686103AB5F
:10086000D5F814A04A46694603EB0A0000F092FD51
:10087000CA44C5F814A058F8040B002818BFA7EB09
:100880000907C9D14CB903AA29463046FFF72EFF04
:10089000044614B9002068616863204624B0BDE8AE
:1008A000F0874FF0FF34F8E72DE9FC4707468C4608
:1008B0003E69BCF16F0F08BF082405D04CF0200042
:1008C000782814BF0A2410243C25D7E90023BCF162
:1008D000640F18BFBCF1690F9046994606D10021FC
:1008E0008B4203DAD8F1000869EB49094FF0000A9E
:1008F000D14508BFD0451FD1386BE8B9082C4BD182
:1009000097F83800010747D530203B2586F83B0093
:1009100042E000280ED597F8380000F014001028A7
:1009200008D17B6B7969386A5B1A1B1A9A1A002AFC
:10093000C8BF3A62BDE8F3878DF800C0404649461B
:100940002246E31700F07AFD3032D0B26D1E3A280D
:10095000019504DB9DF80000A0F151018A18725541
:10096000404649462246E31700F068FD8946804626
:10097000D14508BFD04503D0F86871198842DDD34E
:10098000082C09D197F83800010705D5705D30288B
:1009900002D06D1E30207055C5F13C02BA6171194C
:1009A000F960386B8242B4DA821A3A624FF6EF701D
:1009B000398F01403987BDE8F3872DE9D0430646DA
:1009C0000F4614464FF00008DFF8389412E0E007B5
:1009D00007D542464B463046394600F047FE0646AC
:1009E0000F464046494642464B4600F03FFE6410E3
:1009F00080468946002CEAD130463946BDE8D0838E
:100A00002DE9F34F054641F020048DB0D5E900896A
:100A1000612C02AE09D0286B002848BF062003D401
:100A200008BF672C01D101202863D5E900235800B5
:100A30004015401C0ED119030CD00320A8619DF86D
:100A4000381061391A2902D20FF2F46111E00FF265
:100A5000F4610EE059004915491C0FD118030DD15E
:100A60000320A8619DF8381061391A2914D30FF2B8
:100A7000DC61E868032200F08DFCD3E1194621F027
:100A80000043B3F5801F10460DD20027BB4208BFBC
:100A9000BA42019703D111E00FF2AC61E9E701AA74
:100AA00000F0B6FE0AE0DFF8607307EB1352DFF8E0
:100AB0005C3301921940DFF858331943C5E900014E
:100AC000612C0ED1E86830210170821CEA609DF82B
:100AD000381061290CBF7821582141706869801C49
:100AE0006861D5E900AB2BF0004300202AF000023A
:100AF000834204BF8242002300F05B81612C40F0FE
:100B0000AA80286B002847BF21210091401C00903B
:100B1000009F7F1C404649460022002300F0B0FEA3
:100B2000D94601998DF8082038BF89F00049091F7E
:100B3000002FD04601910DF1090040F34981B349DE
:100B4000DFF8D0B20C910646404649460022002309
:100B500000F0AEFE80F03B814800400D00F11C0229
:100B600011D0002A0FDD40F2FF70824205DB09F050
:100B7000004040EA0B01002013E00C98014041EADC
:100B8000025140460DE029F00043002028F0000209
:100B9000834208BF82420FBF40461C22404600F0FD
:100BA0009FFE8046894600F039FFFF1F002F044654
:100BB00009DD00F051FF02460B464046494600F071
:100BC0005DFF80468946F01D072104E004F00F0216
:100BD00000F8012D2411002C01DD491EF6D5491E17
:100BE0005CBF002200F8012DF9D5ECE00020194689
:100BF00002AA0A4400E05B1E12F80149491E844221
:100C0000F9D00F2804D10DF10900425C521C425466
:100C1000002904D50198001D02AE5B1C0190591EED
:100C200012D49DF838007218A0F13A07147804F134
:100C300030085FFA88F43A2CA8BFB844491E02F87D
:100C40000189F3D58DF83800286B002840F1B08079
:100C5000591E2963ACE0404649460022002300F0BB
:100C60000FFE019938BF89F0004947F29750414380
:100C7000694A91FBF2F20192D2F1070204DD40468B
:100C80004946FFF79AFE0AE0524200206349FFF707
:100C900094FE02460B464046494600F061FF8046FE
:100CA000662C286BDFF878B106BF019F0A3706274C
:100CB0003F18142FC8BF142730208DF8080089462C
:100CC0000DF1090000E03046002F34DD06464046B5
:100CD000494601F069F801460A4606F10803042076
:100CE0000A26B2FBF6F606EB860EA2EB4E02303277
:100CF00003F8012C0A22B6FBF2F202EB820EA6EBFD
:100D00004E063036401E03F8026DE9D1083F002F31
:100D100003F10806D7DD084601F05AF802460B46F3
:100D20004046494600F0AAFE00225B4600F09EFCC9
:100D300080468946CBE70DF10901401A0DF10906FD
:100D400004E00199491E401E0191761C317830293A
:100D5000F7D0662C02D10199491C03E0652C0CBF29
:100D6000012100212B6BCB189842B8BF431E002BEA
:100D70001ED4834204DAF05C3528A8BF392000DA9B
:100D800030201946721E02EB010800E05B1E18F8C5
:100D90000199491E8145F9D0392802D1705C401C67
:100DA0007054002904D50198401C16465B1C019024
:100DB000019800B200901BB29DF8381032462846C8
:100DC00000F034F82EE0C61D002F3FF7BDAE3046D0
:100DD0000DF10901401A009903468842C8BF0B462D
:100DE000002B0DF109063FF52FAF8342BFF6FEAE93
:100DF0000DF10900C15C07297FF7F8AE0F20F6E678
:100E0000CBCCCC0C0000244002FCFFFFFFFF0F8086
:100E10000000E03F0000F07FA08601000000F03FEE
:100E200084D797410FB0BDE8F08F00002DE9F84757
:100E300083B006468A461746984600F0FDF9B8F199
:100E4000000F406A356B90F8009002DC4FF001080B
:100E5000BFA74AF02000BDF93040662808BF641CD7
:100E600015D0672840F0848014F1040FC0F286800A
:100E7000AC4280F2838096F83800641C010702D4EB
:100E8000A845B8BF454620B22D1A48BF00250FFA25
:100E900084FAF068B169BAF1000F25DC4A1C3023EE
:100EA0004354002D03DC96F83800010703D5F068A1
:100EB00000F80290521C15EB0A0FB8BF6C4220B22A
:100EC000441941424445B8BFA046B26171620FFA6D
:100ED00088F5F561F068B3692A463946184400F090
:100EE00059FA641BB462C4E022B29045084417DA90
:100EF0004246394600F04EFAB0694044B061AAEB70
:100F00000801002D716203DC96F838100A0705D538
:100F1000F16801F80090F069401CF061B562A8E04A
:100F2000394600F037FAB069002D5044A8EB0408A8
:100F300003DC96F838100A0703D5F16801F8009031
:100F4000401CB0610FFA88F08542F368B069B8BF01
:100F5000A8460FFA88F207EB0A01184400F01AFAC3
:100F6000B1690FFA88F00144B161281A706280E01B
:100F7000BAF1610F14D14FF0700A16E0A84504DAF7
:100F800096F838100A0758BF45466D1E48BF002521
:100F9000BAF1670F14BF4FF0450A4FF0650A04E03D
:100FA000BAF1410F08BF4FF0500AB169F368481C0D
:100FB000B061002D17F8012B5A5403DC96F8381055
:100FC0000A071BD5F168431CB36101F80090002D9E
:100FD00014DDA8F101080FFA88F039468542F76858
:100FE000B8BFA8460FFA88F2F81800F0D3F9B06934
:100FF0000FFA88F108446D1AB0617562F068B16942
:101000000844002C80F800A003D42B224270811CDD
:1010100003E02D2141706442811C00206A460AE0F1
:1010200023460A2493FBF4F404EB8405A3EB450365
:1010300002F8013B401C24B2002CF1DC012806DC44
:101040004AF02002652A04BF302201F8012B48B97A
:10105000302001F8010B07E0401E1DF8003030334E
:1010600001F8013B0028F7DCF268B0691044091A66
:10107000F16196F8380000F0140010280DD1726963
:10108000B169706A8A18F1698218B06A8A18821880
:10109000706B8242BCBF821A326204B0BDE8F08736
:1010A000F8B505460E4617461C46002074B117F8E1
:1010B000011BB068A847B06030B1F06A401CF06214
:1010C0000020641EF3D1F2BD4FF0FF30F2BD0000EE
:1010D0007072696E74665F733A20256E206469735E
:1010E000616C6C6F776564007072696E74663A202B
:1010F00062616420256E20617267756D656E740093
:101100007072696E74665F733A2062616420257341
:1011100020617267756D656E740000007072696E93
:1011200074665F733A2062616420256C732061727B
:1011300067756D656E74000000000000000000001F
:101140006E616E004E414E00696E6600494E46006B
:101150003000F0B40246106895681318506803EB2D
:101160005004C0071DD54D441BE013F8017B05F862
:10117000017B491EF9D1A0B1B60813F8011B06F096
:101180000306032E08BF13F8016B01EB0621494249
:10119000801C294405D011F8016B05F8016B401E35
:1011A000F9D1A3420ED013F8016B16F0030104BF6E
:1011B00013F8011BC91C30090F28DAD113F8010BF1
:1011C0000F30D6E7F0BC02F10C0070471B487047A7
:1011D00070B45368D418042B09DA41B1057804F8C7
:1011E000015B10F8016B16B15B1C491EF3E75360FD
:1011F00070BC704738B514461D4661B1FFF7E8FF73
:1012000061686A6B204690476FF00102811A02D034
:10121000491E01D001E003E005E00021616032BD1C
:101220006FF0010032BD4FF0FF3032BDDA6B104776
:10123000024BDFE7014BF9E70148704754000020FB
:101240001C0000200278C9B28A421AB11CBF10F8F3
:10125000012FF9E718BF0020704730B4002513E0D4
:1012600050F8042BD30744BFA9F101039A18091FB2
:10127000042942F8045BFAD213468C0744BF158058
:101280009B1CC90748BF1D7050F8041B0029E7D1FB
:1012900030BC704780B500B906A005490B681BB18A
:1012A00022220021984701E000F09FFD222002BD8C
:1012B000A4480020636F6E73747261696E74206855
:1012C000616E646C65723A20626164206D6573734F
:1012D0006167650000F10103810704D010F8011B6C
:1012E000820781B1FAD10268A2F10131914311F074
:1012F000803104BF50F8042FF6E709BAB1FA81F142
:1013000000EBD100401CC01A7047B1F5807F02D3BA
:101310004FF0FF3070470170012070470078401E89
:101320008041C043C00F7047C9B2830706D0521E28
:1013300022D310F8013B9942F7D11FE0083A13D3AA
:1013400002F1040241EA012141EA014150F8043B63
:10135000121F21BF4B40A3F1013C2CEA030C1CF0EF
:10136000803FF3D0C9B2001F083210F8013B521E73
:1013700028BF91EA030FF8D818BF0120401E70471C
:1013800080B5FFF723FF006C02BD0268531C0360A9
:101390001170704762B38B0708D0521E11F8013BE1
:1013A00000F8013B00F024808B07F6D1830740F062
:1013B000208000BF103A07D330B4B1E83810103A9B
:1013C000A0E83810F9D230BC530724BFB1E80810A8
:1013D000A0E8081044BF51F8043B40F8043BD20792
:1013E00024BF31F8022B20F8022B44BF0B78037086
:1013F0007047121F17D35B0009D151F8043B20F846
:10140000023B1B0C121F20F8023BF6D20BE051F8F6
:10141000043B00F8013B1B0A20F8023B1B0C121F87
:1014200000F8013BF3D238BF121D521E24BF11F841
:10143000013B00F8013BF8D870470000BBBBE1B1AD
:10144000B2F5803F80F07E80022A1ED98C46B1FB27
:10145000F2F102FB11C31B0443EA1043B3FBF2FC9D
:1014600002FB1C3380B240EA0343B3FBF2F002FB01
:10147000103240EA0C4000237047022A05D9844606
:10148000B0FBF2F002FB10C270474AB105D100F088
:10149000010249085FEA30007047002200237047CC
:1014A00000F0A6BC0B000200002100207047904213
:1014B00071EB030CF6D3B3F5803F2FD2F0B5B3FA3E
:1014C00083F7B1FA81F4A7F10F0E3D1B5340CEF123
:1014D000200602FA0EF2F3415340B5F10F0746D849
:1014E0000F3C2C444140C4F12006A040F141414052
:1014F000B1FBF3F603FB1611A2FB0645001BA94145
:1015000002D2761E8018594180EA010221FA0EF3B8
:1015100062FA0EF200215A403046F0BD30B4B1FB01
:10152000F3FC03FB1C11A2FB0C45001BA94103D2D9
:10153000ACF1010C8018594130BC02460B466046A4
:1015400000217047B2F1807F65D3F0B5B2FA82F71F
:10155000B1FA81F4C7F10F063D1B22FA06F307F139
:10156000110EF24120355A40B5F10F07B8D941406C
:10157000C4F12006A040F1414140B1FBF3FC03FB64
:101580001C11A2FB0C45001BA94103D2BCF1010CAC
:10159000801859410F2F12D30F3FC90341EA504120
:1015A000B1FBF3F603FB1611A2FB0645D4EBC030EA
:1015B000A94102D2761E8018594146EACC3C07B3B5
:1015C0004140C7F12006B840F1414140B1FBF3F67C
:1015D00003FB1611A2FB0645001BA94102D2761E91
:1015E0008018594180EA010221FA0EF3C7F1200464
:1015F00062FA0EF20CFA07F05A402CFA04F130436A
:10160000F0BD80EA010221FA0EF3002162FA0EF227
:1016100060465A40F0BD8C46B1FBF2F102FB11C3AB
:101620001B0243EA1063B3FBF2FC02FB1C331B02F8
:101630004CEA002043EA1063B3FBF2FC02FB1C33CC
:101640001B024CEA002043EA1063B3FBF2FC02FBEE
:101650001C331B024CEA002043EA1063B3FBF2FC8C
:1016600002FB1C324CEA002000237047B0B581EA2F
:10167000030C0CF0004C40F2FF7515EA11541DBF2D
:1016800015EA1357AC42AF4239E0E41923EA455357
:1016900043F48013C90241F0004141EA505EC702A1
:1016A0001100A7FB020200284FF00000EEFB012012
:1016B0004FF00001E3FB072118BF42F00102401880
:1016C00000214941E3FB0E01A4F580640F0302D21F
:1016D00052004041494154F101046CDD470872F168
:1016E000004250F1000051EB0451A1F580115CBFA4
:1016F00041EA0C01B0BD4CEA05510020B0BD05EA3D
:101700001357AC4214BFAF4241E050EA410E1CBF38
:1017100052EA430E02E061460020B0BD24423C4440
:101720001BD15FEA070EF6D0090302BF0146002075
:10173000AEF1140EB1FA81F7AEEB070401FA07FE21
:101740000C37C7F1200100FA07F7C8404EEA000E37
:1017500023EA455343F48013A2E733F00043B3FA7E
:1017600083F704BFB2FA82FE77440B3FE41BB7F164
:10177000200E2FBF02FA0EF3BB40C7F1200E22FA53
:101780000EFE38BF43EA0E03BA40641C82E750EAFB
:10179000410E14BF52EA430E6FF000014FF40017E0
:1017A00017EB430F8ABF194617EB410FB5E74CEA19
:1017B00005510020B0BDD4F10104B4F120070FDAC7
:1017C000C4F12007520828BF42F0010210FA07F5C1
:1017D00001FA07F7E1BF2A43E0403843E1400FE058
:1017E000352C98DCC7F1200452EA400220FA07F2B7
:1017F00018BF42F0010231FA07F0A1400A4300216C
:1018000072F1004250F1000051EB0C01B0BD00003C
:1018100010B5144600F002F8226010BDC1F30A535F
:1018200043B14A0012F5001F28D2A3F2FE32A1EB09
:101830000251704750EA410C20D001F0004C31EACF
:101840000C01B1FA81F204BFB0FA80F3D2180B3A5E
:10185000B2F120032CBF00FA03F1914041EA0C01E0
:101860003EBFC2F1200C20FA0CF3194390405242C3
:1018700040F2FD33D21A01EB03517047002270474A
:101880004FF4001C1CEB410F94BF1CEB430F09E00D
:1018900041EA030C50EA4C0C52EA0C0C03D2994278
:1018A00008BF9042704714BF8B42824270470000CD
:1018B0004FF4001C1CEB410F94BF1CEB430F09E0DD
:1018C00041EA030C50EA4C0C52EA0C0C03D28B4256
:1018D00008BF8242704714BF99429042704700008F
:1018E000124254D440F2FF7C1CEA11530FD06345DE
:1018F00031D09B1863453CBF01EB0251704701F0AA
:10190000004141EA0C510020AFF30080704750EADB
:10191000410320D001F0004C91EA0C011CD0B1FA37
:1019200081F30B3B9A420DD9D21A994051EA0C012E
:10193000C3F1200C20FA0CFC61449840531C40F287
:10194000FF7CD7E7914041EA0C01C2F1200C20FA5C
:101950000CF3194390407047B0FA80F31533202BF5
:10196000E0D3202AEED3203A203B9A4209D9D21A5A
:1019700000FA03F141EA0C010020531C40F2FF7C05
:10198000B8E700FA02F141EA0C0100207047524228
:1019900040F2FF7C1CEA11530DD06345DBD0B2EB63
:1019A000030C3CBFA1EB025170470CF1010221EA8C
:1019B000035141F4801150EA410CCCD001F0004CAD
:1019C000352A27DC30B481EA0C01B2F1200309DAB0
:1019D000C2F12003044601FA03F5D0402843D14068
:1019E0009C400CE0C3F12002450020FA03F418BF2C
:1019F00044F0010421FA03F091400C43002174F1FA
:101A0000004550F1000051EB0C01244230BC7FF442
:101A10007BAF70476146002076E70000C1F30A53B0
:101A200040F2FE329B1A14DDD3F120034FEAE1723B
:101A300008DDC90241EA505141F00040D840801809
:101A40005040704703F2E13010B1D24382F00040C1
:101A50007047002070470000C11768B14840401A25
:101A6000B0FA80F29040D21CC907C2F5846241EA04
:101A7000025202EBD02140057047000070B44FF0D5
:101A8000004591EA030F40F1B5816B40841A71EB78
:101A9000030603D2001BB141121973414FF4001C1D
:101AA0001CEB410F34BF7CEB430442E00C0DA4EB74
:101AB0001356352E4FDC45EAC323DB0A45EAC12124
:101AC000C912B6F120050DDD63FA05F6EB4086EA92
:101AD0000305124218BF45F00105C01851F100017D
:101AE0000CD213E062FA06F5F2405540F3415A4039
:101AF000B340F3405A408018594107D349085FEA80
:101B000030005FEA350528BF45F0010501F5801179
:101B1000420875F1004250F1000041EB04514E00C3
:101B200016F5001F70BC38BF70470020090D09056D
:101B300070471CEB410F10D252EA43060BD0BCEBAE
:101B4000410F05D80C0DAB43661E342EB6DD02E006
:101B5000AB438018594170BC704770BC704700009F
:101B6000F0B540F2FF7581EA030C0CF0004C15EA69
:101B700011541DBF15EA1357AC42AF42E5E0BC411A
:101B8000C1F31301C3F31303801A994143F4801383
:101B900004D2641E4000494180185941C90241EAFB
:101BA0005051B1FBF3F603FB1611A2FB0675D7EB00
:101BB000C020A94102D2761E80185941C90241EACB
:101BC0005051B1FBF3FE03FB1E11A2FB0E75D7EBC8
:101BD000C020A94103D2AEF1010E801859418902FB
:101BE00041EA9051760546EA8E2EB1FBF3F603FBEF
:101BF0001611A2FB0675D7EB8020A94102D2761EF2
:101C000080185941C90241EA50514EEA060EB1FB13
:101C1000F3F603FB1611A2FB0675D7EBC020A94112
:101C200002D2761E80185941C90241EA5051B1FBD7
:101C3000F3F703FB1711A2FB0735D3EBC020A94133
:101C400067F100070CBF004247F0010766F3D52794
:101C50004FEA1E31B80814F5806412DDBD0775F136
:101C6000004250EB0E5051EB045111F5801F5CBF48
:101C700041EA0C01F0BD4CF07F6141F0E0410020F1
:101C8000F0BDBD076D0840EA0E5041F48011D4F15B
:101C90000104B4F120060ADAC4F120060200E04093
:101CA00001FA06F3E1401843B24015430EE0342C2C
:101CB00013DCC6F1200445EA40056D0820FA06F25F
:101CC000154321FA06F0A1400D43002175F10042B1
:101CD00050F1000051EB0C01F0BD00205FEA0C0157
:101CE000F0BDCFB992185B41B3FA83F704BFB2FAE3
:101CF00082F6BF190B3FB7F120062FBF02FA06F399
:101D0000BB40C7F1200622FA06F638BF3343BA407B
:101D10001CB1E419641E33E77F4231F00041B1FA8F
:101D200081F404BFB0FA80F6A4190B3CB4F120068C
:101D30002FBF00FA06F1A140C4F1200620FA06F6F2
:101D400038BF3143A0403C1B1AE7AC421ABF05EA3A
:101D50001357AF4212E050EA41061CBF52EA430655
:101D6000BFE750EA4107304661461CBF41EA0551D2
:101D7000F0BD52EA430C08BFC143F0BD00204FF450
:101D8000001616EB410F98BF16EB430F08BF16EB7A
:101D9000410F24BFC14305E016EB430F0CBF614662
:101DA0004CEA0551F0BD0000400D491840EA812081
:101DB0000CD2490DA1F58061491C40F0004005DBC3
:101DC000D1F11F0154BFC840C017704700207047B1
:101DD000014648B1B0FA80F18840C91CC1F5846160
:101DE000090501EBD02140057047012000F0B8B88B
:101DF00070470000841A71EB030604D26E40001B8A
:101E0000B141121973414FF4001C1CEB410F34BF58
:101E10007CEB430683E00C0DA4EB1356362E00F347
:101E20007C80012E45EAC32341DC43EA525312BFB2
:101E3000D20292025B08240545EAC12141EA5051D1
:101E4000D2EBC020994125D407D1B0FA80F610FA20
:101E500006F162D00020203608E0B1FA81F6B140E8
:101E6000C6F1200220FA02F21143B0404FEAF474A6
:101E7000B4EB465434F001064FEA74040AD8D6F5A0
:101E80000016760D04F00044F04061FA06F250406E
:101E9000F1404840C00A40EA415021F0004128BFCB
:101EA0005FEA500550F1000044EBD12135E0DB0A38
:101EB00045EAC121C90AB6F120050EDD42EA024217
:101EC000120CC5F1200603FA06F6EB4042EA0605BD
:101ED0006D42984161F100010DE062FA06F5F240B1
:101EE000554063FA06FC82EA0C02F3405A406D4208
:101EF000904161EB030111F4801F05D1641E62055E
:101F000002D06D004041494121F48011430875F130
:101F1000004350F1000041EB045170BC70471CEBD2
:101F2000410F15D223F0004352EA43060BD04FEA8B
:101F30004C0CBCEB410F04D80C0D661E342EB7DDE3
:101F4000EBE7801A994150EA410608BF0021E4E717
:101F500008BF1CEB430F28BF6FF00001DDE7000056
:101F600080B5AFF30080024A11001820ABBEFBE73A
:101F70002600020038B5040001D1012032BD00F076
:101F800021F808B900F022F800F012F800F023F868
:101F9000FFE7416100F001F832BD2068C16841F4FB
:101FA0000051C1600020686020216970A9707047ED
:101FB000242068702068C16821F40051C160204667
:101FC00000F0F6B904F138056878704700212970EF
:101FD000204600F0E2BA2068016921F490410161D5
:101FE0002068416921F02A0170472DE9F84F054624
:101FF00099462B68DFF8F8B4DFF8F8845B450C46A7
:10200000164602D1012200F06BF805F13807787806
:10201000202846D1002C18BF002E06D1286858452C
:1020200001D100F05CF8012041E0387801283DD072
:10203000012139700020786021227A7000F02AFB9B
:10204000AE848246EE8403E0296814F8010B4860F0
:10205000E88C00282DD0E88C411EE984534600F01E
:1020600044F80ED100F036F800282CD120882968D9
:10207000C0F3080048602869002814BF641CA41C31
:10208000E6E700F027F80028DED01CE0202078707A
:10209000002139702A685A4501D100F020F800204B
:1020A00005E02868584501D100F019F80220BDE884
:1020B000F28FCDF80090534600224021284600F0D0
:1020C000EDF80028E2D02868584501D100F007F863
:1020D0000320ECE700228021284600F0DFB8002230
:1020E0004FF40041404600F0A8BBA868CDF800902E
:1020F000B0F5805F704710B500F138039C78202C54
:102100001DD109B1140001D1012010BD1C78012C92
:1021100015D001241C7081628285C285002159601E
:1021200022229A70197001684A6942F001024A61DC
:102130000068C16841F49071C160002010BD0220A8
:1021400010BD416921F040014161606B704738B5B5
:10215000044625682968EA686B6911F00F0007D109
:1021600088065DD593065BD52046BDE83240DBE0AE
:10217000D80702D412F4907F52D0C80705D5D505F0
:1021800003D5E06B40F00100E063480705D5DD07AB
:1021900003D5E06B40F00200E063880705D5DD075A
:1021A00003D5E06B40F00400E063080705D5DB07CA
:1021B00003D5E06B40F00800E063E06B00286CD0D2
:1021C000880604D5910644BF204600F0ADF820688B
:1021D0004069E16B0A0701D440061BD5204600F098
:1021E0008FF8206841694A060FD5FFF7AAFF60B152
:1021F0000FF229110165606B00F038FB00284CD00C
:10220000606B016DBDE8344008472046BDE83240B0
:1022100000F03EBB204600F03BFB0020E06331BDF8
:1022200008062AD5130628D594F83900212834D178
:10223000A068B0F5805F206A0BD10188C1F3080166
:10224000696020690028206A0CBF811C411C216242
:1022500003E0411C216200786860E08C401EE0844D
:1022600080B2D0B92068C16821F08001C1602068C7
:10227000C16841F04001C16031BD48060DD551062D
:102280000BD5E86820F04000E860202184F8391080
:102290002046BDE8324000F0FCBA31BD2DE9F041E6
:1022A000069C05460E4690461F4628680168314048
:1022B000B1420CBF01200020404517D114F1010F9D
:1022C000F3D024B100F0E6F9C01B8442EDD22868B7
:1022D000C16821F4D07100F00CF805F1380020211C
:1022E0004170817000210170032000E00020BDE8F2
:1022F000F081C1602868416949084900416170471F
:102300000168CA6822F49072CA6001684A6952087A
:1023100052004A61202180F83A107047806B0021FA
:10232000C185C18400F0B4BA80B590F83A10222972
:102330003CD18168B1F5805F12D101690368826A7E
:102340000029596805D1C1F308011180826A911CE6
:1023500004E001F0FF011180826A511C81620FE0EC
:1023600001690029816A04D14A1C826203685A68A3
:1023700005E04A1C826203685A6802F07F020A7014
:10238000C18D491EC18589B271B90168CA6822F43C
:102390009072CA6001684A69520852004A6120215D
:1023A00080F83A1000F057F9002002BD022002BD6B
:1023B0002DE9F0470446642522681169E06821F49C
:1023C0004051014311611926D3684B48A16803406D
:1023D00020690B4361690343E0690B430343D36006
:1023E0005169A06921F4407101435161E369434897
:1023F0004349B3F5004F3BD18A4218BF82420ED108
:1024000000F0D5FA074600F0D2FA804600F0CFFA85
:10241000814600F0CCFA824600F0C9FA0DE000F0E7
:10242000BEFA074600F0BBFA804600F0B8FA8146D3
:1024300000F0B5FA824600F0B2FA6168490000F097
:1024400070F8AE46BCFBFEFE05FB1E77FF00323780
:102450006423B7FBF3F35B0003F4F87300F052F866
:10246000ED0032356420B5FBF0F000F0070039E0F4
:102470008A4218BF82420ED100F099FA074600F056
:1024800096FA804600F093FA814600F090FA824670
:1024900000F08DFA0DE000F082FA074600F07FFAB6
:1024A000804600F07CFA814600F079FA824600F01E
:1024B00076FA6168890000F034F8AE46BCFBFEFE97
:1024C00005FB1E773F0132376423B7FBF3F303F0BC
:1024D000F00300F017F82D0132356420B5FBF0F061
:1024E00000F00F002168C3188B60BDE8F087000082
:1024F0000078004000080240F369FFFF001401402B
:102500000010014003EB021306FB0AF74643B7FB3A
:10251000F1F2B6FBF1F06421B0FBF1F105FB1125FE
:1025200070477743B7FBF1F36422B3FBF2F206FB8B
:1025300008F3B3FBF1F706FB09F3B3FBF1FC7047BB
:1025400080B54E484E4941604FF4E132826000212F
:102550000C22C160016141618261C1610162001DA3
:10256000FFF708FD00B114E001BD80B545484649BC
:1025700001604FF4E13200230C2142608360C360AC
:10258000036141618361C361FFF7F4FC00B100E0C6
:1025900001BDBDE8014000F03FBB10B586B0044668
:1025A00001A8142100F03AFB2268354B374838491E
:1025B0009A421AD1002200920B6943F080430B61CA
:1025C00000230A6902F080420092009A00934FF4BF
:1025D000014200F030F8082200F028F8002205211E
:1025E000522000F039FB52201CE0274B9A421BD1AD
:1025F000002200924B6943F010034B6100234A69AB
:1026000002F010020092009A00934FF4C06200F0B2
:1026100012F8072200F00AF800220A21252000F013
:102620001BFB252000F035FB06B010BD049305927E
:1026300001A900F035B80C6844F001040C600223D5
:10264000096801F0010100910099019202930122B1
:102650000392032370470068094A904200D07047F4
:1026600010B5064C217804F1440000F048FB2146E7
:10267000201DBDE810400122FFF73DBDFC3C0020BD
:102680000078004008470020001001400000024090
:102690003038024001484068704700BF0C000020FD
:1026A0002DE9F84702460B46002466480F21012712
:1026B0001D68A74007EA0508B84540F0B8805D6886
:1026C000022D18BF122D4FEA840911D1E50802EB43
:1026D000850C09F01C05DCF820E0D3F810A001FA05
:1026E00005F62EEA06060AFA05F53543CCF8205021
:1026F0004FEA440C0326156806FA0CF66FEA060E3C
:102700001E7906F003060EEA050506FA0CF63543B7
:1027100015605D68012D18BF022D03D0112D18BF63
:10272000122D10D19568DE680EEA050506FA0CF642
:1027300035439560556825EA07075D68C5F30015C0
:10274000A5402F435760D7680EEA07059F6807FA30
:102750000CF63543D5605D68EF0068D5002500951F
:1027600009F00C090768384E47F48047076001FA02
:1027700009FE056805F480450095009FA70856F8F6
:10278000275025EA0E0E314DAA4208BF00251DD064
:102790002F4DAA4208BF012518D02E4DAA4208BFCE
:1027A000022513D02C4DAA4208BF03250ED02B4D75
:1027B000AA4208BF042509D0294DAA4208BF052511
:1027C00004D0284DAA420CBF0625072505FA09F5B5
:1027D00045EA0E0546F827506FEA0807224E35688D
:1027E00007EA050C5D68ED0348BF48EA0C0CC6F823
:1027F00000C0756807EA050C5D68AD0348BF48EA8C
:102800000C0CC6F804C0B56807EA050C5D68ED025B
:1028100048BF48EA0C0CC6F808C0F56807EA050C82
:102820005F68BD0248BF48EA0C0CC6F80CC0641CC7
:102830000F2C7FF63CAFBDE8F18702B90904816136
:102840007047000044380240083801400000024050
:102850000004024000080240000C02400010024048
:102860000014024000180240003C014090F835106E
:10287000022903D08022426501207047052180F89B
:10288000351000680268520852000260002070474C
:10289000704770472DE9F04104000F4677D0564E3F
:1028A000306800F00F00B84202D200F072F86ED12A
:1028B0002068524D810712D5400703D5A96841F41D
:1028C000E051A9602078010703D5A86840F4604072
:1028D000A860A968A06821F0F0010143A9602178EF
:1028E000C8074CD56068012802D129688A0305E031
:1028F000022818BF032803D129688A0103D446E0BF
:1029000029688A0743D5A968890840EA8100A86038
:10291000FFF7C0FE8046A868616800F00C00B0EBCD
:10292000810F2CD0FFF7B6FEA0EB080041F28931F1
:102930008842F0D3032020E02078410705D5AA681B
:10294000E06822F4E0520243AA602178080706D525
:10295000A968206921F4604141EAC001A96000F042
:1029600057F8AA682649274BC2F30312895CC8406E
:102970001860002000F0ECF90020BDE8F08130681C
:1029800000F00F008742D7D200F003F8D4D0012026
:10299000F3E73770316801F00F01B9427047194809
:1029A000194A006813681949C3F3822206E01548E2
:1029B000154A006813681549C3F34232895CC84060
:1029C000704710B50F2202600F4A136803F003032B
:1029D0004360146804F0F0048460136803F4E05367
:1029E000C3601268D20802F4E05202610248026831
:1029F00002F00F020A6010BD003C024000380240A5
:102A0000C84D000818000020083802400C4F00088C
:102A100030B5144C606800F00C00042802D008287F
:102A200002D01DE0104830BD22682068002341021A
:102A300002F03F0204D525680B49C5F3881003E076
:102A400020680A49C0F38810A1FB0001FEF7F6FCDC
:102A50002168C1F30141491C4900B0FBF1F030BDD0
:102A6000024830BD0438024000127A000024F4000D
:102A700001B500995F480A294FF6FF7304D102227D
:102A80005BA1FFF7B2FA03E001226946FFF7ADFA56
:102A9000009802BD80B500F099F900F034F800F01C
:102AA000AFF900F007FA00F06BFAFFF749FDFFF706
:102AB0005CFD00F07BFA00220721252000F0CCF815
:102AC000252000F0E6F800220521522000F0C4F88D
:102AD000522000F0DEF800220621192000F0BCF898
:102AE000192000F0D6F8444800F0C5FA43490A68B6
:102AF0004CF6CC40106000234148036000F07EFC9F
:102B000000F090FDFEE700B593B006A8342100F078
:102B100085F801A8142100F081F8002000904FF4FE
:102B200080333848016841F080510160002100681D
:102B300000F080500090009833480091026842F401
:102B4000404202600922006800F44040009006A85C
:102B500000990692012102220B910C924FF4800100
:102B600004220D910E926421022207930F9110927C
:102B70001192129200F07AFD022102910F204FF47F
:102B8000805101900022049103920592032101A833
:102B9000FFF780FE13B000BD10B500681B498842E6
:102BA0001DD117484168491CB1F57A7F03D182686D
:102BB000521C00218260416040F2F5120168491CFC
:102BC0009142016006D30D4B1A684AF6AA211160A2
:102BD000002404600E480188491C018010BD0D4A84
:102BE000904203D1BDE8104000F0C0BE10BD00000F
:102BF0000D0A000008470020844700208C48002070
:102C00009848002040380240007000400000014019
:102C1000264800200010004070470000002200F00D
:102C2000ADBE00000901020006D51F4A00F00F00EA
:102C3000104400F8041C70471C4B195470471C4B7F
:102C400019684FF6FF020002114000F4E0600843EB
:102C5000184908431860704738B5154B1C68C4F311
:102C60000223C3F10704052C28BF04241D1D072DD2
:102C700034BF0023DB1E012505FA04F4641E214045
:102C8000994005FA03F35B1E1A401143BDE8344036
:102C9000C8E7012200F01F01074BFFE78A40400907
:102CA00043F820207047000018ED00E000E400E049
:102CB0000CED00E00000FA0500E100E000F5006026
:102CC000002141800180704700F500604188008844
:102CD000491C8A1201EB5253DB12A1EBC321814242
:102CE00001D1012070470020704700F50060018885
:102CF0004088814201D1012070470020704738B5DB
:102D000004460D46FFF7E0FF68B9B4F80208255401
:102D1000B4F80208401C811200EB5152D212A0EB11
:102D2000C220A4F8020831BD10B50446FFF7DDFF4C
:102D300008B1002010BDB4F80018605C491C8A126C
:102D400001EB5253DB12A1EBC321A4F8001810BD14
:102D500018B5014687B000223620FFF77DFF3620E8
:102D6000FFF797FF00200090144C1548016841F0D0
:102D70001001016001A9006800F0100000900098A7
:102D800002A8FFF71EFEFFF70AFE0E49216040F27F
:102D9000E73240000C49E260B0FBF1F0401E606099
:102DA00000222261A260204600F058F918B920469E
:102DB00000F061F900E0012008B010BD4847002094
:102DC000403802400010004040420F0080B50B48E0
:102DD000016841F400710160026842F4806202609F
:102DE000016841F4807101600320FFF728FF002093
:102DF000FFF7AEFF00F0DCFD002002BD003C02400A
:102E000038B586B001A81421FFF708FF0024224836
:102E1000224D00940168224C41F0040101600268D7
:102E200002F004020092002200990092036843F02D
:102E300080030360016801F0800100910099009215
:102E40004FF40041036843F001030360006800F0A1
:102E50000100009000982046FFF7EFFC0022F021CF
:102E60002846FFF7EAFC4FF4004100F01BF820462B
:102E7000FFF716FC0F20002101900291012203921E
:102E800001A92046FFF70CFCF02100F00BF82846C2
:102E9000FFF706FC07B030BD3038024000000240AA
:102EA0000008024001910122002103910491029245
:102EB00001A9704738B584B068461021FFF7AEFE0F
:102EC0004FF48030294C2A4D606000212948A062CF
:102ED000A1600120E06160612161A1612162E16284
:102EE000E16021632560204600F082FD08B1FFF714
:102EF00093FE002001210090019102906946204636
:102F000000F087FE08B1FFF787FE05B030BD38B589
:102F100086B0044601A81421FFF780FE2468144DF2
:102F2000AC4220D10020009000221348416941F4B6
:102F300080714161416901F48071009100990092B2
:102F40000121036843F0010303600322006800F0DD
:102F5000010000900098094801910292002103911C
:102F600001A9FFF79DFB07B030BD0000C04600205F
:102F7000002001400100000F3038024000000240F4
:102F800080B50848084903224FF47A730160426013
:102F9000836000F061FF18B1BDE80140FFF73CBE5F
:102FA00001BD00BF8C48002000300040D0B586B085
:102FB00002A81021FFF732FE26A42348D4E90067B7
:102FC000224C20604FF47A70CDE900676421002222
:102FD000E0606160A26022616261204600F03EF81C
:102FE00008B1FFF719FE4FF48050029002A9204665
:102FF00000F002F908B1FFF70FFE002100910191E6
:103000002046694600F04AFF08B1FFF705FE06B00A
:10301000D0BD00680C49884200D0704780B50022BE
:103020000B480092016841F001010160092100682C
:1030300000F00100009000981920FFF70DFEBDE898
:1030400002401920FFF725BE000001408447002000
:1030500044380240000000000000000038B50400C1
:1030600001D1012032BD00F01FF818B900F018F8A6
:10307000FFF7CFFF0AE00068C16841F00101C160BD
:10308000026842F00102026000207047022068706E
:10309000211D206800F01BF901206870002032BD5E
:1030A000002129702046704704F138056878704780
:1030B00010B50446206801698A0715D5C1688A07DA
:1030C00012D56FF00201016101222276806910F0B1
:1030D000030F204602D000F006FF03E000F004FFDB
:1030E00000F087F800202076206801694A0715D58E
:1030F000C1684A0712D56FF00401016102222276ED
:10310000806910F4407F204602D000F0ECFE03E01E
:1031100000F0EAFE00F06DF80020207620680169DA
:103120000A0715D5C1680A0712D56FF008010161B9
:1031300004222276C06910F0030F204602D000F06E
:10314000D2FE03E000F0D0FE00F053F8002020761D
:1031500020680169CA0615D5C168CA0612D56FF084
:103160001001016108222276C06910F4407F2046D8
:1031700002D000F0B8FE03E000F0B6FE00F039F82F
:103180000020207620680169CA0708D5C168CA07EF
:1031900005D56FF0010101612046FFF7FDFC2068B5
:1031A00001690A0608D5C1680A0605D56FF08001D5
:1031B0000161204600F099FE206801694A0608D5A1
:1031C000C1684A0605D56FF040010161204600F054
:1031D0008DFE206801698A060AD5C1688A0607D56E
:1031E0006FF0200101612046BDE8104000F07FBE75
:1031F00010BD204600F07CBE38B500F05CF801D16F
:10320000022032BD0120207002226270DFF85001DE
:103210002A689368034093600A68002A37D0102A0E
:1032200037D0202A37D0302A37D0402A2BD0502A06
:103230001ED0602A20D0702A0BD0B2F5805F03D058
:10324000B2F5005F0CD02CE028688168C908C9007D
:103250000CE000F02BF82868816841F0770105E068
:1032600000F024F82868816841F48041816018E00A
:1032700000F018F8502111E0CA684968286800F089
:1032800098F860210AE000F00DF8402106E00021E6
:1032900004E0102102E0202100E03021286800F045
:1032A0009AF80EE0CA684968286871E0CB684A68F5
:1032B0008968286897E0054605F1380420780128D8
:1032C00070470120607000212170002032BDF0B5F0
:1032D000244C0568244B254E254FDFF898C0A042AA
:1032E00018BFB0F1804F07D0604518BFB84203D077
:1032F000B04218BF98420DD14A6825F070051543B9
:10330000A04218BFB0F1804F17D060451CBFB84233
:10331000B04212D098421CBF174A90420DD0174EAF
:10332000B0421CBF164A904207D0164EB0421FBF93
:10333000154A9042154EB04203D1CA6825F4407533
:1033400015430560A0428D68C5620A68826212BF9B
:1033500098420969016301224261F0BD000000004A
:103360008800FFFF0000014000040140000C004005
:1033700000080040000400400040014000440140BB
:103380000048014000180040001C004000200040A0
:1033900010B5036A046A64086400046223F00A0337
:1033A000846924F0F00444EA021484611943016240
:1033B00010BD10B5036A23F0100303628369046A29
:1033C00023F4704343EA023324F0A004836144EA07
:1033D0000114046210BD826822F07002114341F0B2
:1033E00007018160704710B5846824F47F4421434D
:1033F000114341EA0321816010BD000018B58FB070
:103400004FF4FA7000F076FD00F088FD00F0F2FD58
:1034100000F036FE0DF1280070A1604C1422FDF77B
:10342000C9FF00210AA800F002F92060142205A8B3
:103430006FA1FDF7BFFF002105A800F0F8F860605C
:10344000142268466FA1FDF7B5FF0021684600F021
:10345000EEF8A06010B010BD2DE9F84DDFF8408106
:10346000B3B04046FFF72AFCDFF838B14E490122DD
:103470005846FEF740FE4D4856A102783032684665
:1034800000F046FF00250026494F1AAC0FE001A8C6
:1034900000F042FE0620F8704FF47A730F2239468E
:1034A0005846FEF7A2FD0025012000F0D7F840465F
:1034B000FFF71BFC0028F7D14046FFF735FC6055AD
:1034C0006D1C300025D1032DEED10020E0700322C9
:1034D00069461AA800F03CFFA0B90126E4E79DF870
:1034E0000700022806D0032825D00628CFD01628AA
:1034F000D1D0D8E700F065FE2E482F4902884FF45E
:103500007A73CDE760788DF868000225A178617044
:10351000CAE7062D05D8C7D12079617941EA002A8A
:10352000C2E70AF106029542BED11AA901A8FDF729
:1035300041FF0026D3E700F06CFE20482049DDE77C
:1035400080B5012000F08AF8FBE738B51D4C1E4D10
:103550000DE0402100F03AF8A87F00280CBF0022BF
:103560000122802100F032F8012000F077F8A879DC
:10357000002814BF01220022102100F027F8A87BA8
:10358000002814BF01220022202100F01FF8A87D8E
:10359000002814BF01220022DBE700008048002041
:1035A000403D0020003D0020FC3C00207E480020E3
:1035B000F44700207C480020544800202448002084
:1035C0002848002000000240044800202046FFF761
:1035D00034B900004D25635400000000344E00084B
:1035E0005934000802000000000000000002000042
:1035F000404E000841350008FFFF000000000000B9
:10360000000100004C4E00084B350008000000008F
:10361000000000000001000001460020842918BFBE
:10362000C81C704780B500F0A3FF002002BD3EB566
:1036300004460D46B4F90800FFF7EEFF02A9019118
:1036400000902B4622692168606892B200F0B4FEB7
:10365000012801D000203EBD02983EBD80B500B9D2
:10366000012000F062FF002002BD00002DE9F843B8
:103670000646DFF8E8523078C10745D5A86800F063
:103680000C00042807D0A86800F00C0008280BD113
:103690006868410208D52868810335D5706800281C
:1036A00040F0B88001204FE17068B0F5803F04D150
:1036B000286840F48030286011E0B0F5A02F286819
:1036C00006D140F480202860296841F4803105E06B
:1036D00020F480302860296821F4802129607068F6
:1036E00068B1FEF7D7FF04462868810300F1928095
:1036F000FEF7D0FF001B6528F6D3032024E1FEF778
:10370000C9FF04462868810340F18480FEF7C2FFA8
:10371000001B6528F6D3F0E7FEF7BCFF001B02286C
:1037200040F2A580E9E7F06870B101213960FEF749
:10373000B1FF04462868810700F1C780FEF7AAFFA1
:10374000001B0228F6D9D8E73860FEF7A3FF04462D
:103750002968880761D5FEF79DFF001B0228F7D96D
:10376000CBE70860FEF796FF0446686F810773D5C4
:10377000FEF790FF001B0228F7D9BEE70528286F47
:1037800006D140F004002867286F40F0010005E0F2
:10379000400840002867286F20F00400286741F2A5
:1037A0008938B06868B1FEF775FF8146286F8107D8
:1037B00000F19880FEF76EFFA0EB09004045F5D3BD
:1037C0009BE7FEF767FF8146286F810740F18A80FB
:1037D000FEF760FFA0EB09004045F5D38DE7FEF74B
:1037E00059FF001B022840F2908086E7FEF752FF47
:1037F000001B022840F2A3807FE700F0A7F80446F0
:103800002868810140F19F80FEF744FF001B0228D9
:10381000F6D972E73078534F81071BD5A86810F0AE
:103820000C0F09D0A86800F00C0008287FF47BAFCB
:10383000686841023FF577AF2868810703D5F068D3
:1038400001287FF42FAF2968306921F0F80141EA9F
:10385000C0012960317808070DD5706942490028F8
:103860003FF47FAF01220A60FEF714FF0446686F41
:1038700081077FF551AF3078410738D5286C002497
:10388000C1000AD400940124296C41F080512964BC
:10389000286C00F0805000900098DFF8C480D8F8C1
:1038A0000000C10519D4D8F8000040F4807000F081
:1038B00051F88146D8F80000C1050ED4FEF7EAFEA3
:1038C000A0EB09000228F5D917E72868316920F034
:1038D000F80040EAC1002860BCE7B06801287FF426
:1038E0004DAF51E71CB1286C20F080502864B069BE
:1038F00048B3A96801F00C0108293FF4D3AE0228AF
:103900007FF47BAF00F022F80446286881013FF580
:1039100066AFF269306A716A0243B06A400842EAEF
:103920008112401E42EA0042F06A316B42EA0062B4
:1039300042EA01726A60012000F009F80446286832
:1039400081017FF553AF0020BDE8F2830020386687
:10395000FEF7A0BEC8F80000FEF79CBE003802408B
:103960000070004000004742800E47420248416814
:1039700002788A18426070470C00002000B500BF32
:10398000130096469446103928BFA0E80C50FAD888
:103990005FEA417C28BF0CC048BF40F8042BC90730
:1039A00028BF20F8022B48BF00F8012B00BD000003
:1039B00082B00020009000220C48416841F4804110
:1039C0004160416801F480410091009900920F210B
:1039D000036843F080530360006800F0805000905B
:1039E00000986FF0010002B0FFF736B9403802408E
:1039F00070B5044600250CB9012070BD04F13C06E9
:103A0000706820B9B56030702046FFF780FA7068A2
:103A1000C10610D4706820F4885040F00200706035
:103A2000204600F090F9B560716821F0020141F084
:103A30000101716000E0012500203070284670BD52
:103A400038B500F0BCF801D1022032BD00F0BFF85B
:103A50001ED500F095F846BF906820F006000020C3
:103A600000F087F800F09FF806D1816811F0405F00
:103A70000ED100F079F80BE0DFF8C013884202BFE6
:103A8000DFF8BC03026812F0405F01D100F092F849
:103A9000002032BD00F13C010A78012A01D1022048
:103AA000704701220A70026893685B085B009360AC
:103AB00000688268D00705D44A6822F4885242F030
:103AC00001024A60002008707047F8B50C460646AF
:103AD00006F13C05306881684A050AD58068C10551
:103AE00007D5686840F02000686000212970012037
:103AF000F2BDFEF7CFFD0746306801688A0710D493
:103B000014F1010FF8D024B1FEF7C4FDC01B8442AC
:103B1000F2D2686840F00400686000212970032038
:103B2000F2BD6FF012020260686840F400706860D5
:103B30003168886810F0405F04BFB069002811D177
:103B4000C86A10F4700F02D0886841050AD468680A
:103B500020F4807068606868C10403D4686840F02D
:103B6000010068600020F2BD816841F08041816001
:103B700070479060002414706FF022001860704746
:103B80005568DFF8C002054045F4807555605868F7
:103B9000440505D5506820F4005040F48050506032
:103BA0005068C40470470868DFF89C120A6812F075
:103BB0001F0F7047016841F0804101607047014666
:103BC000002001F13C0200901378012B7047012086
:103BD000107008688368DC0714D48368DFF86C42CF
:103BE00043F001038360DFF868020368B3FBF4F479
:103BF00004EB4404009402E00098401E00900098FA
:103C00000028F9D10B689868C40770470068C06C39
:103C1000704778B502460020009092F83C30012BA6
:103C200001D1022072BD012082F83C0007240B68FC
:103C300010680A2B11D30A3BC56803EB430300F05D
:103C400076F8C460C3680D688C68A5F10A0606EBB7
:103C50004606B4402343C3600FE0056903EB43030A
:103C600004FA03F325EA0303036103690D688C6812
:103C700005EB4505AC40234303611F244B68072B2C
:103C80000CD25B1E456B00F050F84463436B4D68EB
:103C90000C886E1E00F044F843631BE00D2B0CD221
:103CA000DB1F056B00F041F80463036B4D680C8863
:103CB000EE1F00F035F803630CE00D3BC56A00F021
:103CC00034F8C462C36A4D680C88A5F10D0600F093
:103CD00027F8C362594B98421DD10C685A48122CE0
:103CE00003D1036843F4800303600B68122B18BFF1
:103CF000112B10D1036843F40003036008681228F5
:103D000009D15349514C0B68B3FBF4F40A204443E6
:103D1000009400F010F8002182F83C10002072BDE1
:103D200006EB8606B4402343704703EB83039C40B5
:103D300025EA0404704702E00098401E00900098B5
:103D40000028F9D17047404A116821F440311160D0
:103D5000136841680B4313600268536823F480734F
:103D600053605168036941EA03215160516821F0B1
:103D700040715160536881680B435360936823F42A
:103D8000006393609368C1680B4393603149836A11
:103D90008B4210D0936823F0706393609368816ABC
:103DA0000B439360936823F0405393609368C16A18
:103DB0000B43936007E0916821F070619160916816
:103DC00021F040519160916821F002019160916869
:103DD000836941EA43019160016A002951680CD06E
:103DE00041F400615160516821F4604151605168B3
:103DF000436A5B1E41EA433101E021F400615160F6
:103E0000D16A21F47001D162D16AC3695B1E41EAB3
:103E10000351D162916821F4007191609168036B44
:103E200041EA43219160916821F480619160916839
:103E3000406941EA80219160704700000020014004
:103E400008200140FEF9FFFF0423014040420F001B
:103E5000180000200100000F38B5040001D1012036
:103E600032BD20684CF6CC41016045F255520260EB
:103E700063684360A1688160FEF70CFC0546216819
:103E8000C86830B1FEF706FC401B3128F7D3032089
:103E900032BD4AF6AA200860002032BD30B500F1DC
:103EA00038031A78012A01D1022030BD01221A708C
:103EB00002245C700268546824F070045460046842
:103EC00065680A68154365600268946824F0800498
:103ED00094600268946848680443946001215970B2
:103EE0000020187030BD70477047704770477047AA
:103EF0007047000038B50446FEF7CCFB14F1010F03
:103F0000054602D0044801786418FEF7C3FB401B45
:103F1000A042FAD331BD00BF0C00002070B54FF0B5
:103F2000FF35DFF86C4306E02046FFF76FFE0546DD
:103F30002046FFF7AFFD2046FFF782FDD54920461A
:103F4000FFF7C3FD0028F3D1002DEDD42046FFF785
:103F50005DFE2E460546B542EAD1A5F6756063289A
:103F6000CD4C38BF012134D3A5F6E540632838BFD6
:103F700002212ED3A5F65530812838BF032128D33E
:103F8000A5F61520772838BF042122D3A5F699007D
:103F9000632838BF05211CD3A5F20970632838BFF8
:103FA000062116D3A5F27950812838BF072110D3F6
:103FB000A5F23940772838BF08210AD3A5F2BD20E1
:103FC000632838BF092104D3A5F22D10772802D227
:103FD0000A21217003E00A2D3CBF0B20207000BF96
:103FE000BDA000F077FC2178C1A0BDE8704000F0D2
:103FF00071BC000010B5A848A84C0178A8482170F1
:10400000052262700168C94301F00F01A170E01C34
:10401000BDA1FDF7BFF90022227201200422E27542
:1040200020730122A276A28340F261400022E28343
:10403000A272E081032284F82020042104F12202EC
:104040006173108001210120907090802174002004
:104050006182D080E07200210420A182617210721E
:10406000507202210120A1751073D08140F251419C
:1040700004230020218384F821305181108210BD57
:1040800070B5884C00F043F800F041F800238349F4
:10409000CE185D1C307A04EBC30278B195740A2007
:1040A00023265843167456740D186E7BD67401F18E
:1040B0001006ED891575305C507507E09574232660
:1040C000002516745674D574157555755B1C032B35
:1040D000DEDD002000220023002584E82D00087882
:1040E00023714D226270303020700622E27054201D
:1040F000A070092262714878A0718A786A48E271DA
:10410000C91C0522FDF746F96573A57370BD202112
:1041100004F11000FEF782BDF8B500225F4C0A25BD
:1041200005FB02F3C118CE7F012E19D104F1080658
:104130000127B75423440E7E1E730E7E4B7E6E43C2
:104140002644F3700E7E4B7E8F7E6E43264447EAF4
:104150000327B7800B7EC97E6B432344997103E02C
:1041600004F108060023B354521C032AD8DD4D4E37
:10417000202106F11000FEF751FD002204F108078E
:10418000531CB85C06EBC20178B18B74232705FB86
:1041900002F00F744F7423185F7BCF7404F1100783
:1041A000DB890B75385C487507E08B742327002387
:1041B0000F744F74CB740B754B75521C032ADDDDE5
:1041C000F1BD2DE9F041394C26212046FEF726FDB0
:1041D00000F054F8022000F06DF80027DFF8C480EA
:1041E000E819007A48B108F1100000EBC70133B2BA
:1041F0000622E018FDF7CEF8B61D7F1C042FEFDB7A
:10420000268530B2801F00122071B01F6071BDE89A
:10421000F0812DE9F843264C2B212046FEF7FEFCC9
:1042200000F02CF8032000F045F831B20020605473
:10423000761C0027DFF86C80E819007A88B10A2123
:104240007943294408F11000B1F8129000EBC7013E
:1042500033B209F10602E018FDF79CF809F10600F7
:1042600006447F1C042FE7DB30B2801FA8F83060C3
:1042700000122071B01F6071BDE8F183074D2A78EC
:1042800054214D20A1706070002130327047000031
:10429000C046002040420F007E480020C04700205A
:1042A00010080240F4470020304800205448002005
:1042B00028480020A1802270E07008266978A1714A
:1042C000A878E0710020291832B2C978761C401C09
:1042D000A1540528F7DB70475B426F617264204987
:1042E0006E666F726D6174696F6E5D0D0A0000001D
:1042F00020536C6F74204E756D626572203A2025D4
:104300003032640D0A0A00004630303031000000BF
:104310000CB430B583B00A4606A9029104460025C4
:104320000194009502AB01A9084878441E30FBF7C0
:1043300053FF019A157000284EBF04460198041BD4
:10434000204603B030BC5DF80CFB00BF3FD0FFFF40
:104350000300002013F0030F09D0521E22BF13F8F0
:10436000010B11F801CBB0EB0C00F3D0704711F04A
:10437000030F14D1121F22BF53F8040B51F804CBC2
:104380006045F7D0121D0AD200BA9CFA8CFCB0EB43
:104390000C0038BF6FF0000088BF01207047521E2C
:1043A00022BF13F8010B11F801CBB0EB0C00F6D0D3
:1043B000521C08BF104670472DE9F84306461746C1
:1043C00084B088469946B80000F098FA05001AD0E3
:1043D000542000F093FA040012D00D990C98256334
:1043E000002203920191009002944B463A464146C6
:1043F000304600F00DF8204600F046F8012004E0B9
:10440000284600F004FB4FF0FF3005B0BDE8F08314
:104410002DE9F0470A9E8146306B00EB8202101FA7
:10442000C0084FEAC00A00228C5CB01880F8344003
:10443000885C10B1521C102AF6D3089D002086F823
:104440004300062D099C88BF062506F14407F56246
:104450003D6078609846301D00F037FB06F118008B
:1044600000F033FB3661C5F10705B56176620020C7
:10447000B860387342464946504600F061FB3060F0
:1044800004B12660BDE8F0872DE9F04100F064F842
:10449000DFF8BC53DFF8BC83E86C401CE8641426EA
:1044A000A86A28BBAC62E86C012827D1002706FB6C
:1044B00007F0404400F0FCFA7F1C072FF7D305F10A
:1044C000740000F0F5FA05F18807384600F0F0FABC
:1044D000284600F0EDFA05F1140000F0E9FA05F1C4
:1044E000380000F0E5FA05F17400E8622F6305E09A
:1044F000A86D18B900F037F828BFAC62A86E401C50
:10450000A8660122E06A696D8240114369654643ED
:10451000211D08EB060000F0DBFA00F094FBA86D0B
:1045200008B100F086F9BDE8F08180B588B1DFF808
:104530009023116F21B100F012F800F027F9FEE787
:10454000116F491C1167002100F086F900F040F856
:1045500008B900F016F901BD044600F05BBB50201D
:1045600080F311887047E06AA96ACA6A904270476E
:104570003EB5DFF84C430FF2543104F19C0001903A
:1045800000250095002380220FF20D20FFF714FF75
:10459000502101280ED181F3118800F0F7F84FF077
:1045A000FF30E0660121A1652565BDE8374000F0D8
:1045B000E9BA37BD10F1010FFBD181F3118800F08A
:1045C000E5F8FEE7DFF8F802016F491C0167704764
:1045D00070B5DFF8EC62306F0024002528B9502157
:1045E00081F3118800F0D2F8FEE700F013FB306F82
:1045F000401E3067306F002836D1F06CD8B933E0F8
:10460000F068C46800F031F800F009F9E06A716DF3
:10461000DFF8B03201228240114371651422504309
:10462000211D184400F054FAE06AB16ACA6A904247
:1046300024BF0121316630680028E1D10CB100F0BF
:10464000E0F8F46D3CB100F014F808B101203066D8
:10465000641EF8D1F565306E30B1DFF86C124FF0A2
:104660008050012500F091F8DCE004F1180000F022
:1046700055BA2DE9F843DFF84872386F0026002854
:104680004FD13C6D641C3C6511D1F96A086828B1B2
:10469000502181F3118800F079F8FEE7F86A396B50
:1046A000F9623863786E401C786600F0AAF8F86EFC
:1046B000DFF8109284424FF0140825D31AE0281D29
:1046C00000F02CFAA86A18B105F1180000F026FADB
:1046D000E86A796D012282401143796508FB00F098
:1046E000291D484400F0F4F9E86AB96ACA6A9042A0
:1046F00028BF0126F96A086880B1F86AC168CD68E8
:1047000068688442DBD2F866B86AC16A08FB01F0C7
:1047100059F80020022A07D3012605E04FF0FF30A8
:10472000F1E7F86D401CF865386E00B101267DE0B8
:10473000DFF81C21106F10B101211166704710665F
:104740001421506DB0FA80F3C3F11F034B43DFF81F
:104750007411C85838B9502181F31188BFF34F8FB5
:10476000BFF36F8FFEE7C81800F10803416849687E
:104770004160994204BF496841604068C1689162E4
:104780007047DFF844114FF080500860BFF34F8F3F
:10479000BFF36F8F7047000070B5DFF8B840DFF8E7
:1047A00020511BE0286F401C28676869461EB641EF
:1047B000FFF70EFFF60F8EB900F02CFA286AC668D4
:1047C000301D00F0ABF9E86C401EE864686B401ED9
:1047D000686300F038FA304600F009F8686B00288A
:1047E000E0D121680129F9D9FFF7CBFFF6E710B531
:1047F0000446206B00F00BF92046BDE8104000F0A5
:1048000006B9DFF8BC10CA6A106810B94FF0FF3261
:1048100003E0C86AC268D0684268CA667047201D53
:1048200000F07CB900F00FFA284670BD3046BDE8B4
:10483000F283A86AC16AE06A814207D2224A4FF035
:1048400080511160BFF34F8FBFF36F8F704700002F
:1048500044450020E4450020F8B5194D2F6D0C4665
:10486000A96A0646081D00F059F930B9A86A696DB1
:10487000C06A012282409143696516F1010F08D197
:104880003CB1A86A011D05F13800BDE8F44000F014
:104890001FB9A86AF6194660BE42A86A05D2011D72
:1048A000286BBDE8F44000F020B9011DE86A00F073
:1048B0001CF9E86E864238BFEE66F1BD00000000CC
:1048C00044450020E445002004ED00E049444C4507
:1048D000000000000EB4C0B5024603A800210190FC
:1048E000009101AB0121044878440C30FBF774FCC3
:1048F00006BC5DF810FB00BFD70500002DE9F843AA
:104900000446FFF75FFE694FB8684FF000090025C5
:1049100008BB07F1180307F1180113F0070F4FF454
:1049200070500A4605D0CA1DD208D200C2F5705098
:10493000081880180838C008C0003A607D60B86068
:1049400045600560831A5360106050683861F860F4
:104950004FF0004078614FF050087869044233D13D
:1049600094B3083414F0070F1FBF04F1080004F0DB
:104970000704041B14F0070F02D000F041F8FEE713
:1049800014B3F868A0421FD33E6839467068A0424D
:1049900023D2306800281CBF31460646F6D11CE001
:1049A000301D02517460084600F05BF87168F868C9
:1049B0003A69401AF860904238BF3861786901431B
:1049C0007160356009F00705FFF702FE15B100F0D0
:1049D00017F8FEE74846BDE8F283B8688642F3D090
:1049E0000A683068086002F108097268121B112A0F
:1049F000DCD3311911F00700D2D000F001F8FEE746
:104A000088F31188BFF34F8FBFF36F8F7047002873
:104A100000D1704738B5A0F10804244D61686A6977
:104A20005023114202D100F015F8FEE7206810B1C2
:104A300000F010F8FEE791436160FFF7C3FDE968FD
:104A400060684118E960204600F00BF8BDE831408D
:104A5000FFF7BEBD83F31188BFF34F8FBFF36F8F96
:104A6000704730B511490A4600E01A461368834280
:104A7000FBD35368D418844203D14068C3185360F1
:104A8000104643681468C518A54208D189688C424D
:104A900004D06168CB184360246800E00C460460D1
:104AA000824218BF106030BD00000000E40000200A
:104AB0004FF0FF3200F1080182604160C16000F1F7
:104AC0000802026100210160704700210161704706
:104AD00010B542684A6093688B6094686160916029
:104AE00008610168491C016010BD30B50A6812F107
:104AF000010F08BF036907D000F1080300E0234657
:104B00005C682568AA42FAD25A684A6091608B6054
:104B1000596008610168491C016030BD4368016942
:104B200082689A60836842685A604A68824204BF19
:104B300083684B60002202610868401E086070476D
:104B4000490810B54900A0F120034FF08074996125
:104B50001A60DC616FF002020FF20D01596140F83A
:104B6000242D203810BD00004A494A68502012F117
:104B7000010F80F31188BFF34F8FBFF36F8F00D009
:104B8000FEE7FEE73EB54449444B0A6850209A428E
:104B900002D100F078F8FEE70A68414B9A4202D150
:104BA00000F071F8FEE73F4A13780193FF24147078
:104BB0001578384C8DF800509DF8000000F050003A
:104BC0002070072005E09DF800305B00401E8DF846
:104BD00000309DF800301D06F5D4000200F4E060BE
:104BE000A060019810700A6A42F470020A62086AB2
:104BF00040F07040086200F05BF80020606000F058
:104C0000ADF82948016841F04041016000F09AF890
:104C100000203EBD502080F31188BFF34F8FBFF3BB
:104C20006F8F1C494A68521C012A4A600AD11F49E9
:104C30000A68130606D080F31188BFF34F8FBFF3C5
:104C40006F8FFEE770471349486838B9502080F3EA
:104C50001188BFF34F8FBFF36F8FFEE7401E486090
:104C600008BF80F31188704780B5502000F00BF822
:104C7000FFF7FFFC18B10D494FF08050086000228B
:104C800082F3118801BD80F31188BFF34F8FBFF30A
:104C90006F8F70470000002000ED00E071C20F41EF
:104CA00070C20F4100E400E034EF00E004ED00E0EA
:104CB000054906480A684FF47A73B2FBF3F35B1EAA
:104CC00043600721016070471800002010E000E0F9
:104CD000EFF30980BFF36F8F244B1A681EF0100F9B
:104CE00008BF20ED108A20E9F04F106008B44FF0A3
:104CF000500080F31188BFF34F8FBFF36F8FFFF722
:104D000017FD4FF0000080F3118808BC196808688F
:104D1000B0E8F04F1EF0100F08BFB0EC108A80F31F
:104D20000988BFF36F8F7047104B19680868B0E8A7
:104D3000F04F80F30988BFF36F8F4FF0000080F3CE
:104D4000118870470A480068006880F3088862B6D6
:104D500061B6BFF34F8FBFF36F8F00DFDFF8140032
:104D6000016841F470010160704700006C4500204B
:104D700008ED00E088ED00E00E48016841F47001A4
:104D8000016000220C49086840F0010008608A6058
:104D90000B680A480A4A03400B604A6000200B680F
:104DA000084A23F480230B60C8604FF00061116053
:104DB0007047000088ED00E000380240FFFFF6FE7B
:104DC0001030002408ED00E00000000000000000AA
:104DD00001020304060708097047FEE7FEE7FEE745
:104DE000FEE770470548FEF763B90548FDF7AFB920
:104DF0000448FEF75DB90448FDF7A9B984470020CF
:104E00000847002048470020003D002010B5074912
:104E100079441831064C7C44163404E00A68081DB5
:104E2000114488470146A142F8D110BD500000004E
:104E30006C0000006D61696E5461736B00000000CE
:104E400064656275675461736B000000696E70750C
:104E5000745461736B0000004EF68851CEF200016D
:104E6000086840F470000860BFF34F8FBFF36F8F86
:104E70004FF00070E1EE100A70470000DFC3FFFF43
:104E8000C4470000E400002000000000C7C2FFFF8C
:104E9000F6010000B20000000000002000F00DF854
:104EA000002801D0FFF7B2FFAFF300800020AFF37E
:104EB0000080FDF7EFFD00F002F80120704700F0E0
:104EC00001B8000007463846FDF74AF8FBE738B559
:104ED00004460D46284600F005F8A84218BF0024F5
:104EE000204632BD0149FDF7C3BD00BF9C00002034
:104EF0000148804701480047794D0008014F0008EC
:104F0000AFF30080FFF7A8FFFFF7C8FF0000000025
:104F10000102030400002E004300FFF7FEBFFFF76D
:104F2000FEBFFFF7FEBFFFF7FEBFFFF7FEBFFFF7B5
:104F3000FEBFFFF7FEBFFFF7FEBFFFF7FEBFFFF7A5
:104F4000FEBFFFF7FEBFFFF7FEBFFFF7FEBFFFF795
:104F5000FEBFFFF7FEBFFFF7FEBFFFF7FEBFFFF785
:104F6000FEBFFFF7FEBFFFF7FEBFFFF7FEBFFFF775
:104F7000FEBFFFF7FEBFFFF7FEBFFFF7FEBFFFF765
:104F8000FEBFFFF7FEBFFFF7FEBFFFF7FEBFFFF755
:104F9000FEBFFFF7FEBFFFF7FEBFFFF7FEBFFFF745
:104FA000FEBFFFF7FEBFFFF7FEBFFFF7FEBFFFF735
:104FB000FEBFFFF7FEBFFFF7FEBFFFF7FEBFFFF725
:104FC000FEBFFFF7FEBFFFF7FEBFFFF7FEBFFFF715
:104FD000FEBFFFF7FEBFFFF7FEBFFFF7FEBFFFF705
:104FE000FEBFFFF7FEBFFFF7FEBFFFF7FEBFFFF7F5
:104FF000FEBFFFF7FEBFFFF7FEBFFFF7FEBFFFF7E5
:10500000FEBFFFF7FEBFFFF7FEBFFFF7FEBFFFF7D4
:10501000FEBFFFF7FEBFFFF7FEBFFFF7FEBFFFF7C4
:10502000FEBFFFF7FEBFFFF7FEBFFFF7FEBFFFF7B4
:10503000FEBFFFF7FEBFFFF7FEBFFFF7FEBFFFF7A4
:10504000FEBFFFF7FEBFFFF7FEBFFFF7FEBFFFF794
:10505000FEBFFFF7FEBFFFF7FEBFFFF7FEBFFFF784
:10506000FEBFFFF7FEBFFFF7FEBFFFF7FEBFFFF774
:10507000FEBFFFF7FEBFFFF7FEBFFFF7FEBFFFF764
:10508000FEBFFFF7FEBF12000112AA012108430173
:105090000001221008F0050724F400144F00080452
:1050A00052FF01F200161410010000180C214CF000
:1050B00003161C000020000120021D1300082C43D1
:1050C0000B133C210110070204010170460020C0AF
:0F50D00004527004211B610812E060F212CC64DC
:0400000508004F019F
:00000001FF
